{"contracts/UniswapV2Handler.sol":{"UniswapV2Handler":{"abi":[{"inputs":[{"internalType":"address","name":"router","type":"address"},{"internalType":"bytes","name":"data","type":"bytes"}],"name":"executeSwap","outputs":[{"internalType":"uint256","name":"amountOut","type":"uint256"}],"stateMutability":"nonpayable","type":"function"}],"evm":{"bytecode":{"linkReferences":{},"object":"608060405234801561001057600080fd5b506107c1806100206000396000f3fe608060405234801561001057600080fd5b506004361061002b5760003560e01c806303f7c80f14610030575b600080fd5b61004a6004803603810190610045919061021f565b610060565b6040516100579190610298565b60405180910390f35b60008060008060008686810190610077919061042e565b9350935093509350600088905060008173ffffffffffffffffffffffffffffffffffffffff166338ed173987878730886040518663ffffffff1660e01b81526004016100c795949392919061057e565b6000604051808303816000875af11580156100e6573d6000803e3d6000fd5b505050506040513d6000823e3d601f19601f8201168201806040525081019061010f91906106b0565b905080600182516101209190610728565b815181106101315761013061075c565b5b602002602001015196505050505050509392505050565b6000604051905090565b600080fd5b600080fd5b600073ffffffffffffffffffffffffffffffffffffffff82169050919050565b60006101878261015c565b9050919050565b6101978161017c565b81146101a257600080fd5b50565b6000813590506101b48161018e565b92915050565b600080fd5b600080fd5b600080fd5b60008083601f8401126101df576101de6101ba565b5b8235905067ffffffffffffffff8111156101fc576101fb6101bf565b5b602083019150836001820283011115610218576102176101c4565b5b9250929050565b60008060006040848603121561023857610237610152565b5b6000610246868287016101a5565b935050602084013567ffffffffffffffff81111561026757610266610157565b5b610273868287016101c9565b92509250509250925092565b6000819050919050565b6102928161027f565b82525050565b60006020820190506102ad6000830184610289565b92915050565b6102bc8161027f565b81146102c757600080fd5b50565b6000813590506102d9816102b3565b92915050565b6000601f19601f8301169050919050565b7f4e487b7100000000000000000000000000000000000000000000000000000000600052604160045260246000fd5b610328826102df565b810181811067ffffffffffffffff82111715610347576103466102f0565b5b80604052505050565b600061035a610148565b9050610366828261031f565b919050565b600067ffffffffffffffff821115610386576103856102f0565b5b602082029050602081019050919050565b60006103aa6103a58461036b565b610350565b905080838252602082019050602084028301858111156103cd576103cc6101c4565b5b835b818110156103f657806103e288826101a5565b8452602084019350506020810190506103cf565b5050509392505050565b600082601f830112610415576104146101ba565b5b8135610425848260208601610397565b91505092915050565b6000806000806080858703121561044857610447610152565b5b6000610456878288016102ca565b9450506020610467878288016102ca565b935050604085013567ffffffffffffffff81111561048857610487610157565b5b61049487828801610400565b92505060606104a5878288016102ca565b91505092959194509250565b600081519050919050565b600082825260208201905092915050565b6000819050602082019050919050565b6104e68161017c565b82525050565b60006104f883836104dd565b60208301905092915050565b6000602082019050919050565b600061051c826104b1565b61052681856104bc565b9350610531836104cd565b8060005b8381101561056257815161054988826104ec565b975061055483610504565b925050600181019050610535565b5085935050505092915050565b6105788161017c565b82525050565b600060a0820190506105936000830188610289565b6105a06020830187610289565b81810360408301526105b28186610511565b90506105c1606083018561056f565b6105ce6080830184610289565b9695505050505050565b600067ffffffffffffffff8211156105f3576105f26102f0565b5b602082029050602081019050919050565b600081519050610613816102b3565b92915050565b600061062c610627846105d8565b610350565b9050808382526020820190506020840283018581111561064f5761064e6101c4565b5b835b8181101561067857806106648882610604565b845260208401935050602081019050610651565b5050509392505050565b600082601f830112610697576106966101ba565b5b81516106a7848260208601610619565b91505092915050565b6000602082840312156106c6576106c5610152565b5b600082015167ffffffffffffffff8111156106e4576106e3610157565b5b6106f084828501610682565b91505092915050565b7f4e487b7100000000000000000000000000000000000000000000000000000000600052601160045260246000fd5b60006107338261027f565b915061073e8361027f565b9250828203905081811115610756576107556106f9565b5b92915050565b7f4e487b7100000000000000000000000000000000000000000000000000000000600052603260045260246000fdfea26469706673582212203009b55b430f0c37cd42ec456fd372285624369535c88f07e930b80e4f31245364736f6c63430008180033","opcodes":"PUSH1 0x80 PUSH1 0x40 MSTORE CALLVALUE DUP1 ISZERO PUSH2 0x10 JUMPI PUSH1 0x0 DUP1 REVERT JUMPDEST POP PUSH2 0x7C1 DUP1 PUSH2 0x20 PUSH1 0x0 CODECOPY PUSH1 0x0 RETURN INVALID PUSH1 0x80 PUSH1 0x40 MSTORE CALLVALUE DUP1 ISZERO PUSH2 0x10 JUMPI PUSH1 0x0 DUP1 REVERT JUMPDEST POP PUSH1 0x4 CALLDATASIZE LT PUSH2 0x2B JUMPI PUSH1 0x0 CALLDATALOAD PUSH1 0xE0 SHR DUP1 PUSH4 0x3F7C80F EQ PUSH2 0x30 JUMPI JUMPDEST PUSH1 0x0 DUP1 REVERT JUMPDEST PUSH2 0x4A PUSH1 0x4 DUP1 CALLDATASIZE SUB DUP2 ADD SWAP1 PUSH2 0x45 SWAP2 SWAP1 PUSH2 0x21F JUMP JUMPDEST PUSH2 0x60 JUMP JUMPDEST PUSH1 0x40 MLOAD PUSH2 0x57 SWAP2 SWAP1 PUSH2 0x298 JUMP JUMPDEST PUSH1 0x40 MLOAD DUP1 SWAP2 SUB SWAP1 RETURN JUMPDEST PUSH1 0x0 DUP1 PUSH1 0x0 DUP1 PUSH1 0x0 DUP7 DUP7 DUP2 ADD SWAP1 PUSH2 0x77 SWAP2 SWAP1 PUSH2 0x42E JUMP JUMPDEST SWAP4 POP SWAP4 POP SWAP4 POP SWAP4 POP PUSH1 0x0 DUP9 SWAP1 POP PUSH1 0x0 DUP2 PUSH20 0xFFFFFFFFFFFFFFFFFFFFFFFFFFFFFFFFFFFFFFFF AND PUSH4 0x38ED1739 DUP8 DUP8 DUP8 ADDRESS DUP9 PUSH1 0x40 MLOAD DUP7 PUSH4 0xFFFFFFFF AND PUSH1 0xE0 SHL DUP2 MSTORE PUSH1 0x4 ADD PUSH2 0xC7 SWAP6 SWAP5 SWAP4 SWAP3 SWAP2 SWAP1 PUSH2 0x57E JUMP JUMPDEST PUSH1 0x0 PUSH1 0x40 MLOAD DUP1 DUP4 SUB DUP2 PUSH1 0x0 DUP8 GAS CALL ISZERO DUP1 ISZERO PUSH2 0xE6 JUMPI RETURNDATASIZE PUSH1 0x0 DUP1 RETURNDATACOPY RETURNDATASIZE PUSH1 0x0 REVERT JUMPDEST POP POP POP POP PUSH1 0x40 MLOAD RETURNDATASIZE PUSH1 0x0 DUP3 RETURNDATACOPY RETURNDATASIZE PUSH1 0x1F NOT PUSH1 0x1F DUP3 ADD AND DUP3 ADD DUP1 PUSH1 0x40 MSTORE POP DUP2 ADD SWAP1 PUSH2 0x10F SWAP2 SWAP1 PUSH2 0x6B0 JUMP JUMPDEST SWAP1 POP DUP1 PUSH1 0x1 DUP3 MLOAD PUSH2 0x120 SWAP2 SWAP1 PUSH2 0x728 JUMP JUMPDEST DUP2 MLOAD DUP2 LT PUSH2 0x131 JUMPI PUSH2 0x130 PUSH2 0x75C JUMP JUMPDEST JUMPDEST PUSH1 0x20 MUL PUSH1 0x20 ADD ADD MLOAD SWAP7 POP POP POP POP POP POP POP SWAP4 SWAP3 POP POP POP JUMP JUMPDEST PUSH1 0x0 PUSH1 0x40 MLOAD SWAP1 POP SWAP1 JUMP JUMPDEST PUSH1 0x0 DUP1 REVERT JUMPDEST PUSH1 0x0 DUP1 REVERT JUMPDEST PUSH1 0x0 PUSH20 0xFFFFFFFFFFFFFFFFFFFFFFFFFFFFFFFFFFFFFFFF DUP3 AND SWAP1 POP SWAP2 SWAP1 POP JUMP JUMPDEST PUSH1 0x0 PUSH2 0x187 DUP3 PUSH2 0x15C JUMP JUMPDEST SWAP1 POP SWAP2 SWAP1 POP JUMP JUMPDEST PUSH2 0x197 DUP2 PUSH2 0x17C JUMP JUMPDEST DUP2 EQ PUSH2 0x1A2 JUMPI PUSH1 0x0 DUP1 REVERT JUMPDEST POP JUMP JUMPDEST PUSH1 0x0 DUP2 CALLDATALOAD SWAP1 POP PUSH2 0x1B4 DUP2 PUSH2 0x18E JUMP JUMPDEST SWAP3 SWAP2 POP POP JUMP JUMPDEST PUSH1 0x0 DUP1 REVERT JUMPDEST PUSH1 0x0 DUP1 REVERT JUMPDEST PUSH1 0x0 DUP1 REVERT JUMPDEST PUSH1 0x0 DUP1 DUP4 PUSH1 0x1F DUP5 ADD SLT PUSH2 0x1DF JUMPI PUSH2 0x1DE PUSH2 0x1BA JUMP JUMPDEST JUMPDEST DUP3 CALLDATALOAD SWAP1 POP PUSH8 0xFFFFFFFFFFFFFFFF DUP2 GT ISZERO PUSH2 0x1FC JUMPI PUSH2 0x1FB PUSH2 0x1BF JUMP JUMPDEST JUMPDEST PUSH1 0x20 DUP4 ADD SWAP2 POP DUP4 PUSH1 0x1 DUP3 MUL DUP4 ADD GT ISZERO PUSH2 0x218 JUMPI PUSH2 0x217 PUSH2 0x1C4 JUMP JUMPDEST JUMPDEST SWAP3 POP SWAP3 SWAP1 POP JUMP JUMPDEST PUSH1 0x0 DUP1 PUSH1 0x0 PUSH1 0x40 DUP5 DUP7 SUB SLT ISZERO PUSH2 0x238 JUMPI PUSH2 0x237 PUSH2 0x152 JUMP JUMPDEST JUMPDEST PUSH1 0x0 PUSH2 0x246 DUP7 DUP3 DUP8 ADD PUSH2 0x1A5 JUMP JUMPDEST SWAP4 POP POP PUSH1 0x20 DUP5 ADD CALLDATALOAD PUSH8 0xFFFFFFFFFFFFFFFF DUP2 GT ISZERO PUSH2 0x267 JUMPI PUSH2 0x266 PUSH2 0x157 JUMP JUMPDEST JUMPDEST PUSH2 0x273 DUP7 DUP3 DUP8 ADD PUSH2 0x1C9 JUMP JUMPDEST SWAP3 POP SWAP3 POP POP SWAP3 POP SWAP3 POP SWAP3 JUMP JUMPDEST PUSH1 0x0 DUP2 SWAP1 POP SWAP2 SWAP1 POP JUMP JUMPDEST PUSH2 0x292 DUP2 PUSH2 0x27F JUMP JUMPDEST DUP3 MSTORE POP POP JUMP JUMPDEST PUSH1 0x0 PUSH1 0x20 DUP3 ADD SWAP1 POP PUSH2 0x2AD PUSH1 0x0 DUP4 ADD DUP5 PUSH2 0x289 JUMP JUMPDEST SWAP3 SWAP2 POP POP JUMP JUMPDEST PUSH2 0x2BC DUP2 PUSH2 0x27F JUMP JUMPDEST DUP2 EQ PUSH2 0x2C7 JUMPI PUSH1 0x0 DUP1 REVERT JUMPDEST POP JUMP JUMPDEST PUSH1 0x0 DUP2 CALLDATALOAD SWAP1 POP PUSH2 0x2D9 DUP2 PUSH2 0x2B3 JUMP JUMPDEST SWAP3 SWAP2 POP POP JUMP JUMPDEST PUSH1 0x0 PUSH1 0x1F NOT PUSH1 0x1F DUP4 ADD AND SWAP1 POP SWAP2 SWAP1 POP JUMP JUMPDEST PUSH32 0x4E487B7100000000000000000000000000000000000000000000000000000000 PUSH1 0x0 MSTORE PUSH1 0x41 PUSH1 0x4 MSTORE PUSH1 0x24 PUSH1 0x0 REVERT JUMPDEST PUSH2 0x328 DUP3 PUSH2 0x2DF JUMP JUMPDEST DUP2 ADD DUP2 DUP2 LT PUSH8 0xFFFFFFFFFFFFFFFF DUP3 GT OR ISZERO PUSH2 0x347 JUMPI PUSH2 0x346 PUSH2 0x2F0 JUMP JUMPDEST JUMPDEST DUP1 PUSH1 0x40 MSTORE POP POP POP JUMP JUMPDEST PUSH1 0x0 PUSH2 0x35A PUSH2 0x148 JUMP JUMPDEST SWAP1 POP PUSH2 0x366 DUP3 DUP3 PUSH2 0x31F JUMP JUMPDEST SWAP2 SWAP1 POP JUMP JUMPDEST PUSH1 0x0 PUSH8 0xFFFFFFFFFFFFFFFF DUP3 GT ISZERO PUSH2 0x386 JUMPI PUSH2 0x385 PUSH2 0x2F0 JUMP JUMPDEST JUMPDEST PUSH1 0x20 DUP3 MUL SWAP1 POP PUSH1 0x20 DUP2 ADD SWAP1 POP SWAP2 SWAP1 POP JUMP JUMPDEST PUSH1 0x0 PUSH2 0x3AA PUSH2 0x3A5 DUP5 PUSH2 0x36B JUMP JUMPDEST PUSH2 0x350 JUMP JUMPDEST SWAP1 POP DUP1 DUP4 DUP3 MSTORE PUSH1 0x20 DUP3 ADD SWAP1 POP PUSH1 0x20 DUP5 MUL DUP4 ADD DUP6 DUP2 GT ISZERO PUSH2 0x3CD JUMPI PUSH2 0x3CC PUSH2 0x1C4 JUMP JUMPDEST JUMPDEST DUP4 JUMPDEST DUP2 DUP2 LT ISZERO PUSH2 0x3F6 JUMPI DUP1 PUSH2 0x3E2 DUP9 DUP3 PUSH2 0x1A5 JUMP JUMPDEST DUP5 MSTORE PUSH1 0x20 DUP5 ADD SWAP4 POP POP PUSH1 0x20 DUP2 ADD SWAP1 POP PUSH2 0x3CF JUMP JUMPDEST POP POP POP SWAP4 SWAP3 POP POP POP JUMP JUMPDEST PUSH1 0x0 DUP3 PUSH1 0x1F DUP4 ADD SLT PUSH2 0x415 JUMPI PUSH2 0x414 PUSH2 0x1BA JUMP JUMPDEST JUMPDEST DUP2 CALLDATALOAD PUSH2 0x425 DUP5 DUP3 PUSH1 0x20 DUP7 ADD PUSH2 0x397 JUMP JUMPDEST SWAP2 POP POP SWAP3 SWAP2 POP POP JUMP JUMPDEST PUSH1 0x0 DUP1 PUSH1 0x0 DUP1 PUSH1 0x80 DUP6 DUP8 SUB SLT ISZERO PUSH2 0x448 JUMPI PUSH2 0x447 PUSH2 0x152 JUMP JUMPDEST JUMPDEST PUSH1 0x0 PUSH2 0x456 DUP8 DUP3 DUP9 ADD PUSH2 0x2CA JUMP JUMPDEST SWAP5 POP POP PUSH1 0x20 PUSH2 0x467 DUP8 DUP3 DUP9 ADD PUSH2 0x2CA JUMP JUMPDEST SWAP4 POP POP PUSH1 0x40 DUP6 ADD CALLDATALOAD PUSH8 0xFFFFFFFFFFFFFFFF DUP2 GT ISZERO PUSH2 0x488 JUMPI PUSH2 0x487 PUSH2 0x157 JUMP JUMPDEST JUMPDEST PUSH2 0x494 DUP8 DUP3 DUP9 ADD PUSH2 0x400 JUMP JUMPDEST SWAP3 POP POP PUSH1 0x60 PUSH2 0x4A5 DUP8 DUP3 DUP9 ADD PUSH2 0x2CA JUMP JUMPDEST SWAP2 POP POP SWAP3 SWAP6 SWAP2 SWAP5 POP SWAP3 POP JUMP JUMPDEST PUSH1 0x0 DUP2 MLOAD SWAP1 POP SWAP2 SWAP1 POP JUMP JUMPDEST PUSH1 0x0 DUP3 DUP3 MSTORE PUSH1 0x20 DUP3 ADD SWAP1 POP SWAP3 SWAP2 POP POP JUMP JUMPDEST PUSH1 0x0 DUP2 SWAP1 POP PUSH1 0x20 DUP3 ADD SWAP1 POP SWAP2 SWAP1 POP JUMP JUMPDEST PUSH2 0x4E6 DUP2 PUSH2 0x17C JUMP JUMPDEST DUP3 MSTORE POP POP JUMP JUMPDEST PUSH1 0x0 PUSH2 0x4F8 DUP4 DUP4 PUSH2 0x4DD JUMP JUMPDEST PUSH1 0x20 DUP4 ADD SWAP1 POP SWAP3 SWAP2 POP POP JUMP JUMPDEST PUSH1 0x0 PUSH1 0x20 DUP3 ADD SWAP1 POP SWAP2 SWAP1 POP JUMP JUMPDEST PUSH1 0x0 PUSH2 0x51C DUP3 PUSH2 0x4B1 JUMP JUMPDEST PUSH2 0x526 DUP2 DUP6 PUSH2 0x4BC JUMP JUMPDEST SWAP4 POP PUSH2 0x531 DUP4 PUSH2 0x4CD JUMP JUMPDEST DUP1 PUSH1 0x0 JUMPDEST DUP4 DUP2 LT ISZERO PUSH2 0x562 JUMPI DUP2 MLOAD PUSH2 0x549 DUP9 DUP3 PUSH2 0x4EC JUMP JUMPDEST SWAP8 POP PUSH2 0x554 DUP4 PUSH2 0x504 JUMP JUMPDEST SWAP3 POP POP PUSH1 0x1 DUP2 ADD SWAP1 POP PUSH2 0x535 JUMP JUMPDEST POP DUP6 SWAP4 POP POP POP POP SWAP3 SWAP2 POP POP JUMP JUMPDEST PUSH2 0x578 DUP2 PUSH2 0x17C JUMP JUMPDEST DUP3 MSTORE POP POP JUMP JUMPDEST PUSH1 0x0 PUSH1 0xA0 DUP3 ADD SWAP1 POP PUSH2 0x593 PUSH1 0x0 DUP4 ADD DUP9 PUSH2 0x289 JUMP JUMPDEST PUSH2 0x5A0 PUSH1 0x20 DUP4 ADD DUP8 PUSH2 0x289 JUMP JUMPDEST DUP2 DUP2 SUB PUSH1 0x40 DUP4 ADD MSTORE PUSH2 0x5B2 DUP2 DUP7 PUSH2 0x511 JUMP JUMPDEST SWAP1 POP PUSH2 0x5C1 PUSH1 0x60 DUP4 ADD DUP6 PUSH2 0x56F JUMP JUMPDEST PUSH2 0x5CE PUSH1 0x80 DUP4 ADD DUP5 PUSH2 0x289 JUMP JUMPDEST SWAP7 SWAP6 POP POP POP POP POP POP JUMP JUMPDEST PUSH1 0x0 PUSH8 0xFFFFFFFFFFFFFFFF DUP3 GT ISZERO PUSH2 0x5F3 JUMPI PUSH2 0x5F2 PUSH2 0x2F0 JUMP JUMPDEST JUMPDEST PUSH1 0x20 DUP3 MUL SWAP1 POP PUSH1 0x20 DUP2 ADD SWAP1 POP SWAP2 SWAP1 POP JUMP JUMPDEST PUSH1 0x0 DUP2 MLOAD SWAP1 POP PUSH2 0x613 DUP2 PUSH2 0x2B3 JUMP JUMPDEST SWAP3 SWAP2 POP POP JUMP JUMPDEST PUSH1 0x0 PUSH2 0x62C PUSH2 0x627 DUP5 PUSH2 0x5D8 JUMP JUMPDEST PUSH2 0x350 JUMP JUMPDEST SWAP1 POP DUP1 DUP4 DUP3 MSTORE PUSH1 0x20 DUP3 ADD SWAP1 POP PUSH1 0x20 DUP5 MUL DUP4 ADD DUP6 DUP2 GT ISZERO PUSH2 0x64F JUMPI PUSH2 0x64E PUSH2 0x1C4 JUMP JUMPDEST JUMPDEST DUP4 JUMPDEST DUP2 DUP2 LT ISZERO PUSH2 0x678 JUMPI DUP1 PUSH2 0x664 DUP9 DUP3 PUSH2 0x604 JUMP JUMPDEST DUP5 MSTORE PUSH1 0x20 DUP5 ADD SWAP4 POP POP PUSH1 0x20 DUP2 ADD SWAP1 POP PUSH2 0x651 JUMP JUMPDEST POP POP POP SWAP4 SWAP3 POP POP POP JUMP JUMPDEST PUSH1 0x0 DUP3 PUSH1 0x1F DUP4 ADD SLT PUSH2 0x697 JUMPI PUSH2 0x696 PUSH2 0x1BA JUMP JUMPDEST JUMPDEST DUP2 MLOAD PUSH2 0x6A7 DUP5 DUP3 PUSH1 0x20 DUP7 ADD PUSH2 0x619 JUMP JUMPDEST SWAP2 POP POP SWAP3 SWAP2 POP POP JUMP JUMPDEST PUSH1 0x0 PUSH1 0x20 DUP3 DUP5 SUB SLT ISZERO PUSH2 0x6C6 JUMPI PUSH2 0x6C5 PUSH2 0x152 JUMP JUMPDEST JUMPDEST PUSH1 0x0 DUP3 ADD MLOAD PUSH8 0xFFFFFFFFFFFFFFFF DUP2 GT ISZERO PUSH2 0x6E4 JUMPI PUSH2 0x6E3 PUSH2 0x157 JUMP JUMPDEST JUMPDEST PUSH2 0x6F0 DUP5 DUP3 DUP6 ADD PUSH2 0x682 JUMP JUMPDEST SWAP2 POP POP SWAP3 SWAP2 POP POP JUMP JUMPDEST PUSH32 0x4E487B7100000000000000000000000000000000000000000000000000000000 PUSH1 0x0 MSTORE PUSH1 0x11 PUSH1 0x4 MSTORE PUSH1 0x24 PUSH1 0x0 REVERT JUMPDEST PUSH1 0x0 PUSH2 0x733 DUP3 PUSH2 0x27F JUMP JUMPDEST SWAP2 POP PUSH2 0x73E DUP4 PUSH2 0x27F JUMP JUMPDEST SWAP3 POP DUP3 DUP3 SUB SWAP1 POP DUP2 DUP2 GT ISZERO PUSH2 0x756 JUMPI PUSH2 0x755 PUSH2 0x6F9 JUMP JUMPDEST JUMPDEST SWAP3 SWAP2 POP POP JUMP JUMPDEST PUSH32 0x4E487B7100000000000000000000000000000000000000000000000000000000 PUSH1 0x0 MSTORE PUSH1 0x32 PUSH1 0x4 MSTORE PUSH1 0x24 PUSH1 0x0 REVERT INVALID LOG2 PUSH5 0x6970667358 0x22 SLT KECCAK256 ADDRESS MULMOD 0xB5 JUMPDEST NUMBER 0xF 0xC CALLDATACOPY 0xCD TIMESTAMP 0xEC GASLIMIT PUSH16 0xD372285624369535C88F07E930B80E4F BALANCE 0x24 MSTORE8 PUSH5 0x736F6C6343 STOP ADDMOD XOR STOP CALLER "},"methodIdentifiers":{"executeSwap(address,bytes)":"03f7c80f"}},"storageLayout":{"storage":[],"types":null}}}}