{"contracts/Aggregator.sol":{"Aggregator":{"abi":[{"inputs":[{"internalType":"address","name":"_factory","type":"address"}],"stateMutability":"nonpayable","type":"constructor"},{"inputs":[],"name":"factory","outputs":[{"internalType":"contract IDexHandlerFactory","name":"","type":"address"}],"stateMutability":"view","type":"function"},{"inputs":[{"components":[{"internalType":"address[]","name":"routers","type":"address[]"},{"internalType":"uint8[]","name":"dexHandlerIds","type":"uint8[]"},{"internalType":"address[]","name":"tokenIn","type":"address[]"},{"internalType":"uint256","name":"amountIn","type":"uint256"},{"internalType":"bytes[]","name":"data","type":"bytes[]"}],"internalType":"struct SwapMultiHop","name":"params","type":"tuple"}],"name":"swapMultiHop","outputs":[{"internalType":"uint256","name":"amountOut","type":"uint256"}],"stateMutability":"nonpayable","type":"function"},{"inputs":[{"components":[{"internalType":"address[]","name":"routers","type":"address[]"},{"internalType":"uint8[]","name":"dexHandlerIds","type":"uint8[]"},{"internalType":"address[]","name":"tokenIn","type":"address[]"},{"internalType":"uint256","name":"amountIn","type":"uint256"},{"internalType":"bytes[]","name":"data","type":"bytes[]"}],"internalType":"struct SwapMultiHop[]","name":"params","type":"tuple[]"}],"name":"swapMultiRoute","outputs":[{"internalType":"uint256","name":"amountOut","type":"uint256"}],"stateMutability":"nonpayable","type":"function"}],"evm":{"bytecode":{"linkReferences":{},"object":"60806040523480156200001157600080fd5b506040516200139b3803806200139b83398181016040528101906200003791906200015a565b600073ffffffffffffffffffffffffffffffffffffffff168173ffffffffffffffffffffffffffffffffffffffff1603620000a9576040517f08c379a0000000000000000000000000000000000000000000000000000000008152600401620000a090620001ed565b60405180910390fd5b806000806101000a81548173ffffffffffffffffffffffffffffffffffffffff021916908373ffffffffffffffffffffffffffffffffffffffff160217905550506200020f565b600080fd5b600073ffffffffffffffffffffffffffffffffffffffff82169050919050565b60006200012282620000f5565b9050919050565b620001348162000115565b81146200014057600080fd5b50565b600081519050620001548162000129565b92915050565b600060208284031215620001735762000172620000f0565b5b6000620001838482850162000143565b91505092915050565b600082825260208201905092915050565b7f496e76616c696420666163746f72792061646472657373000000000000000000600082015250565b6000620001d56017836200018c565b9150620001e2826200019d565b602082019050919050565b600060208201905081810360008301526200020881620001c6565b9050919050565b61117c806200021f6000396000f3fe608060405234801561001057600080fd5b50600436106100415760003560e01c806311eac87a14610046578063c45a015514610076578063d4a3f3c714610094575b600080fd5b610060600480360381019061005b9190610822565b6100c4565b60405161006d9190610888565b60405180910390f35b61007e610125565b60405161008b9190610922565b60405180910390f35b6100ae60048036038101906100a99190610961565b610149565b6040516100bb9190610888565b60405180910390f35b600080600090505b8383905081101561011e576101048484838181106100ed576100ec6109aa565b5b90506020028101906100ff91906109e8565b610149565b8261010f9190610a3f565b915080806001019150506100cc565b5092915050565b60008054906101000a900473ffffffffffffffffffffffffffffffffffffffff1681565b600080826060013503610191576040517f08c379a000000000000000000000000000000000000000000000000000000000815260040161018890610ad0565b60405180910390fd5b6000808380604001906101a49190610af0565b60008181106101b6576101b56109aa565b5b90506020020160208101906101cb9190610b91565b73ffffffffffffffffffffffffffffffffffffffff166323b872dd333087606001356040518463ffffffff1660e01b815260040161020b93929190610bcd565b6020604051808303816000875af115801561022a573d6000803e3d6000fd5b505050506040513d601f19601f8201168201806040525081019061024e9190610c3c565b5060005b8480600001906102629190610af0565b90508160ff1610156106275760008580604001906102809190610af0565b8360ff16818110610294576102936109aa565b5b90506020020160208101906102a99190610b91565b905060008054906101000a900473ffffffffffffffffffffffffffffffffffffffff1673ffffffffffffffffffffffffffffffffffffffff16634fa293528780602001906102f79190610c69565b8560ff1681811061030b5761030a6109aa565b5b90506020020160208101906103209190610d05565b6040518263ffffffff1660e01b815260040161033c9190610d41565b602060405180830381865afa158015610359573d6000803e3d6000fd5b505050506040513d601f19601f8201168201806040525081019061037d9190610d71565b93508073ffffffffffffffffffffffffffffffffffffffff1663095ea7b38780600001906103ab9190610af0565b8560ff168181106103bf576103be6109aa565b5b90506020020160208101906103d49190610b91565b88606001356040518363ffffffff1660e01b81526004016103f6929190610d9e565b6020604051808303816000875af1158015610415573d6000803e3d6000fd5b505050506040513d601f19601f820116820180604052508101906104399190610c3c565b50600086806000019061044c9190610af0565b8460ff168181106104605761045f6109aa565b5b90506020020160208101906104759190610b91565b8780608001906104859190610dc7565b8560ff16818110610499576104986109aa565b5b90506020028101906104ab9190610e2a565b6040516020016104bd93929190610eeb565b604051602081830303815290604052905060006105f68880600001906104e39190610af0565b8660ff168181106104f7576104f66109aa565b5b905060200201602081019061050c9190610b91565b89806080019061051c9190610dc7565b8760ff168181106105305761052f6109aa565b5b90506020028101906105429190610e2a565b60405160240161055493929190610eeb565b6040516020818303038152906040527f03f7c80f000000000000000000000000000000000000000000000000000000007bffffffffffffffffffffffffffffffffffffffffffffffffffffffff19166020820180517bffffffffffffffffffffffffffffffffffffffffffffffffffffffff83818316178352505050508773ffffffffffffffffffffffffffffffffffffffff1661062f90919063ffffffff16565b90508080602001905181019061060c9190610f49565b9650869450505050808061061f90610f76565b915050610252565b505050919050565b606061065483836040518060600160405280602781526020016111206027913961065c565b905092915050565b606061066784610729565b6106a6576040517f08c379a000000000000000000000000000000000000000000000000000000000815260040161069d90611011565b60405180910390fd5b6000808573ffffffffffffffffffffffffffffffffffffffff16856040516106ce91906110a2565b600060405180830381855af49150503d8060008114610709576040519150601f19603f3d011682016040523d82523d6000602084013e61070e565b606091505b509150915061071e82828661074c565b925050509392505050565b6000808273ffffffffffffffffffffffffffffffffffffffff163b119050919050565b6060831561075c578290506107ac565b60008351111561076f5782518084602001fd5b816040517f08c379a00000000000000000000000000000000000000000000000000000000081526004016107a391906110fd565b60405180910390fd5b9392505050565b600080fd5b600080fd5b600080fd5b600080fd5b600080fd5b60008083601f8401126107e2576107e16107bd565b5b8235905067ffffffffffffffff8111156107ff576107fe6107c2565b5b60208301915083602082028301111561081b5761081a6107c7565b5b9250929050565b60008060208385031215610839576108386107b3565b5b600083013567ffffffffffffffff811115610857576108566107b8565b5b610863858286016107cc565b92509250509250929050565b6000819050919050565b6108828161086f565b82525050565b600060208201905061089d6000830184610879565b92915050565b600073ffffffffffffffffffffffffffffffffffffffff82169050919050565b6000819050919050565b60006108e86108e36108de846108a3565b6108c3565b6108a3565b9050919050565b60006108fa826108cd565b9050919050565b600061090c826108ef565b9050919050565b61091c81610901565b82525050565b60006020820190506109376000830184610913565b92915050565b600080fd5b600060a082840312156109585761095761093d565b5b81905092915050565b600060208284031215610977576109766107b3565b5b600082013567ffffffffffffffff811115610995576109946107b8565b5b6109a184828501610942565b91505092915050565b7f4e487b7100000000000000000000000000000000000000000000000000000000600052603260045260246000fd5b600080fd5b600080fd5b600080fd5b60008235600160a003833603038112610a0457610a036109d9565b5b80830191505092915050565b7f4e487b7100000000000000000000000000000000000000000000000000000000600052601160045260246000fd5b6000610a4a8261086f565b9150610a558361086f565b9250828201905080821115610a6d57610a6c610a10565b5b92915050565b600082825260208201905092915050565b7f54686520616d6f756e7420666f722073776170206973207a65726f0000000000600082015250565b6000610aba601b83610a73565b9150610ac582610a84565b602082019050919050565b60006020820190508181036000830152610ae981610aad565b9050919050565b60008083356001602003843603038112610b0d57610b0c6109d9565b5b80840192508235915067ffffffffffffffff821115610b2f57610b2e6109de565b5b602083019250602082023603831315610b4b57610b4a6109e3565b5b509250929050565b6000610b5e826108a3565b9050919050565b610b6e81610b53565b8114610b7957600080fd5b50565b600081359050610b8b81610b65565b92915050565b600060208284031215610ba757610ba66107b3565b5b6000610bb584828501610b7c565b91505092915050565b610bc781610b53565b82525050565b6000606082019050610be26000830186610bbe565b610bef6020830185610bbe565b610bfc6040830184610879565b949350505050565b60008115159050919050565b610c1981610c04565b8114610c2457600080fd5b50565b600081519050610c3681610c10565b92915050565b600060208284031215610c5257610c516107b3565b5b6000610c6084828501610c27565b91505092915050565b60008083356001602003843603038112610c8657610c856109d9565b5b80840192508235915067ffffffffffffffff821115610ca857610ca76109de565b5b602083019250602082023603831315610cc457610cc36109e3565b5b509250929050565b600060ff82169050919050565b610ce281610ccc565b8114610ced57600080fd5b50565b600081359050610cff81610cd9565b92915050565b600060208284031215610d1b57610d1a6107b3565b5b6000610d2984828501610cf0565b91505092915050565b610d3b81610ccc565b82525050565b6000602082019050610d566000830184610d32565b92915050565b600081519050610d6b81610b65565b92915050565b600060208284031215610d8757610d866107b3565b5b6000610d9584828501610d5c565b91505092915050565b6000604082019050610db36000830185610bbe565b610dc06020830184610879565b9392505050565b60008083356001602003843603038112610de457610de36109d9565b5b80840192508235915067ffffffffffffffff821115610e0657610e056109de565b5b602083019250602082023603831315610e2257610e216109e3565b5b509250929050565b60008083356001602003843603038112610e4757610e466109d9565b5b80840192508235915067ffffffffffffffff821115610e6957610e686109de565b5b602083019250600182023603831315610e8557610e846109e3565b5b509250929050565b600082825260208201905092915050565b82818337600083830152505050565b6000601f19601f8301169050919050565b6000610eca8385610e8d565b9350610ed7838584610e9e565b610ee083610ead565b840190509392505050565b6000604082019050610f006000830186610bbe565b8181036020830152610f13818486610ebe565b9050949350505050565b610f268161086f565b8114610f3157600080fd5b50565b600081519050610f4381610f1d565b92915050565b600060208284031215610f5f57610f5e6107b3565b5b6000610f6d84828501610f34565b91505092915050565b6000610f8182610ccc565b915060ff8203610f9457610f93610a10565b5b600182019050919050565b7f416464726573733a2064656c65676174652063616c6c20746f206e6f6e2d636f60008201527f6e74726163740000000000000000000000000000000000000000000000000000602082015250565b6000610ffb602683610a73565b915061100682610f9f565b604082019050919050565b6000602082019050818103600083015261102a81610fee565b9050919050565b600081519050919050565b600081905092915050565b60005b8381101561106557808201518184015260208101905061104a565b60008484015250505050565b600061107c82611031565b611086818561103c565b9350611096818560208601611047565b80840191505092915050565b60006110ae8284611071565b915081905092915050565b600081519050919050565b60006110cf826110b9565b6110d98185610a73565b93506110e9818560208601611047565b6110f281610ead565b840191505092915050565b6000602082019050818103600083015261111781846110c4565b90509291505056fe416464726573733a206c6f772d6c6576656c2064656c65676174652063616c6c206661696c6564a2646970667358221220cf129ee9b86fb4ca73fe516685b65cd4d1889fa38810bca96ed4791fd308702164736f6c63430008180033","opcodes":"PUSH1 0x80 PUSH1 0x40 MSTORE CALLVALUE DUP1 ISZERO PUSH3 0x11 JUMPI PUSH1 0x0 DUP1 REVERT JUMPDEST POP PUSH1 0x40 MLOAD PUSH3 0x139B CODESIZE SUB DUP1 PUSH3 0x139B DUP4 CODECOPY DUP2 DUP2 ADD PUSH1 0x40 MSTORE DUP2 ADD SWAP1 PUSH3 0x37 SWAP2 SWAP1 PUSH3 0x15A JUMP JUMPDEST PUSH1 0x0 PUSH20 0xFFFFFFFFFFFFFFFFFFFFFFFFFFFFFFFFFFFFFFFF AND DUP2 PUSH20 0xFFFFFFFFFFFFFFFFFFFFFFFFFFFFFFFFFFFFFFFF AND SUB PUSH3 0xA9 JUMPI PUSH1 0x40 MLOAD PUSH32 0x8C379A000000000000000000000000000000000000000000000000000000000 DUP2 MSTORE PUSH1 0x4 ADD PUSH3 0xA0 SWAP1 PUSH3 0x1ED JUMP JUMPDEST PUSH1 0x40 MLOAD DUP1 SWAP2 SUB SWAP1 REVERT JUMPDEST DUP1 PUSH1 0x0 DUP1 PUSH2 0x100 EXP DUP2 SLOAD DUP2 PUSH20 0xFFFFFFFFFFFFFFFFFFFFFFFFFFFFFFFFFFFFFFFF MUL NOT AND SWAP1 DUP4 PUSH20 0xFFFFFFFFFFFFFFFFFFFFFFFFFFFFFFFFFFFFFFFF AND MUL OR SWAP1 SSTORE POP POP PUSH3 0x20F JUMP JUMPDEST PUSH1 0x0 DUP1 REVERT JUMPDEST PUSH1 0x0 PUSH20 0xFFFFFFFFFFFFFFFFFFFFFFFFFFFFFFFFFFFFFFFF DUP3 AND SWAP1 POP SWAP2 SWAP1 POP JUMP JUMPDEST PUSH1 0x0 PUSH3 0x122 DUP3 PUSH3 0xF5 JUMP JUMPDEST SWAP1 POP SWAP2 SWAP1 POP JUMP JUMPDEST PUSH3 0x134 DUP2 PUSH3 0x115 JUMP JUMPDEST DUP2 EQ PUSH3 0x140 JUMPI PUSH1 0x0 DUP1 REVERT JUMPDEST POP JUMP JUMPDEST PUSH1 0x0 DUP2 MLOAD SWAP1 POP PUSH3 0x154 DUP2 PUSH3 0x129 JUMP JUMPDEST SWAP3 SWAP2 POP POP JUMP JUMPDEST PUSH1 0x0 PUSH1 0x20 DUP3 DUP5 SUB SLT ISZERO PUSH3 0x173 JUMPI PUSH3 0x172 PUSH3 0xF0 JUMP JUMPDEST JUMPDEST PUSH1 0x0 PUSH3 0x183 DUP5 DUP3 DUP6 ADD PUSH3 0x143 JUMP JUMPDEST SWAP2 POP POP SWAP3 SWAP2 POP POP JUMP JUMPDEST PUSH1 0x0 DUP3 DUP3 MSTORE PUSH1 0x20 DUP3 ADD SWAP1 POP SWAP3 SWAP2 POP POP JUMP JUMPDEST PUSH32 0x496E76616C696420666163746F72792061646472657373000000000000000000 PUSH1 0x0 DUP3 ADD MSTORE POP JUMP JUMPDEST PUSH1 0x0 PUSH3 0x1D5 PUSH1 0x17 DUP4 PUSH3 0x18C JUMP JUMPDEST SWAP2 POP PUSH3 0x1E2 DUP3 PUSH3 0x19D JUMP JUMPDEST PUSH1 0x20 DUP3 ADD SWAP1 POP SWAP2 SWAP1 POP JUMP JUMPDEST PUSH1 0x0 PUSH1 0x20 DUP3 ADD SWAP1 POP DUP2 DUP2 SUB PUSH1 0x0 DUP4 ADD MSTORE PUSH3 0x208 DUP2 PUSH3 0x1C6 JUMP JUMPDEST SWAP1 POP SWAP2 SWAP1 POP JUMP JUMPDEST PUSH2 0x117C DUP1 PUSH3 0x21F PUSH1 0x0 CODECOPY PUSH1 0x0 RETURN INVALID PUSH1 0x80 PUSH1 0x40 MSTORE CALLVALUE DUP1 ISZERO PUSH2 0x10 JUMPI PUSH1 0x0 DUP1 REVERT JUMPDEST POP PUSH1 0x4 CALLDATASIZE LT PUSH2 0x41 JUMPI PUSH1 0x0 CALLDATALOAD PUSH1 0xE0 SHR DUP1 PUSH4 0x11EAC87A EQ PUSH2 0x46 JUMPI DUP1 PUSH4 0xC45A0155 EQ PUSH2 0x76 JUMPI DUP1 PUSH4 0xD4A3F3C7 EQ PUSH2 0x94 JUMPI JUMPDEST PUSH1 0x0 DUP1 REVERT JUMPDEST PUSH2 0x60 PUSH1 0x4 DUP1 CALLDATASIZE SUB DUP2 ADD SWAP1 PUSH2 0x5B SWAP2 SWAP1 PUSH2 0x822 JUMP JUMPDEST PUSH2 0xC4 JUMP JUMPDEST PUSH1 0x40 MLOAD PUSH2 0x6D SWAP2 SWAP1 PUSH2 0x888 JUMP JUMPDEST PUSH1 0x40 MLOAD DUP1 SWAP2 SUB SWAP1 RETURN JUMPDEST PUSH2 0x7E PUSH2 0x125 JUMP JUMPDEST PUSH1 0x40 MLOAD PUSH2 0x8B SWAP2 SWAP1 PUSH2 0x922 JUMP JUMPDEST PUSH1 0x40 MLOAD DUP1 SWAP2 SUB SWAP1 RETURN JUMPDEST PUSH2 0xAE PUSH1 0x4 DUP1 CALLDATASIZE SUB DUP2 ADD SWAP1 PUSH2 0xA9 SWAP2 SWAP1 PUSH2 0x961 JUMP JUMPDEST PUSH2 0x149 JUMP JUMPDEST PUSH1 0x40 MLOAD PUSH2 0xBB SWAP2 SWAP1 PUSH2 0x888 JUMP JUMPDEST PUSH1 0x40 MLOAD DUP1 SWAP2 SUB SWAP1 RETURN JUMPDEST PUSH1 0x0 DUP1 PUSH1 0x0 SWAP1 POP JUMPDEST DUP4 DUP4 SWAP1 POP DUP2 LT ISZERO PUSH2 0x11E JUMPI PUSH2 0x104 DUP5 DUP5 DUP4 DUP2 DUP2 LT PUSH2 0xED JUMPI PUSH2 0xEC PUSH2 0x9AA JUMP JUMPDEST JUMPDEST SWAP1 POP PUSH1 0x20 MUL DUP2 ADD SWAP1 PUSH2 0xFF SWAP2 SWAP1 PUSH2 0x9E8 JUMP JUMPDEST PUSH2 0x149 JUMP JUMPDEST DUP3 PUSH2 0x10F SWAP2 SWAP1 PUSH2 0xA3F JUMP JUMPDEST SWAP2 POP DUP1 DUP1 PUSH1 0x1 ADD SWAP2 POP POP PUSH2 0xCC JUMP JUMPDEST POP SWAP3 SWAP2 POP POP JUMP JUMPDEST PUSH1 0x0 DUP1 SLOAD SWAP1 PUSH2 0x100 EXP SWAP1 DIV PUSH20 0xFFFFFFFFFFFFFFFFFFFFFFFFFFFFFFFFFFFFFFFF AND DUP2 JUMP JUMPDEST PUSH1 0x0 DUP1 DUP3 PUSH1 0x60 ADD CALLDATALOAD SUB PUSH2 0x191 JUMPI PUSH1 0x40 MLOAD PUSH32 0x8C379A000000000000000000000000000000000000000000000000000000000 DUP2 MSTORE PUSH1 0x4 ADD PUSH2 0x188 SWAP1 PUSH2 0xAD0 JUMP JUMPDEST PUSH1 0x40 MLOAD DUP1 SWAP2 SUB SWAP1 REVERT JUMPDEST PUSH1 0x0 DUP1 DUP4 DUP1 PUSH1 0x40 ADD SWAP1 PUSH2 0x1A4 SWAP2 SWAP1 PUSH2 0xAF0 JUMP JUMPDEST PUSH1 0x0 DUP2 DUP2 LT PUSH2 0x1B6 JUMPI PUSH2 0x1B5 PUSH2 0x9AA JUMP JUMPDEST JUMPDEST SWAP1 POP PUSH1 0x20 MUL ADD PUSH1 0x20 DUP2 ADD SWAP1 PUSH2 0x1CB SWAP2 SWAP1 PUSH2 0xB91 JUMP JUMPDEST PUSH20 0xFFFFFFFFFFFFFFFFFFFFFFFFFFFFFFFFFFFFFFFF AND PUSH4 0x23B872DD CALLER ADDRESS DUP8 PUSH1 0x60 ADD CALLDATALOAD PUSH1 0x40 MLOAD DUP5 PUSH4 0xFFFFFFFF AND PUSH1 0xE0 SHL DUP2 MSTORE PUSH1 0x4 ADD PUSH2 0x20B SWAP4 SWAP3 SWAP2 SWAP1 PUSH2 0xBCD JUMP JUMPDEST PUSH1 0x20 PUSH1 0x40 MLOAD DUP1 DUP4 SUB DUP2 PUSH1 0x0 DUP8 GAS CALL ISZERO DUP1 ISZERO PUSH2 0x22A JUMPI RETURNDATASIZE PUSH1 0x0 DUP1 RETURNDATACOPY RETURNDATASIZE PUSH1 0x0 REVERT JUMPDEST POP POP POP POP PUSH1 0x40 MLOAD RETURNDATASIZE PUSH1 0x1F NOT PUSH1 0x1F DUP3 ADD AND DUP3 ADD DUP1 PUSH1 0x40 MSTORE POP DUP2 ADD SWAP1 PUSH2 0x24E SWAP2 SWAP1 PUSH2 0xC3C JUMP JUMPDEST POP PUSH1 0x0 JUMPDEST DUP5 DUP1 PUSH1 0x0 ADD SWAP1 PUSH2 0x262 SWAP2 SWAP1 PUSH2 0xAF0 JUMP JUMPDEST SWAP1 POP DUP2 PUSH1 0xFF AND LT ISZERO PUSH2 0x627 JUMPI PUSH1 0x0 DUP6 DUP1 PUSH1 0x40 ADD SWAP1 PUSH2 0x280 SWAP2 SWAP1 PUSH2 0xAF0 JUMP JUMPDEST DUP4 PUSH1 0xFF AND DUP2 DUP2 LT PUSH2 0x294 JUMPI PUSH2 0x293 PUSH2 0x9AA JUMP JUMPDEST JUMPDEST SWAP1 POP PUSH1 0x20 MUL ADD PUSH1 0x20 DUP2 ADD SWAP1 PUSH2 0x2A9 SWAP2 SWAP1 PUSH2 0xB91 JUMP JUMPDEST SWAP1 POP PUSH1 0x0 DUP1 SLOAD SWAP1 PUSH2 0x100 EXP SWAP1 DIV PUSH20 0xFFFFFFFFFFFFFFFFFFFFFFFFFFFFFFFFFFFFFFFF AND PUSH20 0xFFFFFFFFFFFFFFFFFFFFFFFFFFFFFFFFFFFFFFFF AND PUSH4 0x4FA29352 DUP8 DUP1 PUSH1 0x20 ADD SWAP1 PUSH2 0x2F7 SWAP2 SWAP1 PUSH2 0xC69 JUMP JUMPDEST DUP6 PUSH1 0xFF AND DUP2 DUP2 LT PUSH2 0x30B JUMPI PUSH2 0x30A PUSH2 0x9AA JUMP JUMPDEST JUMPDEST SWAP1 POP PUSH1 0x20 MUL ADD PUSH1 0x20 DUP2 ADD SWAP1 PUSH2 0x320 SWAP2 SWAP1 PUSH2 0xD05 JUMP JUMPDEST PUSH1 0x40 MLOAD DUP3 PUSH4 0xFFFFFFFF AND PUSH1 0xE0 SHL DUP2 MSTORE PUSH1 0x4 ADD PUSH2 0x33C SWAP2 SWAP1 PUSH2 0xD41 JUMP JUMPDEST PUSH1 0x20 PUSH1 0x40 MLOAD DUP1 DUP4 SUB DUP2 DUP7 GAS STATICCALL ISZERO DUP1 ISZERO PUSH2 0x359 JUMPI RETURNDATASIZE PUSH1 0x0 DUP1 RETURNDATACOPY RETURNDATASIZE PUSH1 0x0 REVERT JUMPDEST POP POP POP POP PUSH1 0x40 MLOAD RETURNDATASIZE PUSH1 0x1F NOT PUSH1 0x1F DUP3 ADD AND DUP3 ADD DUP1 PUSH1 0x40 MSTORE POP DUP2 ADD SWAP1 PUSH2 0x37D SWAP2 SWAP1 PUSH2 0xD71 JUMP JUMPDEST SWAP4 POP DUP1 PUSH20 0xFFFFFFFFFFFFFFFFFFFFFFFFFFFFFFFFFFFFFFFF AND PUSH4 0x95EA7B3 DUP8 DUP1 PUSH1 0x0 ADD SWAP1 PUSH2 0x3AB SWAP2 SWAP1 PUSH2 0xAF0 JUMP JUMPDEST DUP6 PUSH1 0xFF AND DUP2 DUP2 LT PUSH2 0x3BF JUMPI PUSH2 0x3BE PUSH2 0x9AA JUMP JUMPDEST JUMPDEST SWAP1 POP PUSH1 0x20 MUL ADD PUSH1 0x20 DUP2 ADD SWAP1 PUSH2 0x3D4 SWAP2 SWAP1 PUSH2 0xB91 JUMP JUMPDEST DUP9 PUSH1 0x60 ADD CALLDATALOAD PUSH1 0x40 MLOAD DUP4 PUSH4 0xFFFFFFFF AND PUSH1 0xE0 SHL DUP2 MSTORE PUSH1 0x4 ADD PUSH2 0x3F6 SWAP3 SWAP2 SWAP1 PUSH2 0xD9E JUMP JUMPDEST PUSH1 0x20 PUSH1 0x40 MLOAD DUP1 DUP4 SUB DUP2 PUSH1 0x0 DUP8 GAS CALL ISZERO DUP1 ISZERO PUSH2 0x415 JUMPI RETURNDATASIZE PUSH1 0x0 DUP1 RETURNDATACOPY RETURNDATASIZE PUSH1 0x0 REVERT JUMPDEST POP POP POP POP PUSH1 0x40 MLOAD RETURNDATASIZE PUSH1 0x1F NOT PUSH1 0x1F DUP3 ADD AND DUP3 ADD DUP1 PUSH1 0x40 MSTORE POP DUP2 ADD SWAP1 PUSH2 0x439 SWAP2 SWAP1 PUSH2 0xC3C JUMP JUMPDEST POP PUSH1 0x0 DUP7 DUP1 PUSH1 0x0 ADD SWAP1 PUSH2 0x44C SWAP2 SWAP1 PUSH2 0xAF0 JUMP JUMPDEST DUP5 PUSH1 0xFF AND DUP2 DUP2 LT PUSH2 0x460 JUMPI PUSH2 0x45F PUSH2 0x9AA JUMP JUMPDEST JUMPDEST SWAP1 POP PUSH1 0x20 MUL ADD PUSH1 0x20 DUP2 ADD SWAP1 PUSH2 0x475 SWAP2 SWAP1 PUSH2 0xB91 JUMP JUMPDEST DUP8 DUP1 PUSH1 0x80 ADD SWAP1 PUSH2 0x485 SWAP2 SWAP1 PUSH2 0xDC7 JUMP JUMPDEST DUP6 PUSH1 0xFF AND DUP2 DUP2 LT PUSH2 0x499 JUMPI PUSH2 0x498 PUSH2 0x9AA JUMP JUMPDEST JUMPDEST SWAP1 POP PUSH1 0x20 MUL DUP2 ADD SWAP1 PUSH2 0x4AB SWAP2 SWAP1 PUSH2 0xE2A JUMP JUMPDEST PUSH1 0x40 MLOAD PUSH1 0x20 ADD PUSH2 0x4BD SWAP4 SWAP3 SWAP2 SWAP1 PUSH2 0xEEB JUMP JUMPDEST PUSH1 0x40 MLOAD PUSH1 0x20 DUP2 DUP4 SUB SUB DUP2 MSTORE SWAP1 PUSH1 0x40 MSTORE SWAP1 POP PUSH1 0x0 PUSH2 0x5F6 DUP9 DUP1 PUSH1 0x0 ADD SWAP1 PUSH2 0x4E3 SWAP2 SWAP1 PUSH2 0xAF0 JUMP JUMPDEST DUP7 PUSH1 0xFF AND DUP2 DUP2 LT PUSH2 0x4F7 JUMPI PUSH2 0x4F6 PUSH2 0x9AA JUMP JUMPDEST JUMPDEST SWAP1 POP PUSH1 0x20 MUL ADD PUSH1 0x20 DUP2 ADD SWAP1 PUSH2 0x50C SWAP2 SWAP1 PUSH2 0xB91 JUMP JUMPDEST DUP10 DUP1 PUSH1 0x80 ADD SWAP1 PUSH2 0x51C SWAP2 SWAP1 PUSH2 0xDC7 JUMP JUMPDEST DUP8 PUSH1 0xFF AND DUP2 DUP2 LT PUSH2 0x530 JUMPI PUSH2 0x52F PUSH2 0x9AA JUMP JUMPDEST JUMPDEST SWAP1 POP PUSH1 0x20 MUL DUP2 ADD SWAP1 PUSH2 0x542 SWAP2 SWAP1 PUSH2 0xE2A JUMP JUMPDEST PUSH1 0x40 MLOAD PUSH1 0x24 ADD PUSH2 0x554 SWAP4 SWAP3 SWAP2 SWAP1 PUSH2 0xEEB JUMP JUMPDEST PUSH1 0x40 MLOAD PUSH1 0x20 DUP2 DUP4 SUB SUB DUP2 MSTORE SWAP1 PUSH1 0x40 MSTORE PUSH32 0x3F7C80F00000000000000000000000000000000000000000000000000000000 PUSH28 0xFFFFFFFFFFFFFFFFFFFFFFFFFFFFFFFFFFFFFFFFFFFFFFFFFFFFFFFF NOT AND PUSH1 0x20 DUP3 ADD DUP1 MLOAD PUSH28 0xFFFFFFFFFFFFFFFFFFFFFFFFFFFFFFFFFFFFFFFFFFFFFFFFFFFFFFFF DUP4 DUP2 DUP4 AND OR DUP4 MSTORE POP POP POP POP DUP8 PUSH20 0xFFFFFFFFFFFFFFFFFFFFFFFFFFFFFFFFFFFFFFFF AND PUSH2 0x62F SWAP1 SWAP2 SWAP1 PUSH4 0xFFFFFFFF AND JUMP JUMPDEST SWAP1 POP DUP1 DUP1 PUSH1 0x20 ADD SWAP1 MLOAD DUP2 ADD SWAP1 PUSH2 0x60C SWAP2 SWAP1 PUSH2 0xF49 JUMP JUMPDEST SWAP7 POP DUP7 SWAP5 POP POP POP POP DUP1 DUP1 PUSH2 0x61F SWAP1 PUSH2 0xF76 JUMP JUMPDEST SWAP2 POP POP PUSH2 0x252 JUMP JUMPDEST POP POP POP SWAP2 SWAP1 POP JUMP JUMPDEST PUSH1 0x60 PUSH2 0x654 DUP4 DUP4 PUSH1 0x40 MLOAD DUP1 PUSH1 0x60 ADD PUSH1 0x40 MSTORE DUP1 PUSH1 0x27 DUP2 MSTORE PUSH1 0x20 ADD PUSH2 0x1120 PUSH1 0x27 SWAP2 CODECOPY PUSH2 0x65C JUMP JUMPDEST SWAP1 POP SWAP3 SWAP2 POP POP JUMP JUMPDEST PUSH1 0x60 PUSH2 0x667 DUP5 PUSH2 0x729 JUMP JUMPDEST PUSH2 0x6A6 JUMPI PUSH1 0x40 MLOAD PUSH32 0x8C379A000000000000000000000000000000000000000000000000000000000 DUP2 MSTORE PUSH1 0x4 ADD PUSH2 0x69D SWAP1 PUSH2 0x1011 JUMP JUMPDEST PUSH1 0x40 MLOAD DUP1 SWAP2 SUB SWAP1 REVERT JUMPDEST PUSH1 0x0 DUP1 DUP6 PUSH20 0xFFFFFFFFFFFFFFFFFFFFFFFFFFFFFFFFFFFFFFFF AND DUP6 PUSH1 0x40 MLOAD PUSH2 0x6CE SWAP2 SWAP1 PUSH2 0x10A2 JUMP JUMPDEST PUSH1 0x0 PUSH1 0x40 MLOAD DUP1 DUP4 SUB DUP2 DUP6 GAS DELEGATECALL SWAP2 POP POP RETURNDATASIZE DUP1 PUSH1 0x0 DUP2 EQ PUSH2 0x709 JUMPI PUSH1 0x40 MLOAD SWAP2 POP PUSH1 0x1F NOT PUSH1 0x3F RETURNDATASIZE ADD AND DUP3 ADD PUSH1 0x40 MSTORE RETURNDATASIZE DUP3 MSTORE RETURNDATASIZE PUSH1 0x0 PUSH1 0x20 DUP5 ADD RETURNDATACOPY PUSH2 0x70E JUMP JUMPDEST PUSH1 0x60 SWAP2 POP JUMPDEST POP SWAP2 POP SWAP2 POP PUSH2 0x71E DUP3 DUP3 DUP7 PUSH2 0x74C JUMP JUMPDEST SWAP3 POP POP POP SWAP4 SWAP3 POP POP POP JUMP JUMPDEST PUSH1 0x0 DUP1 DUP3 PUSH20 0xFFFFFFFFFFFFFFFFFFFFFFFFFFFFFFFFFFFFFFFF AND EXTCODESIZE GT SWAP1 POP SWAP2 SWAP1 POP JUMP JUMPDEST PUSH1 0x60 DUP4 ISZERO PUSH2 0x75C JUMPI DUP3 SWAP1 POP PUSH2 0x7AC JUMP JUMPDEST PUSH1 0x0 DUP4 MLOAD GT ISZERO PUSH2 0x76F JUMPI DUP3 MLOAD DUP1 DUP5 PUSH1 0x20 ADD REVERT JUMPDEST DUP2 PUSH1 0x40 MLOAD PUSH32 0x8C379A000000000000000000000000000000000000000000000000000000000 DUP2 MSTORE PUSH1 0x4 ADD PUSH2 0x7A3 SWAP2 SWAP1 PUSH2 0x10FD JUMP JUMPDEST PUSH1 0x40 MLOAD DUP1 SWAP2 SUB SWAP1 REVERT JUMPDEST SWAP4 SWAP3 POP POP POP JUMP JUMPDEST PUSH1 0x0 DUP1 REVERT JUMPDEST PUSH1 0x0 DUP1 REVERT JUMPDEST PUSH1 0x0 DUP1 REVERT JUMPDEST PUSH1 0x0 DUP1 REVERT JUMPDEST PUSH1 0x0 DUP1 REVERT JUMPDEST PUSH1 0x0 DUP1 DUP4 PUSH1 0x1F DUP5 ADD SLT PUSH2 0x7E2 JUMPI PUSH2 0x7E1 PUSH2 0x7BD JUMP JUMPDEST JUMPDEST DUP3 CALLDATALOAD SWAP1 POP PUSH8 0xFFFFFFFFFFFFFFFF DUP2 GT ISZERO PUSH2 0x7FF JUMPI PUSH2 0x7FE PUSH2 0x7C2 JUMP JUMPDEST JUMPDEST PUSH1 0x20 DUP4 ADD SWAP2 POP DUP4 PUSH1 0x20 DUP3 MUL DUP4 ADD GT ISZERO PUSH2 0x81B JUMPI PUSH2 0x81A PUSH2 0x7C7 JUMP JUMPDEST JUMPDEST SWAP3 POP SWAP3 SWAP1 POP JUMP JUMPDEST PUSH1 0x0 DUP1 PUSH1 0x20 DUP4 DUP6 SUB SLT ISZERO PUSH2 0x839 JUMPI PUSH2 0x838 PUSH2 0x7B3 JUMP JUMPDEST JUMPDEST PUSH1 0x0 DUP4 ADD CALLDATALOAD PUSH8 0xFFFFFFFFFFFFFFFF DUP2 GT ISZERO PUSH2 0x857 JUMPI PUSH2 0x856 PUSH2 0x7B8 JUMP JUMPDEST JUMPDEST PUSH2 0x863 DUP6 DUP3 DUP7 ADD PUSH2 0x7CC JUMP JUMPDEST SWAP3 POP SWAP3 POP POP SWAP3 POP SWAP3 SWAP1 POP JUMP JUMPDEST PUSH1 0x0 DUP2 SWAP1 POP SWAP2 SWAP1 POP JUMP JUMPDEST PUSH2 0x882 DUP2 PUSH2 0x86F JUMP JUMPDEST DUP3 MSTORE POP POP JUMP JUMPDEST PUSH1 0x0 PUSH1 0x20 DUP3 ADD SWAP1 POP PUSH2 0x89D PUSH1 0x0 DUP4 ADD DUP5 PUSH2 0x879 JUMP JUMPDEST SWAP3 SWAP2 POP POP JUMP JUMPDEST PUSH1 0x0 PUSH20 0xFFFFFFFFFFFFFFFFFFFFFFFFFFFFFFFFFFFFFFFF DUP3 AND SWAP1 POP SWAP2 SWAP1 POP JUMP JUMPDEST PUSH1 0x0 DUP2 SWAP1 POP SWAP2 SWAP1 POP JUMP JUMPDEST PUSH1 0x0 PUSH2 0x8E8 PUSH2 0x8E3 PUSH2 0x8DE DUP5 PUSH2 0x8A3 JUMP JUMPDEST PUSH2 0x8C3 JUMP JUMPDEST PUSH2 0x8A3 JUMP JUMPDEST SWAP1 POP SWAP2 SWAP1 POP JUMP JUMPDEST PUSH1 0x0 PUSH2 0x8FA DUP3 PUSH2 0x8CD JUMP JUMPDEST SWAP1 POP SWAP2 SWAP1 POP JUMP JUMPDEST PUSH1 0x0 PUSH2 0x90C DUP3 PUSH2 0x8EF JUMP JUMPDEST SWAP1 POP SWAP2 SWAP1 POP JUMP JUMPDEST PUSH2 0x91C DUP2 PUSH2 0x901 JUMP JUMPDEST DUP3 MSTORE POP POP JUMP JUMPDEST PUSH1 0x0 PUSH1 0x20 DUP3 ADD SWAP1 POP PUSH2 0x937 PUSH1 0x0 DUP4 ADD DUP5 PUSH2 0x913 JUMP JUMPDEST SWAP3 SWAP2 POP POP JUMP JUMPDEST PUSH1 0x0 DUP1 REVERT JUMPDEST PUSH1 0x0 PUSH1 0xA0 DUP3 DUP5 SUB SLT ISZERO PUSH2 0x958 JUMPI PUSH2 0x957 PUSH2 0x93D JUMP JUMPDEST JUMPDEST DUP2 SWAP1 POP SWAP3 SWAP2 POP POP JUMP JUMPDEST PUSH1 0x0 PUSH1 0x20 DUP3 DUP5 SUB SLT ISZERO PUSH2 0x977 JUMPI PUSH2 0x976 PUSH2 0x7B3 JUMP JUMPDEST JUMPDEST PUSH1 0x0 DUP3 ADD CALLDATALOAD PUSH8 0xFFFFFFFFFFFFFFFF DUP2 GT ISZERO PUSH2 0x995 JUMPI PUSH2 0x994 PUSH2 0x7B8 JUMP JUMPDEST JUMPDEST PUSH2 0x9A1 DUP5 DUP3 DUP6 ADD PUSH2 0x942 JUMP JUMPDEST SWAP2 POP POP SWAP3 SWAP2 POP POP JUMP JUMPDEST PUSH32 0x4E487B7100000000000000000000000000000000000000000000000000000000 PUSH1 0x0 MSTORE PUSH1 0x32 PUSH1 0x4 MSTORE PUSH1 0x24 PUSH1 0x0 REVERT JUMPDEST PUSH1 0x0 DUP1 REVERT JUMPDEST PUSH1 0x0 DUP1 REVERT JUMPDEST PUSH1 0x0 DUP1 REVERT JUMPDEST PUSH1 0x0 DUP3 CALLDATALOAD PUSH1 0x1 PUSH1 0xA0 SUB DUP4 CALLDATASIZE SUB SUB DUP2 SLT PUSH2 0xA04 JUMPI PUSH2 0xA03 PUSH2 0x9D9 JUMP JUMPDEST JUMPDEST DUP1 DUP4 ADD SWAP2 POP POP SWAP3 SWAP2 POP POP JUMP JUMPDEST PUSH32 0x4E487B7100000000000000000000000000000000000000000000000000000000 PUSH1 0x0 MSTORE PUSH1 0x11 PUSH1 0x4 MSTORE PUSH1 0x24 PUSH1 0x0 REVERT JUMPDEST PUSH1 0x0 PUSH2 0xA4A DUP3 PUSH2 0x86F JUMP JUMPDEST SWAP2 POP PUSH2 0xA55 DUP4 PUSH2 0x86F JUMP JUMPDEST SWAP3 POP DUP3 DUP3 ADD SWAP1 POP DUP1 DUP3 GT ISZERO PUSH2 0xA6D JUMPI PUSH2 0xA6C PUSH2 0xA10 JUMP JUMPDEST JUMPDEST SWAP3 SWAP2 POP POP JUMP JUMPDEST PUSH1 0x0 DUP3 DUP3 MSTORE PUSH1 0x20 DUP3 ADD SWAP1 POP SWAP3 SWAP2 POP POP JUMP JUMPDEST PUSH32 0x54686520616D6F756E7420666F722073776170206973207A65726F0000000000 PUSH1 0x0 DUP3 ADD MSTORE POP JUMP JUMPDEST PUSH1 0x0 PUSH2 0xABA PUSH1 0x1B DUP4 PUSH2 0xA73 JUMP JUMPDEST SWAP2 POP PUSH2 0xAC5 DUP3 PUSH2 0xA84 JUMP JUMPDEST PUSH1 0x20 DUP3 ADD SWAP1 POP SWAP2 SWAP1 POP JUMP JUMPDEST PUSH1 0x0 PUSH1 0x20 DUP3 ADD SWAP1 POP DUP2 DUP2 SUB PUSH1 0x0 DUP4 ADD MSTORE PUSH2 0xAE9 DUP2 PUSH2 0xAAD JUMP JUMPDEST SWAP1 POP SWAP2 SWAP1 POP JUMP JUMPDEST PUSH1 0x0 DUP1 DUP4 CALLDATALOAD PUSH1 0x1 PUSH1 0x20 SUB DUP5 CALLDATASIZE SUB SUB DUP2 SLT PUSH2 0xB0D JUMPI PUSH2 0xB0C PUSH2 0x9D9 JUMP JUMPDEST JUMPDEST DUP1 DUP5 ADD SWAP3 POP DUP3 CALLDATALOAD SWAP2 POP PUSH8 0xFFFFFFFFFFFFFFFF DUP3 GT ISZERO PUSH2 0xB2F JUMPI PUSH2 0xB2E PUSH2 0x9DE JUMP JUMPDEST JUMPDEST PUSH1 0x20 DUP4 ADD SWAP3 POP PUSH1 0x20 DUP3 MUL CALLDATASIZE SUB DUP4 SGT ISZERO PUSH2 0xB4B JUMPI PUSH2 0xB4A PUSH2 0x9E3 JUMP JUMPDEST JUMPDEST POP SWAP3 POP SWAP3 SWAP1 POP JUMP JUMPDEST PUSH1 0x0 PUSH2 0xB5E DUP3 PUSH2 0x8A3 JUMP JUMPDEST SWAP1 POP SWAP2 SWAP1 POP JUMP JUMPDEST PUSH2 0xB6E DUP2 PUSH2 0xB53 JUMP JUMPDEST DUP2 EQ PUSH2 0xB79 JUMPI PUSH1 0x0 DUP1 REVERT JUMPDEST POP JUMP JUMPDEST PUSH1 0x0 DUP2 CALLDATALOAD SWAP1 POP PUSH2 0xB8B DUP2 PUSH2 0xB65 JUMP JUMPDEST SWAP3 SWAP2 POP POP JUMP JUMPDEST PUSH1 0x0 PUSH1 0x20 DUP3 DUP5 SUB SLT ISZERO PUSH2 0xBA7 JUMPI PUSH2 0xBA6 PUSH2 0x7B3 JUMP JUMPDEST JUMPDEST PUSH1 0x0 PUSH2 0xBB5 DUP5 DUP3 DUP6 ADD PUSH2 0xB7C JUMP JUMPDEST SWAP2 POP POP SWAP3 SWAP2 POP POP JUMP JUMPDEST PUSH2 0xBC7 DUP2 PUSH2 0xB53 JUMP JUMPDEST DUP3 MSTORE POP POP JUMP JUMPDEST PUSH1 0x0 PUSH1 0x60 DUP3 ADD SWAP1 POP PUSH2 0xBE2 PUSH1 0x0 DUP4 ADD DUP7 PUSH2 0xBBE JUMP JUMPDEST PUSH2 0xBEF PUSH1 0x20 DUP4 ADD DUP6 PUSH2 0xBBE JUMP JUMPDEST PUSH2 0xBFC PUSH1 0x40 DUP4 ADD DUP5 PUSH2 0x879 JUMP JUMPDEST SWAP5 SWAP4 POP POP POP POP JUMP JUMPDEST PUSH1 0x0 DUP2 ISZERO ISZERO SWAP1 POP SWAP2 SWAP1 POP JUMP JUMPDEST PUSH2 0xC19 DUP2 PUSH2 0xC04 JUMP JUMPDEST DUP2 EQ PUSH2 0xC24 JUMPI PUSH1 0x0 DUP1 REVERT JUMPDEST POP JUMP JUMPDEST PUSH1 0x0 DUP2 MLOAD SWAP1 POP PUSH2 0xC36 DUP2 PUSH2 0xC10 JUMP JUMPDEST SWAP3 SWAP2 POP POP JUMP JUMPDEST PUSH1 0x0 PUSH1 0x20 DUP3 DUP5 SUB SLT ISZERO PUSH2 0xC52 JUMPI PUSH2 0xC51 PUSH2 0x7B3 JUMP JUMPDEST JUMPDEST PUSH1 0x0 PUSH2 0xC60 DUP5 DUP3 DUP6 ADD PUSH2 0xC27 JUMP JUMPDEST SWAP2 POP POP SWAP3 SWAP2 POP POP JUMP JUMPDEST PUSH1 0x0 DUP1 DUP4 CALLDATALOAD PUSH1 0x1 PUSH1 0x20 SUB DUP5 CALLDATASIZE SUB SUB DUP2 SLT PUSH2 0xC86 JUMPI PUSH2 0xC85 PUSH2 0x9D9 JUMP JUMPDEST JUMPDEST DUP1 DUP5 ADD SWAP3 POP DUP3 CALLDATALOAD SWAP2 POP PUSH8 0xFFFFFFFFFFFFFFFF DUP3 GT ISZERO PUSH2 0xCA8 JUMPI PUSH2 0xCA7 PUSH2 0x9DE JUMP JUMPDEST JUMPDEST PUSH1 0x20 DUP4 ADD SWAP3 POP PUSH1 0x20 DUP3 MUL CALLDATASIZE SUB DUP4 SGT ISZERO PUSH2 0xCC4 JUMPI PUSH2 0xCC3 PUSH2 0x9E3 JUMP JUMPDEST JUMPDEST POP SWAP3 POP SWAP3 SWAP1 POP JUMP JUMPDEST PUSH1 0x0 PUSH1 0xFF DUP3 AND SWAP1 POP SWAP2 SWAP1 POP JUMP JUMPDEST PUSH2 0xCE2 DUP2 PUSH2 0xCCC JUMP JUMPDEST DUP2 EQ PUSH2 0xCED JUMPI PUSH1 0x0 DUP1 REVERT JUMPDEST POP JUMP JUMPDEST PUSH1 0x0 DUP2 CALLDATALOAD SWAP1 POP PUSH2 0xCFF DUP2 PUSH2 0xCD9 JUMP JUMPDEST SWAP3 SWAP2 POP POP JUMP JUMPDEST PUSH1 0x0 PUSH1 0x20 DUP3 DUP5 SUB SLT ISZERO PUSH2 0xD1B JUMPI PUSH2 0xD1A PUSH2 0x7B3 JUMP JUMPDEST JUMPDEST PUSH1 0x0 PUSH2 0xD29 DUP5 DUP3 DUP6 ADD PUSH2 0xCF0 JUMP JUMPDEST SWAP2 POP POP SWAP3 SWAP2 POP POP JUMP JUMPDEST PUSH2 0xD3B DUP2 PUSH2 0xCCC JUMP JUMPDEST DUP3 MSTORE POP POP JUMP JUMPDEST PUSH1 0x0 PUSH1 0x20 DUP3 ADD SWAP1 POP PUSH2 0xD56 PUSH1 0x0 DUP4 ADD DUP5 PUSH2 0xD32 JUMP JUMPDEST SWAP3 SWAP2 POP POP JUMP JUMPDEST PUSH1 0x0 DUP2 MLOAD SWAP1 POP PUSH2 0xD6B DUP2 PUSH2 0xB65 JUMP JUMPDEST SWAP3 SWAP2 POP POP JUMP JUMPDEST PUSH1 0x0 PUSH1 0x20 DUP3 DUP5 SUB SLT ISZERO PUSH2 0xD87 JUMPI PUSH2 0xD86 PUSH2 0x7B3 JUMP JUMPDEST JUMPDEST PUSH1 0x0 PUSH2 0xD95 DUP5 DUP3 DUP6 ADD PUSH2 0xD5C JUMP JUMPDEST SWAP2 POP POP SWAP3 SWAP2 POP POP JUMP JUMPDEST PUSH1 0x0 PUSH1 0x40 DUP3 ADD SWAP1 POP PUSH2 0xDB3 PUSH1 0x0 DUP4 ADD DUP6 PUSH2 0xBBE JUMP JUMPDEST PUSH2 0xDC0 PUSH1 0x20 DUP4 ADD DUP5 PUSH2 0x879 JUMP JUMPDEST SWAP4 SWAP3 POP POP POP JUMP JUMPDEST PUSH1 0x0 DUP1 DUP4 CALLDATALOAD PUSH1 0x1 PUSH1 0x20 SUB DUP5 CALLDATASIZE SUB SUB DUP2 SLT PUSH2 0xDE4 JUMPI PUSH2 0xDE3 PUSH2 0x9D9 JUMP JUMPDEST JUMPDEST DUP1 DUP5 ADD SWAP3 POP DUP3 CALLDATALOAD SWAP2 POP PUSH8 0xFFFFFFFFFFFFFFFF DUP3 GT ISZERO PUSH2 0xE06 JUMPI PUSH2 0xE05 PUSH2 0x9DE JUMP JUMPDEST JUMPDEST PUSH1 0x20 DUP4 ADD SWAP3 POP PUSH1 0x20 DUP3 MUL CALLDATASIZE SUB DUP4 SGT ISZERO PUSH2 0xE22 JUMPI PUSH2 0xE21 PUSH2 0x9E3 JUMP JUMPDEST JUMPDEST POP SWAP3 POP SWAP3 SWAP1 POP JUMP JUMPDEST PUSH1 0x0 DUP1 DUP4 CALLDATALOAD PUSH1 0x1 PUSH1 0x20 SUB DUP5 CALLDATASIZE SUB SUB DUP2 SLT PUSH2 0xE47 JUMPI PUSH2 0xE46 PUSH2 0x9D9 JUMP JUMPDEST JUMPDEST DUP1 DUP5 ADD SWAP3 POP DUP3 CALLDATALOAD SWAP2 POP PUSH8 0xFFFFFFFFFFFFFFFF DUP3 GT ISZERO PUSH2 0xE69 JUMPI PUSH2 0xE68 PUSH2 0x9DE JUMP JUMPDEST JUMPDEST PUSH1 0x20 DUP4 ADD SWAP3 POP PUSH1 0x1 DUP3 MUL CALLDATASIZE SUB DUP4 SGT ISZERO PUSH2 0xE85 JUMPI PUSH2 0xE84 PUSH2 0x9E3 JUMP JUMPDEST JUMPDEST POP SWAP3 POP SWAP3 SWAP1 POP JUMP JUMPDEST PUSH1 0x0 DUP3 DUP3 MSTORE PUSH1 0x20 DUP3 ADD SWAP1 POP SWAP3 SWAP2 POP POP JUMP JUMPDEST DUP3 DUP2 DUP4 CALLDATACOPY PUSH1 0x0 DUP4 DUP4 ADD MSTORE POP POP POP JUMP JUMPDEST PUSH1 0x0 PUSH1 0x1F NOT PUSH1 0x1F DUP4 ADD AND SWAP1 POP SWAP2 SWAP1 POP JUMP JUMPDEST PUSH1 0x0 PUSH2 0xECA DUP4 DUP6 PUSH2 0xE8D JUMP JUMPDEST SWAP4 POP PUSH2 0xED7 DUP4 DUP6 DUP5 PUSH2 0xE9E JUMP JUMPDEST PUSH2 0xEE0 DUP4 PUSH2 0xEAD JUMP JUMPDEST DUP5 ADD SWAP1 POP SWAP4 SWAP3 POP POP POP JUMP JUMPDEST PUSH1 0x0 PUSH1 0x40 DUP3 ADD SWAP1 POP PUSH2 0xF00 PUSH1 0x0 DUP4 ADD DUP7 PUSH2 0xBBE JUMP JUMPDEST DUP2 DUP2 SUB PUSH1 0x20 DUP4 ADD MSTORE PUSH2 0xF13 DUP2 DUP5 DUP7 PUSH2 0xEBE JUMP JUMPDEST SWAP1 POP SWAP5 SWAP4 POP POP POP POP JUMP JUMPDEST PUSH2 0xF26 DUP2 PUSH2 0x86F JUMP JUMPDEST DUP2 EQ PUSH2 0xF31 JUMPI PUSH1 0x0 DUP1 REVERT JUMPDEST POP JUMP JUMPDEST PUSH1 0x0 DUP2 MLOAD SWAP1 POP PUSH2 0xF43 DUP2 PUSH2 0xF1D JUMP JUMPDEST SWAP3 SWAP2 POP POP JUMP JUMPDEST PUSH1 0x0 PUSH1 0x20 DUP3 DUP5 SUB SLT ISZERO PUSH2 0xF5F JUMPI PUSH2 0xF5E PUSH2 0x7B3 JUMP JUMPDEST JUMPDEST PUSH1 0x0 PUSH2 0xF6D DUP5 DUP3 DUP6 ADD PUSH2 0xF34 JUMP JUMPDEST SWAP2 POP POP SWAP3 SWAP2 POP POP JUMP JUMPDEST PUSH1 0x0 PUSH2 0xF81 DUP3 PUSH2 0xCCC JUMP JUMPDEST SWAP2 POP PUSH1 0xFF DUP3 SUB PUSH2 0xF94 JUMPI PUSH2 0xF93 PUSH2 0xA10 JUMP JUMPDEST JUMPDEST PUSH1 0x1 DUP3 ADD SWAP1 POP SWAP2 SWAP1 POP JUMP JUMPDEST PUSH32 0x416464726573733A2064656C65676174652063616C6C20746F206E6F6E2D636F PUSH1 0x0 DUP3 ADD MSTORE PUSH32 0x6E74726163740000000000000000000000000000000000000000000000000000 PUSH1 0x20 DUP3 ADD MSTORE POP JUMP JUMPDEST PUSH1 0x0 PUSH2 0xFFB PUSH1 0x26 DUP4 PUSH2 0xA73 JUMP JUMPDEST SWAP2 POP PUSH2 0x1006 DUP3 PUSH2 0xF9F JUMP JUMPDEST PUSH1 0x40 DUP3 ADD SWAP1 POP SWAP2 SWAP1 POP JUMP JUMPDEST PUSH1 0x0 PUSH1 0x20 DUP3 ADD SWAP1 POP DUP2 DUP2 SUB PUSH1 0x0 DUP4 ADD MSTORE PUSH2 0x102A DUP2 PUSH2 0xFEE JUMP JUMPDEST SWAP1 POP SWAP2 SWAP1 POP JUMP JUMPDEST PUSH1 0x0 DUP2 MLOAD SWAP1 POP SWAP2 SWAP1 POP JUMP JUMPDEST PUSH1 0x0 DUP2 SWAP1 POP SWAP3 SWAP2 POP POP JUMP JUMPDEST PUSH1 0x0 JUMPDEST DUP4 DUP2 LT ISZERO PUSH2 0x1065 JUMPI DUP1 DUP3 ADD MLOAD DUP2 DUP5 ADD MSTORE PUSH1 0x20 DUP2 ADD SWAP1 POP PUSH2 0x104A JUMP JUMPDEST PUSH1 0x0 DUP5 DUP5 ADD MSTORE POP POP POP POP JUMP JUMPDEST PUSH1 0x0 PUSH2 0x107C DUP3 PUSH2 0x1031 JUMP JUMPDEST PUSH2 0x1086 DUP2 DUP6 PUSH2 0x103C JUMP JUMPDEST SWAP4 POP PUSH2 0x1096 DUP2 DUP6 PUSH1 0x20 DUP7 ADD PUSH2 0x1047 JUMP JUMPDEST DUP1 DUP5 ADD SWAP2 POP POP SWAP3 SWAP2 POP POP JUMP JUMPDEST PUSH1 0x0 PUSH2 0x10AE DUP3 DUP5 PUSH2 0x1071 JUMP JUMPDEST SWAP2 POP DUP2 SWAP1 POP SWAP3 SWAP2 POP POP JUMP JUMPDEST PUSH1 0x0 DUP2 MLOAD SWAP1 POP SWAP2 SWAP1 POP JUMP JUMPDEST PUSH1 0x0 PUSH2 0x10CF DUP3 PUSH2 0x10B9 JUMP JUMPDEST PUSH2 0x10D9 DUP2 DUP6 PUSH2 0xA73 JUMP JUMPDEST SWAP4 POP PUSH2 0x10E9 DUP2 DUP6 PUSH1 0x20 DUP7 ADD PUSH2 0x1047 JUMP JUMPDEST PUSH2 0x10F2 DUP2 PUSH2 0xEAD JUMP JUMPDEST DUP5 ADD SWAP2 POP POP SWAP3 SWAP2 POP POP JUMP JUMPDEST PUSH1 0x0 PUSH1 0x20 DUP3 ADD SWAP1 POP DUP2 DUP2 SUB PUSH1 0x0 DUP4 ADD MSTORE PUSH2 0x1117 DUP2 DUP5 PUSH2 0x10C4 JUMP JUMPDEST SWAP1 POP SWAP3 SWAP2 POP POP JUMP INVALID COINBASE PUSH5 0x6472657373 GASPRICE KECCAK256 PUSH13 0x6F772D6C6576656C2064656C65 PUSH8 0x6174652063616C6C KECCAK256 PUSH7 0x61696C6564A264 PUSH10 0x70667358221220CF129E 0xE9 0xB8 PUSH16 0xB4CA73FE516685B65CD4D1889FA38810 0xBC 0xA9 PUSH15 0xD4791FD308702164736F6C63430008 XOR STOP CALLER "},"methodIdentifiers":{"factory()":"c45a0155","swapMultiHop((address[],uint8[],address[],uint256,bytes[]))":"d4a3f3c7","swapMultiRoute((address[],uint8[],address[],uint256,bytes[])[])":"11eac87a"}},"storageLayout":{"storage":[{"astId":800,"contract":"contracts/Aggregator.sol:Aggregator","label":"factory","offset":0,"slot":"0","type":"t_contract(IDexHandlerFactory)1111"}],"types":{"t_contract(IDexHandlerFactory)1111":{"encoding":"inplace","label":"contract IDexHandlerFactory","numberOfBytes":"20"}}}}}}