{
  "_format": "hh-sol-artifact-1",
  "contractName": "UniswapV2Handler",
  "sourceName": "contracts/UniswapV2Handler.sol",
  "abi": [
    {
      "inputs": [
        {
          "internalType": "address",
          "name": "router",
          "type": "address"
        },
        {
          "internalType": "bytes",
          "name": "data",
          "type": "bytes"
        }
      ],
      "name": "executeSwap",
      "outputs": [
        {
          "internalType": "uint256",
          "name": "amountOut",
          "type": "uint256"
        }
      ],
      "stateMutability": "nonpayable",
      "type": "function"
    }
  ],
  "bytecode": "0x608060405234801561001057600080fd5b506107c1806100206000396000f3fe608060405234801561001057600080fd5b506004361061002b5760003560e01c806303f7c80f14610030575b600080fd5b61004a6004803603810190610045919061021f565b610060565b6040516100579190610298565b60405180910390f35b60008060008060008686810190610077919061042e565b9350935093509350600088905060008173ffffffffffffffffffffffffffffffffffffffff166338ed173987878730886040518663ffffffff1660e01b81526004016100c795949392919061057e565b6000604051808303816000875af11580156100e6573d6000803e3d6000fd5b505050506040513d6000823e3d601f19601f8201168201806040525081019061010f91906106b0565b905080600182516101209190610728565b815181106101315761013061075c565b5b602002602001015196505050505050509392505050565b6000604051905090565b600080fd5b600080fd5b600073ffffffffffffffffffffffffffffffffffffffff82169050919050565b60006101878261015c565b9050919050565b6101978161017c565b81146101a257600080fd5b50565b6000813590506101b48161018e565b92915050565b600080fd5b600080fd5b600080fd5b60008083601f8401126101df576101de6101ba565b5b8235905067ffffffffffffffff8111156101fc576101fb6101bf565b5b602083019150836001820283011115610218576102176101c4565b5b9250929050565b60008060006040848603121561023857610237610152565b5b6000610246868287016101a5565b935050602084013567ffffffffffffffff81111561026757610266610157565b5b610273868287016101c9565b92509250509250925092565b6000819050919050565b6102928161027f565b82525050565b60006020820190506102ad6000830184610289565b92915050565b6102bc8161027f565b81146102c757600080fd5b50565b6000813590506102d9816102b3565b92915050565b6000601f19601f8301169050919050565b7f4e487b7100000000000000000000000000000000000000000000000000000000600052604160045260246000fd5b610328826102df565b810181811067ffffffffffffffff82111715610347576103466102f0565b5b80604052505050565b600061035a610148565b9050610366828261031f565b919050565b600067ffffffffffffffff821115610386576103856102f0565b5b602082029050602081019050919050565b60006103aa6103a58461036b565b610350565b905080838252602082019050602084028301858111156103cd576103cc6101c4565b5b835b818110156103f657806103e288826101a5565b8452602084019350506020810190506103cf565b5050509392505050565b600082601f830112610415576104146101ba565b5b8135610425848260208601610397565b91505092915050565b6000806000806080858703121561044857610447610152565b5b6000610456878288016102ca565b9450506020610467878288016102ca565b935050604085013567ffffffffffffffff81111561048857610487610157565b5b61049487828801610400565b92505060606104a5878288016102ca565b91505092959194509250565b600081519050919050565b600082825260208201905092915050565b6000819050602082019050919050565b6104e68161017c565b82525050565b60006104f883836104dd565b60208301905092915050565b6000602082019050919050565b600061051c826104b1565b61052681856104bc565b9350610531836104cd565b8060005b8381101561056257815161054988826104ec565b975061055483610504565b925050600181019050610535565b5085935050505092915050565b6105788161017c565b82525050565b600060a0820190506105936000830188610289565b6105a06020830187610289565b81810360408301526105b28186610511565b90506105c1606083018561056f565b6105ce6080830184610289565b9695505050505050565b600067ffffffffffffffff8211156105f3576105f26102f0565b5b602082029050602081019050919050565b600081519050610613816102b3565b92915050565b600061062c610627846105d8565b610350565b9050808382526020820190506020840283018581111561064f5761064e6101c4565b5b835b8181101561067857806106648882610604565b845260208401935050602081019050610651565b5050509392505050565b600082601f830112610697576106966101ba565b5b81516106a7848260208601610619565b91505092915050565b6000602082840312156106c6576106c5610152565b5b600082015167ffffffffffffffff8111156106e4576106e3610157565b5b6106f084828501610682565b91505092915050565b7f4e487b7100000000000000000000000000000000000000000000000000000000600052601160045260246000fd5b60006107338261027f565b915061073e8361027f565b9250828203905081811115610756576107556106f9565b5b92915050565b7f4e487b7100000000000000000000000000000000000000000000000000000000600052603260045260246000fdfea26469706673582212203009b55b430f0c37cd42ec456fd372285624369535c88f07e930b80e4f31245364736f6c63430008180033",
  "linkReferences": {},
  "deployedLinkReferences": {}
}