{
  "_format": "hh-sol-artifact-1",
  "contractName": "UniswapV3Handler",
  "sourceName": "contracts/UniswapV3Handler.sol",
  "abi": [
    {
      "inputs": [
        {
          "internalType": "address",
          "name": "router",
          "type": "address"
        },
        {
          "internalType": "bytes",
          "name": "data",
          "type": "bytes"
        }
      ],
      "name": "executeSwap",
      "outputs": [
        {
          "internalType": "uint256",
          "name": "amountOut",
          "type": "uint256"
        }
      ],
      "stateMutability": "nonpayable",
      "type": "function"
    }
  ],
  "bytecode": "0x608060405234801561001057600080fd5b5061065c806100206000396000f3fe608060405234801561001057600080fd5b506004361061002b5760003560e01c806303f7c80f14610030575b600080fd5b61004a600480360381019061004591906102cf565b610060565b6040516100579190610348565b60405180910390f35b60008060008060008060008060008a8a81019061007d9190610434565b97509750975097509750975097509750732ada5fadfdb0bce7156cd63ba36195a243b76b1373ffffffffffffffffffffffffffffffffffffffff168873ffffffffffffffffffffffffffffffffffffffff16146100d957600080fd5b60006040518061010001604052808a73ffffffffffffffffffffffffffffffffffffffff1681526020018973ffffffffffffffffffffffffffffffffffffffff1681526020018862ffffff1681526020018773ffffffffffffffffffffffffffffffffffffffff1681526020018681526020018581526020018481526020018373ffffffffffffffffffffffffffffffffffffffff1681525090508c73ffffffffffffffffffffffffffffffffffffffff1663414bf389826040518263ffffffff1660e01b81526004016101ad91906105c8565b6020604051808303816000875af11580156101cc573d6000803e3d6000fd5b505050506040513d601f19601f820116820180604052508101906101f091906105f9565b99505050505050505050509392505050565b600080fd5b600080fd5b600073ffffffffffffffffffffffffffffffffffffffff82169050919050565b60006102378261020c565b9050919050565b6102478161022c565b811461025257600080fd5b50565b6000813590506102648161023e565b92915050565b600080fd5b600080fd5b600080fd5b60008083601f84011261028f5761028e61026a565b5b8235905067ffffffffffffffff8111156102ac576102ab61026f565b5b6020830191508360018202830111156102c8576102c7610274565b5b9250929050565b6000806000604084860312156102e8576102e7610202565b5b60006102f686828701610255565b935050602084013567ffffffffffffffff81111561031757610316610207565b5b61032386828701610279565b92509250509250925092565b6000819050919050565b6103428161032f565b82525050565b600060208201905061035d6000830184610339565b92915050565b600061036e8261020c565b9050919050565b61037e81610363565b811461038957600080fd5b50565b60008135905061039b81610375565b92915050565b600062ffffff82169050919050565b6103b9816103a1565b81146103c457600080fd5b50565b6000813590506103d6816103b0565b92915050565b6103e58161032f565b81146103f057600080fd5b50565b600081359050610402816103dc565b92915050565b6104118161020c565b811461041c57600080fd5b50565b60008135905061042e81610408565b92915050565b600080600080600080600080610100898b03121561045557610454610202565b5b60006104638b828c0161038c565b98505060206104748b828c0161038c565b97505060406104858b828c016103c7565b96505060606104968b828c0161038c565b95505060806104a78b828c016103f3565b94505060a06104b88b828c016103f3565b93505060c06104c98b828c016103f3565b92505060e06104da8b828c0161041f565b9150509295985092959890939650565b6104f38161022c565b82525050565b610502816103a1565b82525050565b6105118161032f565b82525050565b6105208161020c565b82525050565b6101008201600082015161053d60008501826104ea565b50602082015161055060208501826104ea565b50604082015161056360408501826104f9565b50606082015161057660608501826104ea565b5060808201516105896080850182610508565b5060a082015161059c60a0850182610508565b5060c08201516105af60c0850182610508565b5060e08201516105c260e0850182610517565b50505050565b6000610100820190506105de6000830184610526565b92915050565b6000815190506105f3816103dc565b92915050565b60006020828403121561060f5761060e610202565b5b600061061d848285016105e4565b9150509291505056fea264697066735822122085e34ef36332146f544c239047d3845de4b6640ac55c6408a57d7a46b833979d64736f6c63430008180033",
  "linkReferences": {},
  "deployedLinkReferences": {}
}