{
  "_format": "hh-sol-artifact-1",
  "contractName": "AggregatorExecutor",
  "sourceName": "contracts/AggregatorExecutor.sol",
  "abi": [
    {
      "inputs": [
        {
          "components": [
            {
              "internalType": "address[]",
              "name": "routers",
              "type": "address[]"
            },
            {
              "internalType": "uint8[]",
              "name": "dexHandlerIds",
              "type": "uint8[]"
            },
            {
              "internalType": "address[]",
              "name": "tokenIn",
              "type": "address[]"
            },
            {
              "internalType": "bytes[]",
              "name": "data",
              "type": "bytes[]"
            }
          ],
          "internalType": "struct SwapMultiHop",
          "name": "params",
          "type": "tuple"
        },
        {
          "components": [
            {
              "internalType": "address",
              "name": "tokenIn",
              "type": "address"
            },
            {
              "internalType": "address",
              "name": "tokenOut",
              "type": "address"
            },
            {
              "internalType": "uint256",
              "name": "amountIn",
              "type": "uint256"
            },
            {
              "internalType": "uint256",
              "name": "minReturnAmount",
              "type": "uint256"
            },
            {
              "internalType": "uint256",
              "name": "flags",
              "type": "uint256"
            }
          ],
          "internalType": "struct SwapDescription",
          "name": "desc",
          "type": "tuple"
        },
        {
          "internalType": "contract IDexHandlerFactory",
          "name": "factory",
          "type": "address"
        }
      ],
      "name": "swapMultiHop",
      "outputs": [
        {
          "internalType": "uint256",
          "name": "amountOut",
          "type": "uint256"
        }
      ],
      "stateMutability": "nonpayable",
      "type": "function"
    }
  ],
  "bytecode": "0x608060405234801561001057600080fd5b50610eba806100206000396000f3fe608060405234801561001057600080fd5b506004361061002b5760003560e01c8063391eb10114610030575b600080fd5b61004a600480360381019061004591906106b3565b610060565b604051610057919061073b565b60405180910390f35b6000808360400135036100a8576040517f08c379a000000000000000000000000000000000000000000000000000000000815260040161009f906107b3565b60405180910390fd5b600080846040013590508460000160208101906100c591906107ff565b73ffffffffffffffffffffffffffffffffffffffff166323b872dd333088604001356040518463ffffffff1660e01b81526004016101059392919061083b565b6020604051808303816000875af1158015610124573d6000803e3d6000fd5b505050506040513d601f19601f8201168201806040525081019061014891906108aa565b5060005b86806000019061015c91906108e6565b90508160ff16101561046857600087806040019061017a91906108e6565b8360ff1681811061018e5761018d610949565b5b90506020020160208101906101a391906107ff565b90508573ffffffffffffffffffffffffffffffffffffffff16634fa293528980602001906101d19190610978565b8560ff168181106101e5576101e4610949565b5b90506020020160208101906101fa9190610a14565b6040518263ffffffff1660e01b81526004016102169190610a50565b602060405180830381865afa158015610233573d6000803e3d6000fd5b505050506040513d601f19601f820116820180604052508101906102579190610a80565b93508073ffffffffffffffffffffffffffffffffffffffff1663095ea7b389806000019061028591906108e6565b8560ff1681811061029957610298610949565b5b90506020020160208101906102ae91906107ff565b856040518363ffffffff1660e01b81526004016102cc929190610aad565b6020604051808303816000875af11580156102eb573d6000803e3d6000fd5b505050506040513d601f19601f8201168201806040525081019061030f91906108aa565b50600061043889806000019061032591906108e6565b8560ff1681811061033957610338610949565b5b905060200201602081019061034e91906107ff565b8a806060019061035e9190610ad6565b8660ff1681811061037257610371610949565b5b90506020028101906103849190610b39565b60405160240161039693929190610bfa565b6040516020818303038152906040527f03f7c80f000000000000000000000000000000000000000000000000000000007bffffffffffffffffffffffffffffffffffffffffffffffffffffffff19166020820180517bffffffffffffffffffffffffffffffffffffffffffffffffffffffff83818316178352505050508673ffffffffffffffffffffffffffffffffffffffff1661047290919063ffffffff16565b90508080602001905181019061044e9190610c58565b95508593505050808061046090610cb4565b91505061014c565b5050509392505050565b60606104978383604051806060016040528060278152602001610e5e6027913961049f565b905092915050565b60606104aa8461056c565b6104e9576040517f08c379a00000000000000000000000000000000000000000000000000000000081526004016104e090610d4f565b60405180910390fd5b6000808573ffffffffffffffffffffffffffffffffffffffff16856040516105119190610de0565b600060405180830381855af49150503d806000811461054c576040519150601f19603f3d011682016040523d82523d6000602084013e610551565b606091505b509150915061056182828661058f565b925050509392505050565b6000808273ffffffffffffffffffffffffffffffffffffffff163b119050919050565b6060831561059f578290506105ef565b6000835111156105b25782518084602001fd5b816040517f08c379a00000000000000000000000000000000000000000000000000000000081526004016105e69190610e3b565b60405180910390fd5b9392505050565b600080fd5b600080fd5b600080fd5b60006080828403121561061b5761061a610600565b5b81905092915050565b600060a0828403121561063a57610639610600565b5b81905092915050565b600073ffffffffffffffffffffffffffffffffffffffff82169050919050565b600061066e82610643565b9050919050565b600061068082610663565b9050919050565b61069081610675565b811461069b57600080fd5b50565b6000813590506106ad81610687565b92915050565b600080600060e084860312156106cc576106cb6105f6565b5b600084013567ffffffffffffffff8111156106ea576106e96105fb565b5b6106f686828701610605565b935050602061070786828701610624565b92505060c06107188682870161069e565b9150509250925092565b6000819050919050565b61073581610722565b82525050565b6000602082019050610750600083018461072c565b92915050565b600082825260208201905092915050565b7f54686520616d6f756e7420666f722073776170206973207a65726f0000000000600082015250565b600061079d601b83610756565b91506107a882610767565b602082019050919050565b600060208201905081810360008301526107cc81610790565b9050919050565b6107dc81610663565b81146107e757600080fd5b50565b6000813590506107f9816107d3565b92915050565b600060208284031215610815576108146105f6565b5b6000610823848285016107ea565b91505092915050565b61083581610663565b82525050565b6000606082019050610850600083018661082c565b61085d602083018561082c565b61086a604083018461072c565b949350505050565b60008115159050919050565b61088781610872565b811461089257600080fd5b50565b6000815190506108a48161087e565b92915050565b6000602082840312156108c0576108bf6105f6565b5b60006108ce84828501610895565b91505092915050565b600080fd5b600080fd5b600080fd5b60008083356001602003843603038112610903576109026108d7565b5b80840192508235915067ffffffffffffffff821115610925576109246108dc565b5b602083019250602082023603831315610941576109406108e1565b5b509250929050565b7f4e487b7100000000000000000000000000000000000000000000000000000000600052603260045260246000fd5b60008083356001602003843603038112610995576109946108d7565b5b80840192508235915067ffffffffffffffff8211156109b7576109b66108dc565b5b6020830192506020820236038313156109d3576109d26108e1565b5b509250929050565b600060ff82169050919050565b6109f1816109db565b81146109fc57600080fd5b50565b600081359050610a0e816109e8565b92915050565b600060208284031215610a2a57610a296105f6565b5b6000610a38848285016109ff565b91505092915050565b610a4a816109db565b82525050565b6000602082019050610a656000830184610a41565b92915050565b600081519050610a7a816107d3565b92915050565b600060208284031215610a9657610a956105f6565b5b6000610aa484828501610a6b565b91505092915050565b6000604082019050610ac2600083018561082c565b610acf602083018461072c565b9392505050565b60008083356001602003843603038112610af357610af26108d7565b5b80840192508235915067ffffffffffffffff821115610b1557610b146108dc565b5b602083019250602082023603831315610b3157610b306108e1565b5b509250929050565b60008083356001602003843603038112610b5657610b556108d7565b5b80840192508235915067ffffffffffffffff821115610b7857610b776108dc565b5b602083019250600182023603831315610b9457610b936108e1565b5b509250929050565b600082825260208201905092915050565b82818337600083830152505050565b6000601f19601f8301169050919050565b6000610bd98385610b9c565b9350610be6838584610bad565b610bef83610bbc565b840190509392505050565b6000604082019050610c0f600083018661082c565b8181036020830152610c22818486610bcd565b9050949350505050565b610c3581610722565b8114610c4057600080fd5b50565b600081519050610c5281610c2c565b92915050565b600060208284031215610c6e57610c6d6105f6565b5b6000610c7c84828501610c43565b91505092915050565b7f4e487b7100000000000000000000000000000000000000000000000000000000600052601160045260246000fd5b6000610cbf826109db565b915060ff8203610cd257610cd1610c85565b5b600182019050919050565b7f416464726573733a2064656c65676174652063616c6c20746f206e6f6e2d636f60008201527f6e74726163740000000000000000000000000000000000000000000000000000602082015250565b6000610d39602683610756565b9150610d4482610cdd565b604082019050919050565b60006020820190508181036000830152610d6881610d2c565b9050919050565b600081519050919050565b600081905092915050565b60005b83811015610da3578082015181840152602081019050610d88565b60008484015250505050565b6000610dba82610d6f565b610dc48185610d7a565b9350610dd4818560208601610d85565b80840191505092915050565b6000610dec8284610daf565b915081905092915050565b600081519050919050565b6000610e0d82610df7565b610e178185610756565b9350610e27818560208601610d85565b610e3081610bbc565b840191505092915050565b60006020820190508181036000830152610e558184610e02565b90509291505056fe416464726573733a206c6f772d6c6576656c2064656c65676174652063616c6c206661696c6564a2646970667358221220e5d7cc7797273776c435a1f7a17175ed5bfa0585cbab707cb62f8ef5068b396764736f6c63430008180033",
  "linkReferences": {},
  "deployedLinkReferences": {}
}