{
  "_format": "hh-sol-artifact-1",
  "contractName": "AggregatorExecutor",
  "sourceName": "contracts/AggregatorExecutor.sol",
  "abi": [
    {
      "inputs": [
        {
          "components": [
            {
              "internalType": "address[]",
              "name": "routers",
              "type": "address[]"
            },
            {
              "internalType": "uint8[]",
              "name": "dexHandlerIds",
              "type": "uint8[]"
            },
            {
              "internalType": "address[]",
              "name": "tokenIn",
              "type": "address[]"
            },
            {
              "internalType": "uint256",
              "name": "amountIn",
              "type": "uint256"
            },
            {
              "internalType": "bytes[]",
              "name": "data",
              "type": "bytes[]"
            },
            {
              "internalType": "uint256",
              "name": "flags",
              "type": "uint256"
            }
          ],
          "internalType": "struct SwapMultiHop",
          "name": "params",
          "type": "tuple"
        },
        {
          "components": [
            {
              "internalType": "address",
              "name": "tokenIn",
              "type": "address"
            },
            {
              "internalType": "address",
              "name": "tokenOut",
              "type": "address"
            },
            {
              "internalType": "uint256",
              "name": "amountIn",
              "type": "uint256"
            },
            {
              "internalType": "uint256",
              "name": "flags",
              "type": "uint256"
            }
          ],
          "internalType": "struct SwapDescription",
          "name": "desc",
          "type": "tuple"
        },
        {
          "internalType": "contract IDexHandlerFactory",
          "name": "factory",
          "type": "address"
        }
      ],
      "name": "swapMultiHop",
      "outputs": [
        {
          "internalType": "uint256",
          "name": "amountOut",
          "type": "uint256"
        }
      ],
      "stateMutability": "nonpayable",
      "type": "function"
    }
  ],
  "bytecode": "0x608060405234801561001057600080fd5b50610edb806100206000396000f3fe608060405234801561001057600080fd5b506004361061002b5760003560e01c806382cf753f14610030575b600080fd5b61004a600480360381019061004591906106d4565b610060565b604051610057919061075c565b60405180910390f35b6000808460600135036100a8576040517f08c379a000000000000000000000000000000000000000000000000000000000815260040161009f906107d4565b60405180910390fd5b6000808580604001906100bb9190610803565b60008181106100cd576100cc610866565b5b90506020020160208101906100e291906108c1565b73ffffffffffffffffffffffffffffffffffffffff166323b872dd333089606001356040518463ffffffff1660e01b8152600401610122939291906108fd565b6020604051808303816000875af1158015610141573d6000803e3d6000fd5b505050506040513d601f19601f82011682018060405250810190610165919061096c565b5060005b8680600001906101799190610803565b90508160ff1610156104895760008780604001906101979190610803565b8360ff168181106101ab576101aa610866565b5b90506020020160208101906101c091906108c1565b90508573ffffffffffffffffffffffffffffffffffffffff16634fa293528980602001906101ee9190610999565b8560ff1681811061020257610201610866565b5b90506020020160208101906102179190610a35565b6040518263ffffffff1660e01b81526004016102339190610a71565b602060405180830381865afa158015610250573d6000803e3d6000fd5b505050506040513d601f19601f820116820180604052508101906102749190610aa1565b93508073ffffffffffffffffffffffffffffffffffffffff1663095ea7b38980600001906102a29190610803565b8560ff168181106102b6576102b5610866565b5b90506020020160208101906102cb91906108c1565b8a606001356040518363ffffffff1660e01b81526004016102ed929190610ace565b6020604051808303816000875af115801561030c573d6000803e3d6000fd5b505050506040513d601f19601f82011682018060405250810190610330919061096c565b5060006104598980600001906103469190610803565b8560ff1681811061035a57610359610866565b5b905060200201602081019061036f91906108c1565b8a806080019061037f9190610af7565b8660ff1681811061039357610392610866565b5b90506020028101906103a59190610b5a565b6040516024016103b793929190610c1b565b6040516020818303038152906040527f03f7c80f000000000000000000000000000000000000000000000000000000007bffffffffffffffffffffffffffffffffffffffffffffffffffffffff19166020820180517bffffffffffffffffffffffffffffffffffffffffffffffffffffffff83818316178352505050508673ffffffffffffffffffffffffffffffffffffffff1661049390919063ffffffff16565b90508080602001905181019061046f9190610c79565b95508593505050808061048190610cd5565b915050610169565b5050509392505050565b60606104b88383604051806060016040528060278152602001610e7f602791396104c0565b905092915050565b60606104cb8461058d565b61050a576040517f08c379a000000000000000000000000000000000000000000000000000000000815260040161050190610d70565b60405180910390fd5b6000808573ffffffffffffffffffffffffffffffffffffffff16856040516105329190610e01565b600060405180830381855af49150503d806000811461056d576040519150601f19603f3d011682016040523d82523d6000602084013e610572565b606091505b50915091506105828282866105b0565b925050509392505050565b6000808273ffffffffffffffffffffffffffffffffffffffff163b119050919050565b606083156105c057829050610610565b6000835111156105d35782518084602001fd5b816040517f08c379a00000000000000000000000000000000000000000000000000000000081526004016106079190610e5c565b60405180910390fd5b9392505050565b600080fd5b600080fd5b600080fd5b600060c0828403121561063c5761063b610621565b5b81905092915050565b60006080828403121561065b5761065a610621565b5b81905092915050565b600073ffffffffffffffffffffffffffffffffffffffff82169050919050565b600061068f82610664565b9050919050565b60006106a182610684565b9050919050565b6106b181610696565b81146106bc57600080fd5b50565b6000813590506106ce816106a8565b92915050565b600080600060c084860312156106ed576106ec610617565b5b600084013567ffffffffffffffff81111561070b5761070a61061c565b5b61071786828701610626565b935050602061072886828701610645565b92505060a0610739868287016106bf565b9150509250925092565b6000819050919050565b61075681610743565b82525050565b6000602082019050610771600083018461074d565b92915050565b600082825260208201905092915050565b7f54686520616d6f756e7420666f722073776170206973207a65726f0000000000600082015250565b60006107be601b83610777565b91506107c982610788565b602082019050919050565b600060208201905081810360008301526107ed816107b1565b9050919050565b600080fd5b600080fd5b600080fd5b600080833560016020038436030381126108205761081f6107f4565b5b80840192508235915067ffffffffffffffff821115610842576108416107f9565b5b60208301925060208202360383131561085e5761085d6107fe565b5b509250929050565b7f4e487b7100000000000000000000000000000000000000000000000000000000600052603260045260246000fd5b61089e81610684565b81146108a957600080fd5b50565b6000813590506108bb81610895565b92915050565b6000602082840312156108d7576108d6610617565b5b60006108e5848285016108ac565b91505092915050565b6108f781610684565b82525050565b600060608201905061091260008301866108ee565b61091f60208301856108ee565b61092c604083018461074d565b949350505050565b60008115159050919050565b61094981610934565b811461095457600080fd5b50565b60008151905061096681610940565b92915050565b60006020828403121561098257610981610617565b5b600061099084828501610957565b91505092915050565b600080833560016020038436030381126109b6576109b56107f4565b5b80840192508235915067ffffffffffffffff8211156109d8576109d76107f9565b5b6020830192506020820236038313156109f4576109f36107fe565b5b509250929050565b600060ff82169050919050565b610a12816109fc565b8114610a1d57600080fd5b50565b600081359050610a2f81610a09565b92915050565b600060208284031215610a4b57610a4a610617565b5b6000610a5984828501610a20565b91505092915050565b610a6b816109fc565b82525050565b6000602082019050610a866000830184610a62565b92915050565b600081519050610a9b81610895565b92915050565b600060208284031215610ab757610ab6610617565b5b6000610ac584828501610a8c565b91505092915050565b6000604082019050610ae360008301856108ee565b610af0602083018461074d565b9392505050565b60008083356001602003843603038112610b1457610b136107f4565b5b80840192508235915067ffffffffffffffff821115610b3657610b356107f9565b5b602083019250602082023603831315610b5257610b516107fe565b5b509250929050565b60008083356001602003843603038112610b7757610b766107f4565b5b80840192508235915067ffffffffffffffff821115610b9957610b986107f9565b5b602083019250600182023603831315610bb557610bb46107fe565b5b509250929050565b600082825260208201905092915050565b82818337600083830152505050565b6000601f19601f8301169050919050565b6000610bfa8385610bbd565b9350610c07838584610bce565b610c1083610bdd565b840190509392505050565b6000604082019050610c3060008301866108ee565b8181036020830152610c43818486610bee565b9050949350505050565b610c5681610743565b8114610c6157600080fd5b50565b600081519050610c7381610c4d565b92915050565b600060208284031215610c8f57610c8e610617565b5b6000610c9d84828501610c64565b91505092915050565b7f4e487b7100000000000000000000000000000000000000000000000000000000600052601160045260246000fd5b6000610ce0826109fc565b915060ff8203610cf357610cf2610ca6565b5b600182019050919050565b7f416464726573733a2064656c65676174652063616c6c20746f206e6f6e2d636f60008201527f6e74726163740000000000000000000000000000000000000000000000000000602082015250565b6000610d5a602683610777565b9150610d6582610cfe565b604082019050919050565b60006020820190508181036000830152610d8981610d4d565b9050919050565b600081519050919050565b600081905092915050565b60005b83811015610dc4578082015181840152602081019050610da9565b60008484015250505050565b6000610ddb82610d90565b610de58185610d9b565b9350610df5818560208601610da6565b80840191505092915050565b6000610e0d8284610dd0565b915081905092915050565b600081519050919050565b6000610e2e82610e18565b610e388185610777565b9350610e48818560208601610da6565b610e5181610bdd565b840191505092915050565b60006020820190508181036000830152610e768184610e23565b90509291505056fe416464726573733a206c6f772d6c6576656c2064656c65676174652063616c6c206661696c6564a26469706673582212200ae32fae5821c300c95b59cdb4beaddcb375993298881f44a5c58c3e94145e6364736f6c63430008180033",
  "linkReferences": {},
  "deployedLinkReferences": {}
}