{
  "_format": "hh-sol-artifact-1",
  "contractName": "Aggregator",
  "sourceName": "contracts/Aggregator.sol",
  "abi": [
    {
      "inputs": [
        {
          "internalType": "address",
          "name": "_factory",
          "type": "address"
        }
      ],
      "stateMutability": "nonpayable",
      "type": "constructor"
    },
    {
      "inputs": [],
      "name": "WETH",
      "outputs": [
        {
          "internalType": "address",
          "name": "",
          "type": "address"
        }
      ],
      "stateMutability": "view",
      "type": "function"
    },
    {
      "inputs": [],
      "name": "factory",
      "outputs": [
        {
          "internalType": "contract IDexHandlerFactory",
          "name": "",
          "type": "address"
        }
      ],
      "stateMutability": "view",
      "type": "function"
    },
    {
      "inputs": [
        {
          "internalType": "contract IAggregatorExecutor",
          "name": "executor",
          "type": "address"
        },
        {
          "components": [
            {
              "internalType": "address[]",
              "name": "routers",
              "type": "address[]"
            },
            {
              "internalType": "uint8[]",
              "name": "dexHandlerIds",
              "type": "uint8[]"
            },
            {
              "internalType": "address[]",
              "name": "tokenIn",
              "type": "address[]"
            },
            {
              "internalType": "bytes[]",
              "name": "data",
              "type": "bytes[]"
            }
          ],
          "internalType": "struct SwapMultiHop",
          "name": "params",
          "type": "tuple"
        },
        {
          "components": [
            {
              "internalType": "address",
              "name": "tokenIn",
              "type": "address"
            },
            {
              "internalType": "address",
              "name": "tokenOut",
              "type": "address"
            },
            {
              "internalType": "uint256",
              "name": "amountIn",
              "type": "uint256"
            },
            {
              "internalType": "uint256",
              "name": "minReturnAmount",
              "type": "uint256"
            },
            {
              "internalType": "uint256",
              "name": "flags",
              "type": "uint256"
            },
            {
              "internalType": "bytes",
              "name": "permit",
              "type": "bytes"
            }
          ],
          "internalType": "struct SwapDescription",
          "name": "desc",
          "type": "tuple"
        }
      ],
      "name": "flexSwap",
      "outputs": [
        {
          "internalType": "uint256",
          "name": "amountOut",
          "type": "uint256"
        }
      ],
      "stateMutability": "nonpayable",
      "type": "function"
    },
    {
      "inputs": [],
      "name": "owner",
      "outputs": [
        {
          "internalType": "address",
          "name": "",
          "type": "address"
        }
      ],
      "stateMutability": "view",
      "type": "function"
    },
    {
      "inputs": [
        {
          "internalType": "address",
          "name": "token",
          "type": "address"
        },
        {
          "internalType": "uint256",
          "name": "amount",
          "type": "uint256"
        }
      ],
      "name": "rescueFunds",
      "outputs": [],
      "stateMutability": "nonpayable",
      "type": "function"
    },
    {
      "inputs": [
        {
          "internalType": "contract IAggregatorExecutor",
          "name": "executor",
          "type": "address"
        },
        {
          "components": [
            {
              "internalType": "address[]",
              "name": "routers",
              "type": "address[]"
            },
            {
              "internalType": "uint8[]",
              "name": "dexHandlerIds",
              "type": "uint8[]"
            },
            {
              "internalType": "address[]",
              "name": "tokenIn",
              "type": "address[]"
            },
            {
              "internalType": "bytes[]",
              "name": "data",
              "type": "bytes[]"
            }
          ],
          "internalType": "struct SwapMultiHop",
          "name": "params",
          "type": "tuple"
        },
        {
          "components": [
            {
              "internalType": "address",
              "name": "tokenIn",
              "type": "address"
            },
            {
              "internalType": "address",
              "name": "tokenOut",
              "type": "address"
            },
            {
              "internalType": "uint256",
              "name": "amountIn",
              "type": "uint256"
            },
            {
              "internalType": "uint256",
              "name": "minReturnAmount",
              "type": "uint256"
            },
            {
              "internalType": "uint256",
              "name": "flags",
              "type": "uint256"
            },
            {
              "internalType": "bytes",
              "name": "permit",
              "type": "bytes"
            }
          ],
          "internalType": "struct SwapDescription",
          "name": "desc",
          "type": "tuple"
        }
      ],
      "name": "swap",
      "outputs": [
        {
          "internalType": "uint256",
          "name": "amountOut",
          "type": "uint256"
        }
      ],
      "stateMutability": "nonpayable",
      "type": "function"
    },
    {
      "stateMutability": "payable",
      "type": "receive"
    }
  ],
  "bytecode": "0x60a06040523480156200001157600080fd5b50604051620022173803806200221783398181016040528101906200003791906200019b565b600073ffffffffffffffffffffffffffffffffffffffff168173ffffffffffffffffffffffffffffffffffffffff1603620000a9576040517f08c379a0000000000000000000000000000000000000000000000000000000008152600401620000a0906200022e565b60405180910390fd5b806000806101000a81548173ffffffffffffffffffffffffffffffffffffffff021916908373ffffffffffffffffffffffffffffffffffffffff16021790555033600160006101000a81548173ffffffffffffffffffffffffffffffffffffffff021916908373ffffffffffffffffffffffffffffffffffffffff1602179055505062000250565b600080fd5b600073ffffffffffffffffffffffffffffffffffffffff82169050919050565b6000620001638262000136565b9050919050565b620001758162000156565b81146200018157600080fd5b50565b60008151905062000195816200016a565b92915050565b600060208284031215620001b457620001b362000131565b5b6000620001c48482850162000184565b91505092915050565b600082825260208201905092915050565b7f496e76616c696420666163746f72792061646472657373000000000000000000600082015250565b600062000216601783620001cd565b91506200022382620001de565b602082019050919050565b60006020820190508181036000830152620002498162000207565b9050919050565b608051611fab6200026c60003960006105050152611fab6000f3fe6080604052600436106100595760003560e01c806378e3214f146100655780638da5cb5b1461008e5780639b8727c0146100b9578063ad5c4648146100f6578063bdb3e4ed14610121578063c45a01551461015e57610060565b3661006057005b600080fd5b34801561007157600080fd5b5061008c60048036038101906100879190610f8a565b610189565b005b34801561009a57600080fd5b506100a3610248565b6040516100b09190610fd9565b60405180910390f35b3480156100c557600080fd5b506100e060048036038101906100db9190611075565b61026e565b6040516100ed919061110f565b60405180910390f35b34801561010257600080fd5b5061010b610503565b6040516101189190610fd9565b60405180910390f35b34801561012d57600080fd5b5061014860048036038101906101439190611075565b610527565b604051610155919061110f565b60405180910390f35b34801561016a57600080fd5b506101736105ef565b6040516101809190611189565b60405180910390f35b600160009054906101000a900473ffffffffffffffffffffffffffffffffffffffff1673ffffffffffffffffffffffffffffffffffffffff163373ffffffffffffffffffffffffffffffffffffffff1614610219576040517f08c379a000000000000000000000000000000000000000000000000000000000815260040161021090611201565b60405180910390fd5b61024433828473ffffffffffffffffffffffffffffffffffffffff166106139092919063ffffffff16565b5050565b600160009054906101000a900473ffffffffffffffffffffffffffffffffffffffff1681565b60008082608001359050600083600001602081019061028d9190611221565b905060008460200160208101906102a49190611221565b90506102af856106a8565b8173ffffffffffffffffffffffffffffffffffffffff166323b872dd333088604001356040518463ffffffff1660e01b81526004016102f09392919061124e565b6020604051808303816000875af115801561030f573d6000803e3d6000fd5b505050506040513d601f19601f8201168201806040525081019061033391906112bd565b50600061035f338473ffffffffffffffffffffffffffffffffffffffff166106f690919063ffffffff16565b9050600061038c338473ffffffffffffffffffffffffffffffffffffffff166106f690919063ffffffff16565b9050600061045263668c09ed60e01b8a8a60008054906101000a900473ffffffffffffffffffffffffffffffffffffffff166040516024016103d0939291906118d7565b604051602081830303815290604052907bffffffffffffffffffffffffffffffffffffffffffffffffffffffff19166020820180517bffffffffffffffffffffffffffffffffffffffffffffffffffffffff83818316178352505050508b73ffffffffffffffffffffffffffffffffffffffff166107a890919063ffffffff16565b9050808060200190518101906104689190611931565b96506000610495338773ffffffffffffffffffffffffffffffffffffffff166106f690919063ffffffff16565b905060006104c2338773ffffffffffffffffffffffffffffffffffffffff166106f690919063ffffffff16565b9050600082866104d2919061198d565b9050600085836104e2919061198d565b9050809a506104f282828e6107d5565b505050505050505050509392505050565b7f000000000000000000000000000000000000000000000000000000000000000081565b6000806105cc639b8727c060e01b86868660405160240161054a939291906119e2565b604051602081830303815290604052907bffffffffffffffffffffffffffffffffffffffffffffffffffffffff19166020820180517bffffffffffffffffffffffffffffffffffffffffffffffffffffffff83818316178352505050503073ffffffffffffffffffffffffffffffffffffffff166107a890919063ffffffff16565b90506000818060200190518101906105e49190611931565b905050509392505050565b60008054906101000a900473ffffffffffffffffffffffffffffffffffffffff1681565b60008111156106a3576106258361089c565b15610676578173ffffffffffffffffffffffffffffffffffffffff166108fc829081150290604051600060405180830381858888f19350505050158015610670573d6000803e3d6000fd5b506106a2565b6106a182828573ffffffffffffffffffffffffffffffffffffffff1661091e9092919063ffffffff16565b5b5b505050565b6106b7816080013560046109a4565b156106f2576106ed8160000160208101906106d29190611221565b308360400135848060a001906106e89190611a36565b6109b4565b6106f3565b5b50565b60006107018361089c565b15610725578173ffffffffffffffffffffffffffffffffffffffff163190506107a2565b8273ffffffffffffffffffffffffffffffffffffffff166370a08231836040518263ffffffff1660e01b815260040161075e9190610fd9565b602060405180830381865afa15801561077b573d6000803e3d6000fd5b505050506040513d601f19601f8201168201806040525081019061079f9190611931565b90505b92915050565b60606107cd8383604051806060016040528060278152602001611f4f60279139610b19565b905092915050565b6107e4816080013560016109a4565b1561084f578281606001356107f99190611a99565b8160400135836108099190611a99565b101561084a576040517f08c379a000000000000000000000000000000000000000000000000000000000815260040161084190611b27565b60405180910390fd5b610897565b8060600135821015610896576040517f08c379a000000000000000000000000000000000000000000000000000000000815260040161088d90611b27565b60405180910390fd5b5b505050565b60008073ffffffffffffffffffffffffffffffffffffffff168273ffffffffffffffffffffffffffffffffffffffff161480610917575073eeeeeeeeeeeeeeeeeeeeeeeeeeeeeeeeeeeeeeee73ffffffffffffffffffffffffffffffffffffffff168273ffffffffffffffffffffffffffffffffffffffff16145b9050919050565b61099f8363a9059cbb60e01b848460405160240161093d929190611b47565b604051602081830303815290604052907bffffffffffffffffffffffffffffffffffffffffffffffffffffffff19166020820180517bffffffffffffffffffffffffffffffffffffffffffffffffffffffff8381831617835250505050610be6565b505050565b6000808284161415905092915050565b60e08282905003610ae55760008573ffffffffffffffffffffffffffffffffffffffff1663d505accf60e01b84846040516024016109f3929190611bae565b604051602081830303815290604052907bffffffffffffffffffffffffffffffffffffffffffffffffffffffff19166020820180517bffffffffffffffffffffffffffffffffffffffffffffffffffffffff8381831617835250505050604051610a5d9190611c43565b6000604051808303816000865af19150503d8060008114610a9a576040519150601f19603f3d011682016040523d82523d6000602084013e610a9f565b606091505b5050905080610ae3576040517f08c379a0000000000000000000000000000000000000000000000000000000008152600401610ada90611ca6565b60405180910390fd5b505b610b128430858873ffffffffffffffffffffffffffffffffffffffff16610cad909392919063ffffffff16565b5050505050565b6060610b2484610d36565b610b63576040517f08c379a0000000000000000000000000000000000000000000000000000000008152600401610b5a90611d38565b60405180910390fd5b6000808573ffffffffffffffffffffffffffffffffffffffff1685604051610b8b9190611c43565b600060405180830381855af49150503d8060008114610bc6576040519150601f19603f3d011682016040523d82523d6000602084013e610bcb565b606091505b5091509150610bdb828286610d59565b925050509392505050565b6000610c48826040518060400160405280602081526020017f5361666545524332303a206c6f772d6c6576656c2063616c6c206661696c65648152508573ffffffffffffffffffffffffffffffffffffffff16610dc09092919063ffffffff16565b9050600081511115610ca85780806020019051810190610c6891906112bd565b610ca7576040517f08c379a0000000000000000000000000000000000000000000000000000000008152600401610c9e90611dca565b60405180910390fd5b5b505050565b610d30846323b872dd60e01b858585604051602401610cce9392919061124e565b604051602081830303815290604052907bffffffffffffffffffffffffffffffffffffffffffffffffffffffff19166020820180517bffffffffffffffffffffffffffffffffffffffffffffffffffffffff8381831617835250505050610be6565b50505050565b6000808273ffffffffffffffffffffffffffffffffffffffff163b119050919050565b60608315610d6957829050610db9565b600083511115610d7c5782518084602001fd5b816040517f08c379a0000000000000000000000000000000000000000000000000000000008152600401610db09190611e2e565b60405180910390fd5b9392505050565b6060610dcf8484600085610dd8565b90509392505050565b606082471015610e1d576040517f08c379a0000000000000000000000000000000000000000000000000000000008152600401610e1490611ec2565b60405180910390fd5b610e2685610d36565b610e65576040517f08c379a0000000000000000000000000000000000000000000000000000000008152600401610e5c90611f2e565b60405180910390fd5b6000808673ffffffffffffffffffffffffffffffffffffffff168587604051610e8e9190611c43565b60006040518083038185875af1925050503d8060008114610ecb576040519150601f19603f3d011682016040523d82523d6000602084013e610ed0565b606091505b5091509150610ee0828286610d59565b92505050949350505050565b600080fd5b600080fd5b600073ffffffffffffffffffffffffffffffffffffffff82169050919050565b6000610f2182610ef6565b9050919050565b610f3181610f16565b8114610f3c57600080fd5b50565b600081359050610f4e81610f28565b92915050565b6000819050919050565b610f6781610f54565b8114610f7257600080fd5b50565b600081359050610f8481610f5e565b92915050565b60008060408385031215610fa157610fa0610eec565b5b6000610faf85828601610f3f565b9250506020610fc085828601610f75565b9150509250929050565b610fd381610f16565b82525050565b6000602082019050610fee6000830184610fca565b92915050565b6000610fff82610f16565b9050919050565b61100f81610ff4565b811461101a57600080fd5b50565b60008135905061102c81611006565b92915050565b600080fd5b60006080828403121561104d5761104c611032565b5b81905092915050565b600060c0828403121561106c5761106b611032565b5b81905092915050565b60008060006060848603121561108e5761108d610eec565b5b600061109c8682870161101d565b935050602084013567ffffffffffffffff8111156110bd576110bc610ef1565b5b6110c986828701611037565b925050604084013567ffffffffffffffff8111156110ea576110e9610ef1565b5b6110f686828701611056565b9150509250925092565b61110981610f54565b82525050565b60006020820190506111246000830184611100565b92915050565b6000819050919050565b600061114f61114a61114584610ef6565b61112a565b610ef6565b9050919050565b600061116182611134565b9050919050565b600061117382611156565b9050919050565b61118381611168565b82525050565b600060208201905061119e600083018461117a565b92915050565b600082825260208201905092915050565b7f4f6e6c79206f776e657200000000000000000000000000000000000000000000600082015250565b60006111eb600a836111a4565b91506111f6826111b5565b602082019050919050565b6000602082019050818103600083015261121a816111de565b9050919050565b60006020828403121561123757611236610eec565b5b600061124584828501610f3f565b91505092915050565b60006060820190506112636000830186610fca565b6112706020830185610fca565b61127d6040830184611100565b949350505050565b60008115159050919050565b61129a81611285565b81146112a557600080fd5b50565b6000815190506112b781611291565b92915050565b6000602082840312156112d3576112d2610eec565b5b60006112e1848285016112a8565b91505092915050565b600080fd5b600080fd5b600080fd5b60008083356001602003843603038112611316576113156112f4565b5b83810192508235915060208301925067ffffffffffffffff82111561133e5761133d6112ea565b5b602082023603831315611354576113536112ef565b5b509250929050565b600082825260208201905092915050565b6000819050919050565b61138081610f16565b82525050565b60006113928383611377565b60208301905092915050565b60006113ad6020840184610f3f565b905092915050565b6000602082019050919050565b60006113ce838561135c565b93506113d98261136d565b8060005b85811015611412576113ef828461139e565b6113f98882611386565b9750611404836113b5565b9250506001810190506113dd565b5085925050509392505050565b6000808335600160200384360303811261143c5761143b6112f4565b5b83810192508235915060208301925067ffffffffffffffff821115611464576114636112ea565b5b60208202360383131561147a576114796112ef565b5b509250929050565b600082825260208201905092915050565b6000819050919050565b600060ff82169050919050565b6114b38161149d565b82525050565b60006114c583836114aa565b60208301905092915050565b6114da8161149d565b81146114e557600080fd5b50565b6000813590506114f7816114d1565b92915050565b600061150c60208401846114e8565b905092915050565b6000602082019050919050565b600061152d8385611482565b935061153882611493565b8060005b858110156115715761154e82846114fd565b61155888826114b9565b975061156383611514565b92505060018101905061153c565b5085925050509392505050565b6000808335600160200384360303811261159b5761159a6112f4565b5b83810192508235915060208301925067ffffffffffffffff8211156115c3576115c26112ea565b5b6020820236038313156115d9576115d86112ef565b5b509250929050565b600082825260208201905092915050565b6000819050919050565b600082825260208201905092915050565b82818337600083830152505050565b6000601f19601f8301169050919050565b600061163983856115fc565b935061164683858461160d565b61164f8361161c565b840190509392505050565b600061166784848461162d565b90509392505050565b6000808335600160200384360303811261168d5761168c6112f4565b5b83810192508235915060208301925067ffffffffffffffff8211156116b5576116b46112ea565b5b6001820236038313156116cb576116ca6112ef565b5b509250929050565b6000602082019050919050565b60006116ec83856115e1565b9350836020840285016116fe846115f2565b8060005b878110156117445784840389526117198284611670565b61172486828461165a565b955061172f846116d3565b935060208b019a505050600181019050611702565b50829750879450505050509392505050565b60006080830161176960008401846112f9565b858303600087015261177c8382846113c2565b9250505061178d602084018461141f565b85830360208701526117a0838284611521565b925050506117b160408401846112f9565b85830360408701526117c48382846113c2565b925050506117d5606084018461157e565b85830360608701526117e88382846116e0565b925050508091505092915050565b60006118056020840184610f75565b905092915050565b61181681610f54565b82525050565b600060c0830161182f600084018461139e565b61183c6000860182611377565b5061184a602084018461139e565b6118576020860182611377565b5061186560408401846117f6565b611872604086018261180d565b5061188060608401846117f6565b61188d606086018261180d565b5061189b60808401846117f6565b6118a8608086018261180d565b506118b660a0840184611670565b85830360a08701526118c983828461162d565b925050508091505092915050565b600060608201905081810360008301526118f18186611756565b90508181036020830152611905818561181c565b9050611914604083018461117a565b949350505050565b60008151905061192b81610f5e565b92915050565b60006020828403121561194757611946610eec565b5b60006119558482850161191c565b91505092915050565b7f4e487b7100000000000000000000000000000000000000000000000000000000600052601160045260246000fd5b600061199882610f54565b91506119a383610f54565b92508282039050818111156119bb576119ba61195e565b5b92915050565b60006119cc82611156565b9050919050565b6119dc816119c1565b82525050565b60006060820190506119f760008301866119d3565b8181036020830152611a098185611756565b90508181036040830152611a1d818461181c565b9050949350505050565b600080fd5b600080fd5b600080fd5b60008083356001602003843603038112611a5357611a52611a27565b5b80840192508235915067ffffffffffffffff821115611a7557611a74611a2c565b5b602083019250600182023603831315611a9157611a90611a31565b5b509250929050565b6000611aa482610f54565b9150611aaf83610f54565b9250828202611abd81610f54565b91508282048414831517611ad457611ad361195e565b5b5092915050565b7f52657475726e20616d6f756e74206973206e6f7420656e6f7567680000000000600082015250565b6000611b11601b836111a4565b9150611b1c82611adb565b602082019050919050565b60006020820190508181036000830152611b4081611b04565b9050919050565b6000604082019050611b5c6000830185610fca565b611b696020830184611100565b9392505050565b600082825260208201905092915050565b6000611b8d8385611b70565b9350611b9a83858461160d565b611ba38361161c565b840190509392505050565b60006020820190508181036000830152611bc9818486611b81565b90509392505050565b600081519050919050565b600081905092915050565b60005b83811015611c06578082015181840152602081019050611beb565b60008484015250505050565b6000611c1d82611bd2565b611c278185611bdd565b9350611c37818560208601611be8565b80840191505092915050565b6000611c4f8284611c12565b915081905092915050565b7f5065726d6974206973206661696c656400000000000000000000000000000000600082015250565b6000611c906010836111a4565b9150611c9b82611c5a565b602082019050919050565b60006020820190508181036000830152611cbf81611c83565b9050919050565b7f416464726573733a2064656c65676174652063616c6c20746f206e6f6e2d636f60008201527f6e74726163740000000000000000000000000000000000000000000000000000602082015250565b6000611d226026836111a4565b9150611d2d82611cc6565b604082019050919050565b60006020820190508181036000830152611d5181611d15565b9050919050565b7f5361666545524332303a204552433230206f7065726174696f6e20646964206e60008201527f6f74207375636365656400000000000000000000000000000000000000000000602082015250565b6000611db4602a836111a4565b9150611dbf82611d58565b604082019050919050565b60006020820190508181036000830152611de381611da7565b9050919050565b600081519050919050565b6000611e0082611dea565b611e0a81856111a4565b9350611e1a818560208601611be8565b611e238161161c565b840191505092915050565b60006020820190508181036000830152611e488184611df5565b905092915050565b7f416464726573733a20696e73756666696369656e742062616c616e636520666f60008201527f722063616c6c0000000000000000000000000000000000000000000000000000602082015250565b6000611eac6026836111a4565b9150611eb782611e50565b604082019050919050565b60006020820190508181036000830152611edb81611e9f565b9050919050565b7f416464726573733a2063616c6c20746f206e6f6e2d636f6e7472616374000000600082015250565b6000611f18601d836111a4565b9150611f2382611ee2565b602082019050919050565b60006020820190508181036000830152611f4781611f0b565b905091905056fe416464726573733a206c6f772d6c6576656c2064656c65676174652063616c6c206661696c6564a26469706673582212200ef144cca4f9ef90d43c0eb0dd0990fddaa49f8843a0bb2f75bb6a50d065919464736f6c63430008180033",
  "linkReferences": {},
  "deployedLinkReferences": {}
}