{
  "_format": "hh-sol-artifact-1",
  "contractName": "Aggregator",
  "sourceName": "contracts/Aggregator.sol",
  "abi": [
    {
      "inputs": [
        {
          "internalType": "address",
          "name": "_factory",
          "type": "address"
        }
      ],
      "stateMutability": "nonpayable",
      "type": "constructor"
    },
    {
      "inputs": [],
      "name": "WETH",
      "outputs": [
        {
          "internalType": "address",
          "name": "",
          "type": "address"
        }
      ],
      "stateMutability": "view",
      "type": "function"
    },
    {
      "inputs": [],
      "name": "factory",
      "outputs": [
        {
          "internalType": "contract IDexHandlerFactory",
          "name": "",
          "type": "address"
        }
      ],
      "stateMutability": "view",
      "type": "function"
    },
    {
      "inputs": [
        {
          "internalType": "contract IAggregatorExecutor",
          "name": "executor",
          "type": "address"
        },
        {
          "components": [
            {
              "internalType": "address[]",
              "name": "routers",
              "type": "address[]"
            },
            {
              "internalType": "uint8[]",
              "name": "dexHandlerIds",
              "type": "uint8[]"
            },
            {
              "internalType": "address[]",
              "name": "tokenIn",
              "type": "address[]"
            },
            {
              "internalType": "bytes[]",
              "name": "data",
              "type": "bytes[]"
            }
          ],
          "internalType": "struct SwapMultiHop",
          "name": "params",
          "type": "tuple"
        },
        {
          "components": [
            {
              "internalType": "address",
              "name": "tokenIn",
              "type": "address"
            },
            {
              "internalType": "address",
              "name": "tokenOut",
              "type": "address"
            },
            {
              "internalType": "uint256",
              "name": "amountIn",
              "type": "uint256"
            },
            {
              "internalType": "uint256",
              "name": "minReturnAmount",
              "type": "uint256"
            },
            {
              "internalType": "uint256",
              "name": "flags",
              "type": "uint256"
            }
          ],
          "internalType": "struct SwapDescription",
          "name": "desc",
          "type": "tuple"
        }
      ],
      "name": "flexSwap",
      "outputs": [
        {
          "internalType": "uint256",
          "name": "amountOut",
          "type": "uint256"
        }
      ],
      "stateMutability": "nonpayable",
      "type": "function"
    },
    {
      "inputs": [],
      "name": "owner",
      "outputs": [
        {
          "internalType": "address",
          "name": "",
          "type": "address"
        }
      ],
      "stateMutability": "view",
      "type": "function"
    },
    {
      "inputs": [
        {
          "internalType": "contract IAggregatorExecutor",
          "name": "executor",
          "type": "address"
        },
        {
          "components": [
            {
              "internalType": "address[]",
              "name": "routers",
              "type": "address[]"
            },
            {
              "internalType": "uint8[]",
              "name": "dexHandlerIds",
              "type": "uint8[]"
            },
            {
              "internalType": "address[]",
              "name": "tokenIn",
              "type": "address[]"
            },
            {
              "internalType": "bytes[]",
              "name": "data",
              "type": "bytes[]"
            }
          ],
          "internalType": "struct SwapMultiHop",
          "name": "params",
          "type": "tuple"
        },
        {
          "components": [
            {
              "internalType": "address",
              "name": "tokenIn",
              "type": "address"
            },
            {
              "internalType": "address",
              "name": "tokenOut",
              "type": "address"
            },
            {
              "internalType": "uint256",
              "name": "amountIn",
              "type": "uint256"
            },
            {
              "internalType": "uint256",
              "name": "minReturnAmount",
              "type": "uint256"
            },
            {
              "internalType": "uint256",
              "name": "flags",
              "type": "uint256"
            }
          ],
          "internalType": "struct SwapDescription",
          "name": "desc",
          "type": "tuple"
        }
      ],
      "name": "swap",
      "outputs": [
        {
          "internalType": "uint256",
          "name": "amountOut",
          "type": "uint256"
        }
      ],
      "stateMutability": "nonpayable",
      "type": "function"
    },
    {
      "stateMutability": "payable",
      "type": "receive"
    }
  ],
  "bytecode": "0x60a06040523480156200001157600080fd5b506040516200215f3803806200215f83398181016040528101906200003791906200019b565b600073ffffffffffffffffffffffffffffffffffffffff168173ffffffffffffffffffffffffffffffffffffffff1603620000a9576040517f08c379a0000000000000000000000000000000000000000000000000000000008152600401620000a0906200022e565b60405180910390fd5b806000806101000a81548173ffffffffffffffffffffffffffffffffffffffff021916908373ffffffffffffffffffffffffffffffffffffffff16021790555033600160006101000a81548173ffffffffffffffffffffffffffffffffffffffff021916908373ffffffffffffffffffffffffffffffffffffffff1602179055505062000250565b600080fd5b600073ffffffffffffffffffffffffffffffffffffffff82169050919050565b6000620001638262000136565b9050919050565b620001758162000156565b81146200018157600080fd5b50565b60008151905062000195816200016a565b92915050565b600060208284031215620001b457620001b362000131565b5b6000620001c48482850162000184565b91505092915050565b600082825260208201905092915050565b7f496e76616c696420666163746f72792061646472657373000000000000000000600082015250565b600062000216601783620001cd565b91506200022382620001de565b602082019050919050565b60006020820190508181036000830152620002498162000207565b9050919050565b608051611ef36200026c60003960006105150152611ef36000f3fe60806040526004361061004e5760003560e01c8063890723ed1461005a5780638da5cb5b146100975780638ed8ac3a146100c2578063ad5c4648146100ff578063c45a01551461012a57610055565b3661005557005b600080fd5b34801561006657600080fd5b50610081600480360381019061007c9190610e66565b610155565b60405161008e9190610eee565b60405180910390f35b3480156100a357600080fd5b506100ac61021a565b6040516100b99190610f18565b60405180910390f35b3480156100ce57600080fd5b506100e960048036038101906100e49190610e66565b610240565b6040516100f69190610eee565b60405180910390f35b34801561010b57600080fd5b50610114610513565b6040516101219190610f18565b60405180910390f35b34801561013657600080fd5b5061013f610537565b60405161014c9190610f92565b60405180910390f35b6000806101fa638ed8ac3a60e01b868686604051602401610178939291906115e8565b604051602081830303815290604052907bffffffffffffffffffffffffffffffffffffffffffffffffffffffff19166020820180517bffffffffffffffffffffffffffffffffffffffffffffffffffffffff83818316178352505050503073ffffffffffffffffffffffffffffffffffffffff1661055b90919063ffffffff16565b905080806020019051810190610210919061163b565b9150509392505050565b600160009054906101000a900473ffffffffffffffffffffffffffffffffffffffff1681565b60008082608001359050600083600001602081019061025f9190611668565b905060008460200160208101906102769190611668565b90508173ffffffffffffffffffffffffffffffffffffffff166323b872dd333088604001356040518463ffffffff1660e01b81526004016102b993929190611695565b6020604051808303816000875af11580156102d8573d6000803e3d6000fd5b505050506040513d601f19601f820116820180604052508101906102fc9190611704565b5061032c8786604001358473ffffffffffffffffffffffffffffffffffffffff166105889092919063ffffffff16565b6000610357338473ffffffffffffffffffffffffffffffffffffffff166106fb90919063ffffffff16565b90506000811161039c576040517f08c379a00000000000000000000000000000000000000000000000000000000081526004016103939061178e565b60405180910390fd5b60006103c7338473ffffffffffffffffffffffffffffffffffffffff166106fb90919063ffffffff16565b90508873ffffffffffffffffffffffffffffffffffffffff1663391eb101898960008054906101000a900473ffffffffffffffffffffffffffffffffffffffff166040518463ffffffff1660e01b8152600401610426939291906117ae565b6020604051808303816000875af1158015610445573d6000803e3d6000fd5b505050506040513d601f19601f82011682018060405250810190610469919061163b565b95506000610496338673ffffffffffffffffffffffffffffffffffffffff166106fb90919063ffffffff16565b905060006104c3338673ffffffffffffffffffffffffffffffffffffffff166106fb90919063ffffffff16565b9050600082856104d3919061181b565b9050600084836104e3919061181b565b905080995061050382828d8036038101906104fe919061195b565b6107ad565b5050505050505050509392505050565b7f000000000000000000000000000000000000000000000000000000000000000081565b60008054906101000a900473ffffffffffffffffffffffffffffffffffffffff1681565b60606105808383604051806060016040528060278152602001611e9760279139610874565b905092915050565b61059183610941565b156105d1576040517f08c379a00000000000000000000000000000000000000000000000000000000081526004016105c8906119d4565b60405180910390fd5b6000810361060a576106058260008573ffffffffffffffffffffffffffffffffffffffff166109c39092919063ffffffff16565b6106f6565b60008373ffffffffffffffffffffffffffffffffffffffff1663dd62ed3e30856040518363ffffffff1660e01b81526004016106479291906119f4565b602060405180830381865afa158015610664573d6000803e3d6000fd5b505050506040513d601f19601f82011682018060405250810190610688919061163b565b9050818110156106f45760008111156106c8576106c78360008673ffffffffffffffffffffffffffffffffffffffff166109c39092919063ffffffff16565b5b6106f383838673ffffffffffffffffffffffffffffffffffffffff166109c39092919063ffffffff16565b5b505b505050565b600061070683610941565b1561072a578173ffffffffffffffffffffffffffffffffffffffff163190506107a7565b8273ffffffffffffffffffffffffffffffffffffffff166370a08231836040518263ffffffff1660e01b81526004016107639190610f18565b602060405180830381865afa158015610780573d6000803e3d6000fd5b505050506040513d601f19601f820116820180604052508101906107a4919061163b565b90505b92915050565b6107bc81608001516001610b12565b15610827578281606001516107d19190611a1d565b8160400151836107e19190611a1d565b1015610822576040517f08c379a000000000000000000000000000000000000000000000000000000000815260040161081990611aab565b60405180910390fd5b61086f565b806060015182101561086e576040517f08c379a000000000000000000000000000000000000000000000000000000000815260040161086590611aab565b60405180910390fd5b5b505050565b606061087f84610b22565b6108be576040517f08c379a00000000000000000000000000000000000000000000000000000000081526004016108b590611b3d565b60405180910390fd5b6000808573ffffffffffffffffffffffffffffffffffffffff16856040516108e69190611bce565b600060405180830381855af49150503d8060008114610921576040519150601f19603f3d011682016040523d82523d6000602084013e610926565b606091505b5091509150610936828286610b45565b925050509392505050565b60008073ffffffffffffffffffffffffffffffffffffffff168273ffffffffffffffffffffffffffffffffffffffff1614806109bc575073eeeeeeeeeeeeeeeeeeeeeeeeeeeeeeeeeeeeeeee73ffffffffffffffffffffffffffffffffffffffff168273ffffffffffffffffffffffffffffffffffffffff16145b9050919050565b6000811480610a4d575060008373ffffffffffffffffffffffffffffffffffffffff1663dd62ed3e30856040518363ffffffff1660e01b8152600401610a0a9291906119f4565b602060405180830381865afa158015610a27573d6000803e3d6000fd5b505050506040513d601f19601f82011682018060405250810190610a4b919061163b565b145b610a8c576040517f08c379a0000000000000000000000000000000000000000000000000000000008152600401610a8390611c57565b60405180910390fd5b610b0d8363095ea7b360e01b8484604051602401610aab929190611c77565b604051602081830303815290604052907bffffffffffffffffffffffffffffffffffffffffffffffffffffffff19166020820180517bffffffffffffffffffffffffffffffffffffffffffffffffffffffff8381831617835250505050610bac565b505050565b6000808284161415905092915050565b6000808273ffffffffffffffffffffffffffffffffffffffff163b119050919050565b60608315610b5557829050610ba5565b600083511115610b685782518084602001fd5b816040517f08c379a0000000000000000000000000000000000000000000000000000000008152600401610b9c9190611ce4565b60405180910390fd5b9392505050565b6000610c0e826040518060400160405280602081526020017f5361666545524332303a206c6f772d6c6576656c2063616c6c206661696c65648152508573ffffffffffffffffffffffffffffffffffffffff16610c739092919063ffffffff16565b9050600081511115610c6e5780806020019051810190610c2e9190611704565b610c6d576040517f08c379a0000000000000000000000000000000000000000000000000000000008152600401610c6490611d78565b60405180910390fd5b5b505050565b6060610c828484600085610c8b565b90509392505050565b606082471015610cd0576040517f08c379a0000000000000000000000000000000000000000000000000000000008152600401610cc790611e0a565b60405180910390fd5b610cd985610b22565b610d18576040517f08c379a0000000000000000000000000000000000000000000000000000000008152600401610d0f90611e76565b60405180910390fd5b6000808673ffffffffffffffffffffffffffffffffffffffff168587604051610d419190611bce565b60006040518083038185875af1925050503d8060008114610d7e576040519150601f19603f3d011682016040523d82523d6000602084013e610d83565b606091505b5091509150610d93828286610b45565b92505050949350505050565b6000604051905090565b600080fd5b600080fd5b600073ffffffffffffffffffffffffffffffffffffffff82169050919050565b6000610dde82610db3565b9050919050565b6000610df082610dd3565b9050919050565b610e0081610de5565b8114610e0b57600080fd5b50565b600081359050610e1d81610df7565b92915050565b600080fd5b600060808284031215610e3e57610e3d610e23565b5b81905092915050565b600060a08284031215610e5d57610e5c610e23565b5b81905092915050565b600080600060e08486031215610e7f57610e7e610da9565b5b6000610e8d86828701610e0e565b935050602084013567ffffffffffffffff811115610eae57610ead610dae565b5b610eba86828701610e28565b9250506040610ecb86828701610e47565b9150509250925092565b6000819050919050565b610ee881610ed5565b82525050565b6000602082019050610f036000830184610edf565b92915050565b610f1281610dd3565b82525050565b6000602082019050610f2d6000830184610f09565b92915050565b6000819050919050565b6000610f58610f53610f4e84610db3565b610f33565b610db3565b9050919050565b6000610f6a82610f3d565b9050919050565b6000610f7c82610f5f565b9050919050565b610f8c81610f71565b82525050565b6000602082019050610fa76000830184610f83565b92915050565b6000610fb882610f5f565b9050919050565b610fc881610fad565b82525050565b600080fd5b600080fd5b600080fd5b60008083356001602003843603038112610ffa57610ff9610fd8565b5b83810192508235915060208301925067ffffffffffffffff82111561102257611021610fce565b5b60208202360383131561103857611037610fd3565b5b509250929050565b600082825260208201905092915050565b6000819050919050565b61106481610dd3565b82525050565b6000611076838361105b565b60208301905092915050565b61108b81610dd3565b811461109657600080fd5b50565b6000813590506110a881611082565b92915050565b60006110bd6020840184611099565b905092915050565b6000602082019050919050565b60006110de8385611040565b93506110e982611051565b8060005b85811015611122576110ff82846110ae565b611109888261106a565b9750611114836110c5565b9250506001810190506110ed565b5085925050509392505050565b6000808335600160200384360303811261114c5761114b610fd8565b5b83810192508235915060208301925067ffffffffffffffff82111561117457611173610fce565b5b60208202360383131561118a57611189610fd3565b5b509250929050565b600082825260208201905092915050565b6000819050919050565b600060ff82169050919050565b6111c3816111ad565b82525050565b60006111d583836111ba565b60208301905092915050565b6111ea816111ad565b81146111f557600080fd5b50565b600081359050611207816111e1565b92915050565b600061121c60208401846111f8565b905092915050565b6000602082019050919050565b600061123d8385611192565b9350611248826111a3565b8060005b858110156112815761125e828461120d565b61126888826111c9565b975061127383611224565b92505060018101905061124c565b5085925050509392505050565b600080833560016020038436030381126112ab576112aa610fd8565b5b83810192508235915060208301925067ffffffffffffffff8211156112d3576112d2610fce565b5b6020820236038313156112e9576112e8610fd3565b5b509250929050565b600082825260208201905092915050565b6000819050919050565b600082825260208201905092915050565b82818337600083830152505050565b6000601f19601f8301169050919050565b6000611349838561130c565b935061135683858461131d565b61135f8361132c565b840190509392505050565b600061137784848461133d565b90509392505050565b6000808335600160200384360303811261139d5761139c610fd8565b5b83810192508235915060208301925067ffffffffffffffff8211156113c5576113c4610fce565b5b6001820236038313156113db576113da610fd3565b5b509250929050565b6000602082019050919050565b60006113fc83856112f1565b93508360208402850161140e84611302565b8060005b878110156114545784840389526114298284611380565b61143486828461136a565b955061143f846113e3565b935060208b019a505050600181019050611412565b50829750879450505050509392505050565b6000608083016114796000840184610fdd565b858303600087015261148c8382846110d2565b9250505061149d602084018461112f565b85830360208701526114b0838284611231565b925050506114c16040840184610fdd565b85830360408701526114d48382846110d2565b925050506114e5606084018461128e565b85830360608701526114f88382846113f0565b925050508091505092915050565b61150f81610ed5565b811461151a57600080fd5b50565b60008135905061152c81611506565b92915050565b6000611541602084018461151d565b905092915050565b61155281610ed5565b82525050565b60a0820161156960008301836110ae565b611576600085018261105b565b5061158460208301836110ae565b611591602085018261105b565b5061159f6040830183611532565b6115ac6040850182611549565b506115ba6060830183611532565b6115c76060850182611549565b506115d56080830183611532565b6115e26080850182611549565b50505050565b600060e0820190506115fd6000830186610fbf565b818103602083015261160f8185611466565b905061161e6040830184611558565b949350505050565b60008151905061163581611506565b92915050565b60006020828403121561165157611650610da9565b5b600061165f84828501611626565b91505092915050565b60006020828403121561167e5761167d610da9565b5b600061168c84828501611099565b91505092915050565b60006060820190506116aa6000830186610f09565b6116b76020830185610f09565b6116c46040830184610edf565b949350505050565b60008115159050919050565b6116e1816116cc565b81146116ec57600080fd5b50565b6000815190506116fe816116d8565b92915050565b60006020828403121561171a57611719610da9565b5b6000611728848285016116ef565b91505092915050565b600082825260208201905092915050565b7f4e6f20686967686572207468616e203000000000000000000000000000000000600082015250565b6000611778601083611731565b915061178382611742565b602082019050919050565b600060208201905081810360008301526117a78161176b565b9050919050565b600060e08201905081810360008301526117c88186611466565b90506117d76020830185611558565b6117e460c0830184610f83565b949350505050565b7f4e487b7100000000000000000000000000000000000000000000000000000000600052601160045260246000fd5b600061182682610ed5565b915061183183610ed5565b9250828203905081811115611849576118486117ec565b5b92915050565b600080fd5b7f4e487b7100000000000000000000000000000000000000000000000000000000600052604160045260246000fd5b61188c8261132c565b810181811067ffffffffffffffff821117156118ab576118aa611854565b5b80604052505050565b60006118be610d9f565b90506118ca8282611883565b919050565b600060a082840312156118e5576118e461184f565b5b6118ef60a06118b4565b905060006118ff84828501611099565b600083015250602061191384828501611099565b60208301525060406119278482850161151d565b604083015250606061193b8482850161151d565b606083015250608061194f8482850161151d565b60808301525092915050565b600060a0828403121561197157611970610da9565b5b600061197f848285016118cf565b91505092915050565b7f417070726f76652063616c6c6564206f6e204554480000000000000000000000600082015250565b60006119be601583611731565b91506119c982611988565b602082019050919050565b600060208201905081810360008301526119ed816119b1565b9050919050565b6000604082019050611a096000830185610f09565b611a166020830184610f09565b9392505050565b6000611a2882610ed5565b9150611a3383610ed5565b9250828202611a4181610ed5565b91508282048414831517611a5857611a576117ec565b5b5092915050565b7f52657475726e20616d6f756e74206973206e6f7420656e6f7567680000000000600082015250565b6000611a95601b83611731565b9150611aa082611a5f565b602082019050919050565b60006020820190508181036000830152611ac481611a88565b9050919050565b7f416464726573733a2064656c65676174652063616c6c20746f206e6f6e2d636f60008201527f6e74726163740000000000000000000000000000000000000000000000000000602082015250565b6000611b27602683611731565b9150611b3282611acb565b604082019050919050565b60006020820190508181036000830152611b5681611b1a565b9050919050565b600081519050919050565b600081905092915050565b60005b83811015611b91578082015181840152602081019050611b76565b60008484015250505050565b6000611ba882611b5d565b611bb28185611b68565b9350611bc2818560208601611b73565b80840191505092915050565b6000611bda8284611b9d565b915081905092915050565b7f5361666545524332303a20617070726f76652066726f6d206e6f6e2d7a65726f60008201527f20746f206e6f6e2d7a65726f20616c6c6f77616e636500000000000000000000602082015250565b6000611c41603683611731565b9150611c4c82611be5565b604082019050919050565b60006020820190508181036000830152611c7081611c34565b9050919050565b6000604082019050611c8c6000830185610f09565b611c996020830184610edf565b9392505050565b600081519050919050565b6000611cb682611ca0565b611cc08185611731565b9350611cd0818560208601611b73565b611cd98161132c565b840191505092915050565b60006020820190508181036000830152611cfe8184611cab565b905092915050565b7f5361666545524332303a204552433230206f7065726174696f6e20646964206e60008201527f6f74207375636365656400000000000000000000000000000000000000000000602082015250565b6000611d62602a83611731565b9150611d6d82611d06565b604082019050919050565b60006020820190508181036000830152611d9181611d55565b9050919050565b7f416464726573733a20696e73756666696369656e742062616c616e636520666f60008201527f722063616c6c0000000000000000000000000000000000000000000000000000602082015250565b6000611df4602683611731565b9150611dff82611d98565b604082019050919050565b60006020820190508181036000830152611e2381611de7565b9050919050565b7f416464726573733a2063616c6c20746f206e6f6e2d636f6e7472616374000000600082015250565b6000611e60601d83611731565b9150611e6b82611e2a565b602082019050919050565b60006020820190508181036000830152611e8f81611e53565b905091905056fe416464726573733a206c6f772d6c6576656c2064656c65676174652063616c6c206661696c6564a2646970667358221220548f75d9916d0d5200fdbec5e9b102a09b108e296b87e1e9efeb73696fc0611f64736f6c63430008180033",
  "linkReferences": {},
  "deployedLinkReferences": {}
}