{
  "_format": "hh-sol-artifact-1",
  "contractName": "Aggregator",
  "sourceName": "contracts/Aggregator.sol",
  "abi": [
    {
      "inputs": [
        {
          "internalType": "address",
          "name": "_factory",
          "type": "address"
        }
      ],
      "stateMutability": "nonpayable",
      "type": "constructor"
    },
    {
      "inputs": [],
      "name": "factory",
      "outputs": [
        {
          "internalType": "contract IDexHandlerFactory",
          "name": "",
          "type": "address"
        }
      ],
      "stateMutability": "view",
      "type": "function"
    },
    {
      "inputs": [
        {
          "components": [
            {
              "internalType": "address[]",
              "name": "routers",
              "type": "address[]"
            },
            {
              "internalType": "uint8[]",
              "name": "dexHandlerIds",
              "type": "uint8[]"
            },
            {
              "internalType": "address[]",
              "name": "tokenIn",
              "type": "address[]"
            },
            {
              "internalType": "uint256",
              "name": "amountIn",
              "type": "uint256"
            },
            {
              "internalType": "bytes[]",
              "name": "data",
              "type": "bytes[]"
            }
          ],
          "internalType": "struct SwapMultiHop",
          "name": "params",
          "type": "tuple"
        }
      ],
      "name": "swapMultiHop",
      "outputs": [
        {
          "internalType": "uint256",
          "name": "amountOut",
          "type": "uint256"
        }
      ],
      "stateMutability": "nonpayable",
      "type": "function"
    }
  ],
  "bytecode": "0x60806040523480156200001157600080fd5b5060405162000fc538038062000fc583398181016040528101906200003791906200015a565b600073ffffffffffffffffffffffffffffffffffffffff168173ffffffffffffffffffffffffffffffffffffffff1603620000a9576040517f08c379a0000000000000000000000000000000000000000000000000000000008152600401620000a090620001ed565b60405180910390fd5b806000806101000a81548173ffffffffffffffffffffffffffffffffffffffff021916908373ffffffffffffffffffffffffffffffffffffffff160217905550506200020f565b600080fd5b600073ffffffffffffffffffffffffffffffffffffffff82169050919050565b60006200012282620000f5565b9050919050565b620001348162000115565b81146200014057600080fd5b50565b600081519050620001548162000129565b92915050565b600060208284031215620001735762000172620000f0565b5b6000620001838482850162000143565b91505092915050565b600082825260208201905092915050565b7f496e76616c696420666163746f72792061646472657373000000000000000000600082015250565b6000620001d56017836200018c565b9150620001e2826200019d565b602082019050919050565b600060208201905081810360008301526200020881620001c6565b9050919050565b610da6806200021f6000396000f3fe608060405234801561001057600080fd5b50600436106100365760003560e01c8063c45a01551461003b578063d4a3f3c714610059575b600080fd5b610043610089565b6040516100509190610675565b60405180910390f35b610073600480360381019061006e91906106be565b6100ad565b6040516100809190610720565b60405180910390f35b60008054906101000a900473ffffffffffffffffffffffffffffffffffffffff1681565b6000808260600135036100f5576040517f08c379a00000000000000000000000000000000000000000000000000000000081526004016100ec90610798565b60405180910390fd5b60008083806040019061010891906107c7565b600081811061011a5761011961082a565b5b905060200201602081019061012f9190610897565b73ffffffffffffffffffffffffffffffffffffffff166323b872dd333087606001356040518463ffffffff1660e01b815260040161016f939291906108d3565b6020604051808303816000875af115801561018e573d6000803e3d6000fd5b505050506040513d601f19601f820116820180604052508101906101b29190610942565b5060005b8480600001906101c691906107c7565b90508110156105ee5760008580604001906101e191906107c7565b838181106101f2576101f161082a565b5b90506020020160208101906102079190610897565b905060008054906101000a900473ffffffffffffffffffffffffffffffffffffffff1673ffffffffffffffffffffffffffffffffffffffff16634fa29352878060200190610255919061096f565b858181106102665761026561082a565b5b905060200201602081019061027b9190610a0b565b6040518263ffffffff1660e01b81526004016102979190610a47565b602060405180830381865afa1580156102b4573d6000803e3d6000fd5b505050506040513d601f19601f820116820180604052508101906102d89190610a77565b93508073ffffffffffffffffffffffffffffffffffffffff1663095ea7b387806000019061030691906107c7565b858181106103175761031661082a565b5b905060200201602081019061032c9190610897565b88606001356040518363ffffffff1660e01b815260040161034e929190610aa4565b6020604051808303816000875af115801561036d573d6000803e3d6000fd5b505050506040513d601f19601f820116820180604052508101906103919190610942565b5060008680600001906103a491906107c7565b848181106103b5576103b461082a565b5b90506020020160208101906103ca9190610897565b8780608001906103da9190610acd565b858181106103eb576103ea61082a565b5b90506020028101906103fd9190610b30565b60405160200161040f93929190610bf1565b60405160208183030381529060405290506000808673ffffffffffffffffffffffffffffffffffffffff1689806000019061044a91906107c7565b8781811061045b5761045a61082a565b5b90506020020160208101906104709190610897565b8a80608001906104809190610acd565b888181106104915761049061082a565b5b90506020028101906104a39190610b30565b6040516024016104b593929190610bf1565b6040516020818303038152906040527f03f7c80f000000000000000000000000000000000000000000000000000000007bffffffffffffffffffffffffffffffffffffffffffffffffffffffff19166020820180517bffffffffffffffffffffffffffffffffffffffffffffffffffffffff838183161783525050505060405161053f9190610c94565b600060405180830381855af49150503d806000811461057a576040519150601f19603f3d011682016040523d82523d6000602084013e61057f565b606091505b5091509150816105c4576040517f08c379a00000000000000000000000000000000000000000000000000000000081526004016105bb90610cf7565b60405180910390fd5b808060200190518101906105d89190610d43565b97508795505050505080806001019150506101b6565b505050919050565b600073ffffffffffffffffffffffffffffffffffffffff82169050919050565b6000819050919050565b600061063b610636610631846105f6565b610616565b6105f6565b9050919050565b600061064d82610620565b9050919050565b600061065f82610642565b9050919050565b61066f81610654565b82525050565b600060208201905061068a6000830184610666565b92915050565b600080fd5b600080fd5b600080fd5b600060a082840312156106b5576106b461069a565b5b81905092915050565b6000602082840312156106d4576106d3610690565b5b600082013567ffffffffffffffff8111156106f2576106f1610695565b5b6106fe8482850161069f565b91505092915050565b6000819050919050565b61071a81610707565b82525050565b60006020820190506107356000830184610711565b92915050565b600082825260208201905092915050565b7f54686520616d6f756e7420666f722073776170206973207a65726f0000000000600082015250565b6000610782601b8361073b565b915061078d8261074c565b602082019050919050565b600060208201905081810360008301526107b181610775565b9050919050565b600080fd5b600080fd5b600080fd5b600080833560016020038436030381126107e4576107e36107b8565b5b80840192508235915067ffffffffffffffff821115610806576108056107bd565b5b602083019250602082023603831315610822576108216107c2565b5b509250929050565b7f4e487b7100000000000000000000000000000000000000000000000000000000600052603260045260246000fd5b6000610864826105f6565b9050919050565b61087481610859565b811461087f57600080fd5b50565b6000813590506108918161086b565b92915050565b6000602082840312156108ad576108ac610690565b5b60006108bb84828501610882565b91505092915050565b6108cd81610859565b82525050565b60006060820190506108e860008301866108c4565b6108f560208301856108c4565b6109026040830184610711565b949350505050565b60008115159050919050565b61091f8161090a565b811461092a57600080fd5b50565b60008151905061093c81610916565b92915050565b60006020828403121561095857610957610690565b5b60006109668482850161092d565b91505092915050565b6000808335600160200384360303811261098c5761098b6107b8565b5b80840192508235915067ffffffffffffffff8211156109ae576109ad6107bd565b5b6020830192506020820236038313156109ca576109c96107c2565b5b509250929050565b600060ff82169050919050565b6109e8816109d2565b81146109f357600080fd5b50565b600081359050610a05816109df565b92915050565b600060208284031215610a2157610a20610690565b5b6000610a2f848285016109f6565b91505092915050565b610a41816109d2565b82525050565b6000602082019050610a5c6000830184610a38565b92915050565b600081519050610a718161086b565b92915050565b600060208284031215610a8d57610a8c610690565b5b6000610a9b84828501610a62565b91505092915050565b6000604082019050610ab960008301856108c4565b610ac66020830184610711565b9392505050565b60008083356001602003843603038112610aea57610ae96107b8565b5b80840192508235915067ffffffffffffffff821115610b0c57610b0b6107bd565b5b602083019250602082023603831315610b2857610b276107c2565b5b509250929050565b60008083356001602003843603038112610b4d57610b4c6107b8565b5b80840192508235915067ffffffffffffffff821115610b6f57610b6e6107bd565b5b602083019250600182023603831315610b8b57610b8a6107c2565b5b509250929050565b600082825260208201905092915050565b82818337600083830152505050565b6000601f19601f8301169050919050565b6000610bd08385610b93565b9350610bdd838584610ba4565b610be683610bb3565b840190509392505050565b6000604082019050610c0660008301866108c4565b8181036020830152610c19818486610bc4565b9050949350505050565b600081519050919050565b600081905092915050565b60005b83811015610c57578082015181840152602081019050610c3c565b60008484015250505050565b6000610c6e82610c23565b610c788185610c2e565b9350610c88818560208601610c39565b80840191505092915050565b6000610ca08284610c63565b915081905092915050565b7f53776170206661696c6564000000000000000000000000000000000000000000600082015250565b6000610ce1600b8361073b565b9150610cec82610cab565b602082019050919050565b60006020820190508181036000830152610d1081610cd4565b9050919050565b610d2081610707565b8114610d2b57600080fd5b50565b600081519050610d3d81610d17565b92915050565b600060208284031215610d5957610d58610690565b5b6000610d6784828501610d2e565b9150509291505056fea2646970667358221220848b69541e862ceed60a7b51d29580dd2b9f489fa97c9d8f46ab07473f86d77664736f6c63430008180033",
  "linkReferences": {},
  "deployedLinkReferences": {}
}