{
  "_format": "hh-sol-artifact-1",
  "contractName": "Aggregator",
  "sourceName": "contracts/Aggregator.sol",
  "abi": [
    {
      "inputs": [
        {
          "internalType": "address",
          "name": "_factory",
          "type": "address"
        }
      ],
      "stateMutability": "nonpayable",
      "type": "constructor"
    },
    {
      "inputs": [
        {
          "internalType": "contract IAggregatorExecutor",
          "name": "executor",
          "type": "address"
        },
        {
          "components": [
            {
              "internalType": "address[]",
              "name": "routers",
              "type": "address[]"
            },
            {
              "internalType": "uint8[]",
              "name": "dexHandlerIds",
              "type": "uint8[]"
            },
            {
              "internalType": "address[]",
              "name": "tokenIn",
              "type": "address[]"
            },
            {
              "internalType": "uint256",
              "name": "amountIn",
              "type": "uint256"
            },
            {
              "internalType": "bytes[]",
              "name": "data",
              "type": "bytes[]"
            },
            {
              "internalType": "uint256",
              "name": "flags",
              "type": "uint256"
            }
          ],
          "internalType": "struct SwapMultiHop",
          "name": "params",
          "type": "tuple"
        }
      ],
      "name": "FlexSwap",
      "outputs": [
        {
          "internalType": "uint256",
          "name": "amountOut",
          "type": "uint256"
        }
      ],
      "stateMutability": "nonpayable",
      "type": "function"
    },
    {
      "inputs": [],
      "name": "WETH",
      "outputs": [
        {
          "internalType": "address",
          "name": "",
          "type": "address"
        }
      ],
      "stateMutability": "view",
      "type": "function"
    },
    {
      "inputs": [],
      "name": "factory",
      "outputs": [
        {
          "internalType": "contract IDexHandlerFactory",
          "name": "",
          "type": "address"
        }
      ],
      "stateMutability": "view",
      "type": "function"
    },
    {
      "inputs": [],
      "name": "owner",
      "outputs": [
        {
          "internalType": "address",
          "name": "",
          "type": "address"
        }
      ],
      "stateMutability": "view",
      "type": "function"
    },
    {
      "inputs": [
        {
          "internalType": "contract IAggregatorExecutor",
          "name": "executor",
          "type": "address"
        },
        {
          "components": [
            {
              "internalType": "address[]",
              "name": "routers",
              "type": "address[]"
            },
            {
              "internalType": "uint8[]",
              "name": "dexHandlerIds",
              "type": "uint8[]"
            },
            {
              "internalType": "address[]",
              "name": "tokenIn",
              "type": "address[]"
            },
            {
              "internalType": "uint256",
              "name": "amountIn",
              "type": "uint256"
            },
            {
              "internalType": "bytes[]",
              "name": "data",
              "type": "bytes[]"
            },
            {
              "internalType": "uint256",
              "name": "flags",
              "type": "uint256"
            }
          ],
          "internalType": "struct SwapMultiHop",
          "name": "params",
          "type": "tuple"
        }
      ],
      "name": "swap",
      "outputs": [
        {
          "internalType": "uint256",
          "name": "amountOut",
          "type": "uint256"
        }
      ],
      "stateMutability": "nonpayable",
      "type": "function"
    },
    {
      "stateMutability": "payable",
      "type": "receive"
    }
  ],
  "bytecode": "0x60a06040523480156200001157600080fd5b50604051620014153803806200141583398181016040528101906200003791906200019b565b600073ffffffffffffffffffffffffffffffffffffffff168173ffffffffffffffffffffffffffffffffffffffff1603620000a9576040517f08c379a0000000000000000000000000000000000000000000000000000000008152600401620000a0906200022e565b60405180910390fd5b806000806101000a81548173ffffffffffffffffffffffffffffffffffffffff021916908373ffffffffffffffffffffffffffffffffffffffff16021790555033600160006101000a81548173ffffffffffffffffffffffffffffffffffffffff021916908373ffffffffffffffffffffffffffffffffffffffff1602179055505062000250565b600080fd5b600073ffffffffffffffffffffffffffffffffffffffff82169050919050565b6000620001638262000136565b9050919050565b620001758162000156565b81146200018157600080fd5b50565b60008151905062000195816200016a565b92915050565b600060208284031215620001b457620001b362000131565b5b6000620001c48482850162000184565b91505092915050565b600082825260208201905092915050565b7f496e76616c696420666163746f72792061646472657373000000000000000000600082015250565b600062000216601783620001cd565b91506200022382620001de565b602082019050919050565b60006020820190508181036000830152620002498162000207565b9050919050565b6080516111a96200026c60003960006102d501526111a96000f3fe60806040526004361061004e5760003560e01c806319cd53201461005a5780638da5cb5b14610097578063ad5c4648146100c2578063bb8933fd146100ed578063c45a01551461012a57610055565b3661005557005b600080fd5b34801561006657600080fd5b50610081600480360381019061007c9190610736565b610155565b60405161008e91906107ab565b60405180910390f35b3480156100a357600080fd5b506100ac6102ad565b6040516100b991906107d5565b60405180910390f35b3480156100ce57600080fd5b506100d76102d3565b6040516100e491906107d5565b60405180910390f35b3480156100f957600080fd5b50610114600480360381019061010f9190610736565b6102f7565b60405161012191906107ab565b60405180910390f35b34801561013657600080fd5b5061013f6103bc565b60405161014c919061084f565b60405180910390f35b6000808260a00135905060008380604001906101719190610879565b8580604001906101819190610879565b9050818110610193576101926108dc565b5b90506020020160208101906101a89190610937565b905060006101d5338373ffffffffffffffffffffffffffffffffffffffff166103e090919063ffffffff16565b90508573ffffffffffffffffffffffffffffffffffffffff1663eb45605b8660008054906101000a900473ffffffffffffffffffffffffffffffffffffffff166040518363ffffffff1660e01b8152600401610232929190610ef8565b6020604051808303816000875af1158015610251573d6000803e3d6000fd5b505050506040513d601f19601f820116820180604052508101906102759190610f3d565b5060006102a1338473ffffffffffffffffffffffffffffffffffffffff166103e090919063ffffffff16565b90505050505092915050565b600160009054906101000a900473ffffffffffffffffffffffffffffffffffffffff1681565b7f000000000000000000000000000000000000000000000000000000000000000081565b60008061039a6319cd532060e01b8585604051602401610318929190610f8b565b604051602081830303815290604052907bffffffffffffffffffffffffffffffffffffffffffffffffffffffff19166020820180517bffffffffffffffffffffffffffffffffffffffffffffffffffffffff83818316178352505050503073ffffffffffffffffffffffffffffffffffffffff1661049290919063ffffffff16565b90506000818060200190518101906103b29190610f3d565b9050505092915050565b60008054906101000a900473ffffffffffffffffffffffffffffffffffffffff1681565b60006103eb836104bf565b1561040f578173ffffffffffffffffffffffffffffffffffffffff1631905061048c565b8273ffffffffffffffffffffffffffffffffffffffff166370a08231836040518263ffffffff1660e01b815260040161044891906107d5565b602060405180830381865afa158015610465573d6000803e3d6000fd5b505050506040513d601f19601f820116820180604052508101906104899190610f3d565b90505b92915050565b60606104b7838360405180606001604052806027815260200161114d60279139610541565b905092915050565b60008073ffffffffffffffffffffffffffffffffffffffff168273ffffffffffffffffffffffffffffffffffffffff16148061053a575073eeeeeeeeeeeeeeeeeeeeeeeeeeeeeeeeeeeeeeee73ffffffffffffffffffffffffffffffffffffffff168273ffffffffffffffffffffffffffffffffffffffff16145b9050919050565b606061054c8461060e565b61058b576040517f08c379a00000000000000000000000000000000000000000000000000000000081526004016105829061103e565b60405180910390fd5b6000808573ffffffffffffffffffffffffffffffffffffffff16856040516105b391906110cf565b600060405180830381855af49150503d80600081146105ee576040519150601f19603f3d011682016040523d82523d6000602084013e6105f3565b606091505b5091509150610603828286610631565b925050509392505050565b6000808273ffffffffffffffffffffffffffffffffffffffff163b119050919050565b6060831561064157829050610691565b6000835111156106545782518084602001fd5b816040517f08c379a0000000000000000000000000000000000000000000000000000000008152600401610688919061112a565b60405180910390fd5b9392505050565b600080fd5b600080fd5b600073ffffffffffffffffffffffffffffffffffffffff82169050919050565b60006106cd826106a2565b9050919050565b60006106df826106c2565b9050919050565b6106ef816106d4565b81146106fa57600080fd5b50565b60008135905061070c816106e6565b92915050565b600080fd5b600060c0828403121561072d5761072c610712565b5b81905092915050565b6000806040838503121561074d5761074c610698565b5b600061075b858286016106fd565b925050602083013567ffffffffffffffff81111561077c5761077b61069d565b5b61078885828601610717565b9150509250929050565b6000819050919050565b6107a581610792565b82525050565b60006020820190506107c0600083018461079c565b92915050565b6107cf816106c2565b82525050565b60006020820190506107ea60008301846107c6565b92915050565b6000819050919050565b600061081561081061080b846106a2565b6107f0565b6106a2565b9050919050565b6000610827826107fa565b9050919050565b60006108398261081c565b9050919050565b6108498161082e565b82525050565b60006020820190506108646000830184610840565b92915050565b600080fd5b600080fd5b600080fd5b600080833560016020038436030381126108965761089561086a565b5b80840192508235915067ffffffffffffffff8211156108b8576108b761086f565b5b6020830192506020820236038313156108d4576108d3610874565b5b509250929050565b7f4e487b7100000000000000000000000000000000000000000000000000000000600052603260045260246000fd5b610914816106c2565b811461091f57600080fd5b50565b6000813590506109318161090b565b92915050565b60006020828403121561094d5761094c610698565b5b600061095b84828501610922565b91505092915050565b600080fd5b600080fd5b600080fd5b600080833560016020038436030381126109905761098f61096e565b5b83810192508235915060208301925067ffffffffffffffff8211156109b8576109b7610964565b5b6020820236038313156109ce576109cd610969565b5b509250929050565b600082825260208201905092915050565b6000819050919050565b6109fa816106c2565b82525050565b6000610a0c83836109f1565b60208301905092915050565b6000610a276020840184610922565b905092915050565b6000602082019050919050565b6000610a4883856109d6565b9350610a53826109e7565b8060005b85811015610a8c57610a698284610a18565b610a738882610a00565b9750610a7e83610a2f565b925050600181019050610a57565b5085925050509392505050565b60008083356001602003843603038112610ab657610ab561096e565b5b83810192508235915060208301925067ffffffffffffffff821115610ade57610add610964565b5b602082023603831315610af457610af3610969565b5b509250929050565b600082825260208201905092915050565b6000819050919050565b600060ff82169050919050565b610b2d81610b17565b82525050565b6000610b3f8383610b24565b60208301905092915050565b610b5481610b17565b8114610b5f57600080fd5b50565b600081359050610b7181610b4b565b92915050565b6000610b866020840184610b62565b905092915050565b6000602082019050919050565b6000610ba78385610afc565b9350610bb282610b0d565b8060005b85811015610beb57610bc88284610b77565b610bd28882610b33565b9750610bdd83610b8e565b925050600181019050610bb6565b5085925050509392505050565b610c0181610792565b8114610c0c57600080fd5b50565b600081359050610c1e81610bf8565b92915050565b6000610c336020840184610c0f565b905092915050565b610c4481610792565b82525050565b60008083356001602003843603038112610c6757610c6661096e565b5b83810192508235915060208301925067ffffffffffffffff821115610c8f57610c8e610964565b5b602082023603831315610ca557610ca4610969565b5b509250929050565b600082825260208201905092915050565b6000819050919050565b600082825260208201905092915050565b82818337600083830152505050565b6000601f19601f8301169050919050565b6000610d058385610cc8565b9350610d12838584610cd9565b610d1b83610ce8565b840190509392505050565b6000610d33848484610cf9565b90509392505050565b60008083356001602003843603038112610d5957610d5861096e565b5b83810192508235915060208301925067ffffffffffffffff821115610d8157610d80610964565b5b600182023603831315610d9757610d96610969565b5b509250929050565b6000602082019050919050565b6000610db88385610cad565b935083602084028501610dca84610cbe565b8060005b87811015610e10578484038952610de58284610d3c565b610df0868284610d26565b9550610dfb84610d9f565b935060208b019a505050600181019050610dce565b50829750879450505050509392505050565b600060c08301610e356000840184610973565b8583036000870152610e48838284610a3c565b92505050610e596020840184610a99565b8583036020870152610e6c838284610b9b565b92505050610e7d6040840184610973565b8583036040870152610e90838284610a3c565b92505050610ea16060840184610c24565b610eae6060860182610c3b565b50610ebc6080840184610c4a565b8583036080870152610ecf838284610dac565b92505050610ee060a0840184610c24565b610eed60a0860182610c3b565b508091505092915050565b60006040820190508181036000830152610f128185610e22565b9050610f216020830184610840565b9392505050565b600081519050610f3781610bf8565b92915050565b600060208284031215610f5357610f52610698565b5b6000610f6184828501610f28565b91505092915050565b6000610f758261081c565b9050919050565b610f8581610f6a565b82525050565b6000604082019050610fa06000830185610f7c565b8181036020830152610fb28184610e22565b90509392505050565b600082825260208201905092915050565b7f416464726573733a2064656c65676174652063616c6c20746f206e6f6e2d636f60008201527f6e74726163740000000000000000000000000000000000000000000000000000602082015250565b6000611028602683610fbb565b915061103382610fcc565b604082019050919050565b600060208201905081810360008301526110578161101b565b9050919050565b600081519050919050565b600081905092915050565b60005b83811015611092578082015181840152602081019050611077565b60008484015250505050565b60006110a98261105e565b6110b38185611069565b93506110c3818560208601611074565b80840191505092915050565b60006110db828461109e565b915081905092915050565b600081519050919050565b60006110fc826110e6565b6111068185610fbb565b9350611116818560208601611074565b61111f81610ce8565b840191505092915050565b6000602082019050818103600083015261114481846110f1565b90509291505056fe416464726573733a206c6f772d6c6576656c2064656c65676174652063616c6c206661696c6564a2646970667358221220b428c728403fd0343fdce7723481decfd498483b49be752153b138199b447f6964736f6c63430008180033",
  "linkReferences": {},
  "deployedLinkReferences": {}
}