{
  "_format": "hh-sol-artifact-1",
  "contractName": "Aggregator",
  "sourceName": "contracts/Aggregator.sol",
  "abi": [
    {
      "inputs": [
        {
          "internalType": "address",
          "name": "_factory",
          "type": "address"
        }
      ],
      "stateMutability": "nonpayable",
      "type": "constructor"
    },
    {
      "inputs": [],
      "name": "WETH",
      "outputs": [
        {
          "internalType": "address",
          "name": "",
          "type": "address"
        }
      ],
      "stateMutability": "view",
      "type": "function"
    },
    {
      "inputs": [],
      "name": "factory",
      "outputs": [
        {
          "internalType": "contract IDexHandlerFactory",
          "name": "",
          "type": "address"
        }
      ],
      "stateMutability": "view",
      "type": "function"
    },
    {
      "inputs": [],
      "name": "owner",
      "outputs": [
        {
          "internalType": "address",
          "name": "",
          "type": "address"
        }
      ],
      "stateMutability": "view",
      "type": "function"
    },
    {
      "inputs": [
        {
          "components": [
            {
              "internalType": "address[]",
              "name": "routers",
              "type": "address[]"
            },
            {
              "internalType": "uint8[]",
              "name": "dexHandlerIds",
              "type": "uint8[]"
            },
            {
              "internalType": "address[]",
              "name": "tokenIn",
              "type": "address[]"
            },
            {
              "internalType": "uint256",
              "name": "amountIn",
              "type": "uint256"
            },
            {
              "internalType": "bytes[]",
              "name": "data",
              "type": "bytes[]"
            },
            {
              "internalType": "bytes",
              "name": "flags",
              "type": "bytes"
            }
          ],
          "internalType": "struct SwapMultiHop",
          "name": "params",
          "type": "tuple"
        }
      ],
      "name": "swapMultiHop",
      "outputs": [
        {
          "internalType": "uint256",
          "name": "amountOut",
          "type": "uint256"
        }
      ],
      "stateMutability": "nonpayable",
      "type": "function"
    },
    {
      "inputs": [
        {
          "components": [
            {
              "internalType": "address[]",
              "name": "routers",
              "type": "address[]"
            },
            {
              "internalType": "uint8[]",
              "name": "dexHandlerIds",
              "type": "uint8[]"
            },
            {
              "internalType": "address[]",
              "name": "tokenIn",
              "type": "address[]"
            },
            {
              "internalType": "uint256",
              "name": "amountIn",
              "type": "uint256"
            },
            {
              "internalType": "bytes[]",
              "name": "data",
              "type": "bytes[]"
            },
            {
              "internalType": "bytes",
              "name": "flags",
              "type": "bytes"
            }
          ],
          "internalType": "struct SwapMultiHop[]",
          "name": "params",
          "type": "tuple[]"
        }
      ],
      "name": "swapMultiRoute",
      "outputs": [
        {
          "internalType": "uint256",
          "name": "amountOut",
          "type": "uint256"
        }
      ],
      "stateMutability": "nonpayable",
      "type": "function"
    },
    {
      "stateMutability": "payable",
      "type": "receive"
    }
  ],
  "bytecode": "0x60a06040523480156200001157600080fd5b50604051620014493803806200144983398181016040528101906200003791906200019b565b600073ffffffffffffffffffffffffffffffffffffffff168173ffffffffffffffffffffffffffffffffffffffff1603620000a9576040517f08c379a0000000000000000000000000000000000000000000000000000000008152600401620000a0906200022e565b60405180910390fd5b806000806101000a81548173ffffffffffffffffffffffffffffffffffffffff021916908373ffffffffffffffffffffffffffffffffffffffff16021790555033600160006101000a81548173ffffffffffffffffffffffffffffffffffffffff021916908373ffffffffffffffffffffffffffffffffffffffff1602179055505062000250565b600080fd5b600073ffffffffffffffffffffffffffffffffffffffff82169050919050565b6000620001638262000136565b9050919050565b620001758162000156565b81146200018157600080fd5b50565b60008151905062000195816200016a565b92915050565b600060208284031215620001b457620001b362000131565b5b6000620001c48482850162000184565b91505092915050565b600082825260208201905092915050565b7f496e76616c696420666163746f72792061646472657373000000000000000000600082015250565b600062000216601783620001cd565b91506200022382620001de565b602082019050919050565b60006020820190508181036000830152620002498162000207565b9050919050565b6080516111dd6200026c600039600061062f01526111dd6000f3fe60806040526004361061004e5760003560e01c806321c76e9f1461005a578063396b3052146100975780638da5cb5b146100d4578063ad5c4648146100ff578063c45a01551461012a57610055565b3661005557005b600080fd5b34801561006657600080fd5b50610081600480360381019061007c9190610868565b610155565b60405161008e91906108ce565b60405180910390f35b3480156100a357600080fd5b506100be60048036038101906100b9919061090d565b6101b6565b6040516100cb91906108ce565b60405180910390f35b3480156100e057600080fd5b506100e9610607565b6040516100f69190610997565b60405180910390f35b34801561010b57600080fd5b5061011461062d565b6040516101219190610997565b60405180910390f35b34801561013657600080fd5b5061013f610651565b60405161014c9190610a11565b60405180910390f35b600080600090505b838390508110156101af5761019584848381811061017e5761017d610a2c565b5b90506020028101906101909190610a6a565b6101b6565b826101a09190610ac1565b9150808060010191505061015d565b5092915050565b6000808260600135036101fe576040517f08c379a00000000000000000000000000000000000000000000000000000000081526004016101f590610b52565b60405180910390fd5b6000808380604001906102119190610b72565b600081811061022357610222610a2c565b5b90506020020160208101906102389190610c01565b73ffffffffffffffffffffffffffffffffffffffff166323b872dd333087606001356040518463ffffffff1660e01b815260040161027893929190610c2e565b6020604051808303816000875af1158015610297573d6000803e3d6000fd5b505050506040513d601f19601f820116820180604052508101906102bb9190610c9d565b5060005b8480600001906102cf9190610b72565b90508160ff1610156105ff5760008580604001906102ed9190610b72565b8360ff1681811061030157610300610a2c565b5b90506020020160208101906103169190610c01565b905060008054906101000a900473ffffffffffffffffffffffffffffffffffffffff1673ffffffffffffffffffffffffffffffffffffffff16634fa293528780602001906103649190610cca565b8560ff1681811061037857610377610a2c565b5b905060200201602081019061038d9190610d66565b6040518263ffffffff1660e01b81526004016103a99190610da2565b602060405180830381865afa1580156103c6573d6000803e3d6000fd5b505050506040513d601f19601f820116820180604052508101906103ea9190610dd2565b93508073ffffffffffffffffffffffffffffffffffffffff1663095ea7b38780600001906104189190610b72565b8560ff1681811061042c5761042b610a2c565b5b90506020020160208101906104419190610c01565b88606001356040518363ffffffff1660e01b8152600401610463929190610dff565b6020604051808303816000875af1158015610482573d6000803e3d6000fd5b505050506040513d601f19601f820116820180604052508101906104a69190610c9d565b5060006105cf8780600001906104bc9190610b72565b8560ff168181106104d0576104cf610a2c565b5b90506020020160208101906104e59190610c01565b8880608001906104f59190610e28565b8660ff1681811061050957610508610a2c565b5b905060200281019061051b9190610e8b565b60405160240161052d93929190610f4c565b6040516020818303038152906040527f03f7c80f000000000000000000000000000000000000000000000000000000007bffffffffffffffffffffffffffffffffffffffffffffffffffffffff19166020820180517bffffffffffffffffffffffffffffffffffffffffffffffffffffffff83818316178352505050508673ffffffffffffffffffffffffffffffffffffffff1661067590919063ffffffff16565b9050808060200190518101906105e59190610faa565b9550859350505080806105f790610fd7565b9150506102bf565b505050919050565b600160009054906101000a900473ffffffffffffffffffffffffffffffffffffffff1681565b7f000000000000000000000000000000000000000000000000000000000000000081565b60008054906101000a900473ffffffffffffffffffffffffffffffffffffffff1681565b606061069a8383604051806060016040528060278152602001611181602791396106a2565b905092915050565b60606106ad8461076f565b6106ec576040517f08c379a00000000000000000000000000000000000000000000000000000000081526004016106e390611072565b60405180910390fd5b6000808573ffffffffffffffffffffffffffffffffffffffff16856040516107149190611103565b600060405180830381855af49150503d806000811461074f576040519150601f19603f3d011682016040523d82523d6000602084013e610754565b606091505b5091509150610764828286610792565b925050509392505050565b6000808273ffffffffffffffffffffffffffffffffffffffff163b119050919050565b606083156107a2578290506107f2565b6000835111156107b55782518084602001fd5b816040517f08c379a00000000000000000000000000000000000000000000000000000000081526004016107e9919061115e565b60405180910390fd5b9392505050565b600080fd5b600080fd5b600080fd5b600080fd5b600080fd5b60008083601f84011261082857610827610803565b5b8235905067ffffffffffffffff81111561084557610844610808565b5b6020830191508360208202830111156108615761086061080d565b5b9250929050565b6000806020838503121561087f5761087e6107f9565b5b600083013567ffffffffffffffff81111561089d5761089c6107fe565b5b6108a985828601610812565b92509250509250929050565b6000819050919050565b6108c8816108b5565b82525050565b60006020820190506108e360008301846108bf565b92915050565b600080fd5b600060c08284031215610904576109036108e9565b5b81905092915050565b600060208284031215610923576109226107f9565b5b600082013567ffffffffffffffff811115610941576109406107fe565b5b61094d848285016108ee565b91505092915050565b600073ffffffffffffffffffffffffffffffffffffffff82169050919050565b600061098182610956565b9050919050565b61099181610976565b82525050565b60006020820190506109ac6000830184610988565b92915050565b6000819050919050565b60006109d76109d26109cd84610956565b6109b2565b610956565b9050919050565b60006109e9826109bc565b9050919050565b60006109fb826109de565b9050919050565b610a0b816109f0565b82525050565b6000602082019050610a266000830184610a02565b92915050565b7f4e487b7100000000000000000000000000000000000000000000000000000000600052603260045260246000fd5b600080fd5b600080fd5b600080fd5b60008235600160c003833603038112610a8657610a85610a5b565b5b80830191505092915050565b7f4e487b7100000000000000000000000000000000000000000000000000000000600052601160045260246000fd5b6000610acc826108b5565b9150610ad7836108b5565b9250828201905080821115610aef57610aee610a92565b5b92915050565b600082825260208201905092915050565b7f54686520616d6f756e7420666f722073776170206973207a65726f0000000000600082015250565b6000610b3c601b83610af5565b9150610b4782610b06565b602082019050919050565b60006020820190508181036000830152610b6b81610b2f565b9050919050565b60008083356001602003843603038112610b8f57610b8e610a5b565b5b80840192508235915067ffffffffffffffff821115610bb157610bb0610a60565b5b602083019250602082023603831315610bcd57610bcc610a65565b5b509250929050565b610bde81610976565b8114610be957600080fd5b50565b600081359050610bfb81610bd5565b92915050565b600060208284031215610c1757610c166107f9565b5b6000610c2584828501610bec565b91505092915050565b6000606082019050610c436000830186610988565b610c506020830185610988565b610c5d60408301846108bf565b949350505050565b60008115159050919050565b610c7a81610c65565b8114610c8557600080fd5b50565b600081519050610c9781610c71565b92915050565b600060208284031215610cb357610cb26107f9565b5b6000610cc184828501610c88565b91505092915050565b60008083356001602003843603038112610ce757610ce6610a5b565b5b80840192508235915067ffffffffffffffff821115610d0957610d08610a60565b5b602083019250602082023603831315610d2557610d24610a65565b5b509250929050565b600060ff82169050919050565b610d4381610d2d565b8114610d4e57600080fd5b50565b600081359050610d6081610d3a565b92915050565b600060208284031215610d7c57610d7b6107f9565b5b6000610d8a84828501610d51565b91505092915050565b610d9c81610d2d565b82525050565b6000602082019050610db76000830184610d93565b92915050565b600081519050610dcc81610bd5565b92915050565b600060208284031215610de857610de76107f9565b5b6000610df684828501610dbd565b91505092915050565b6000604082019050610e146000830185610988565b610e2160208301846108bf565b9392505050565b60008083356001602003843603038112610e4557610e44610a5b565b5b80840192508235915067ffffffffffffffff821115610e6757610e66610a60565b5b602083019250602082023603831315610e8357610e82610a65565b5b509250929050565b60008083356001602003843603038112610ea857610ea7610a5b565b5b80840192508235915067ffffffffffffffff821115610eca57610ec9610a60565b5b602083019250600182023603831315610ee657610ee5610a65565b5b509250929050565b600082825260208201905092915050565b82818337600083830152505050565b6000601f19601f8301169050919050565b6000610f2b8385610eee565b9350610f38838584610eff565b610f4183610f0e565b840190509392505050565b6000604082019050610f616000830186610988565b8181036020830152610f74818486610f1f565b9050949350505050565b610f87816108b5565b8114610f9257600080fd5b50565b600081519050610fa481610f7e565b92915050565b600060208284031215610fc057610fbf6107f9565b5b6000610fce84828501610f95565b91505092915050565b6000610fe282610d2d565b915060ff8203610ff557610ff4610a92565b5b600182019050919050565b7f416464726573733a2064656c65676174652063616c6c20746f206e6f6e2d636f60008201527f6e74726163740000000000000000000000000000000000000000000000000000602082015250565b600061105c602683610af5565b915061106782611000565b604082019050919050565b6000602082019050818103600083015261108b8161104f565b9050919050565b600081519050919050565b600081905092915050565b60005b838110156110c65780820151818401526020810190506110ab565b60008484015250505050565b60006110dd82611092565b6110e7818561109d565b93506110f78185602086016110a8565b80840191505092915050565b600061110f82846110d2565b915081905092915050565b600081519050919050565b60006111308261111a565b61113a8185610af5565b935061114a8185602086016110a8565b61115381610f0e565b840191505092915050565b600060208201905081810360008301526111788184611125565b90509291505056fe416464726573733a206c6f772d6c6576656c2064656c65676174652063616c6c206661696c6564a2646970667358221220521243ff18f57ab7bea5ff00b7a0967c7ad384ae5bad67c21f2a82ac23cac86d64736f6c63430008180033",
  "linkReferences": {},
  "deployedLinkReferences": {}
}