{
  "_format": "hh-sol-artifact-1",
  "contractName": "Aggregator",
  "sourceName": "contracts/Aggregator.sol",
  "abi": [
    {
      "inputs": [
        {
          "internalType": "address[]",
          "name": "routers",
          "type": "address[]"
        },
        {
          "internalType": "address[]",
          "name": "dexHandlers",
          "type": "address[]"
        },
        {
          "internalType": "address[]",
          "name": "tokenIn",
          "type": "address[]"
        },
        {
          "internalType": "uint256",
          "name": "amountIn",
          "type": "uint256"
        },
        {
          "internalType": "bytes[]",
          "name": "data",
          "type": "bytes[]"
        }
      ],
      "name": "swapMultiHop",
      "outputs": [
        {
          "internalType": "uint256",
          "name": "amountOut",
          "type": "uint256"
        }
      ],
      "stateMutability": "nonpayable",
      "type": "function"
    }
  ],
  "bytecode": "0x608060405234801561001057600080fd5b50610ac5806100206000396000f3fe608060405234801561001057600080fd5b506004361061002b5760003560e01c80630f70f25114610030575b600080fd5b61004a60048036038101906100459190610568565b610060565b6040516100579190610673565b60405180910390f35b60008084036100a4576040517f08c379a000000000000000000000000000000000000000000000000000000000815260040161009b906106eb565b60405180910390fd5b858560008181106100b8576100b761070b565b5b90506020020160208101906100cd9190610798565b73ffffffffffffffffffffffffffffffffffffffff166323b872dd3330876040518463ffffffff1660e01b8152600401610109939291906107d4565b6020604051808303816000875af1158015610128573d6000803e3d6000fd5b505050506040513d601f19601f8201168201806040525081019061014c9190610843565b5060005b8a8a905081101561045f5760008787838181106101705761016f61070b565b5b90506020020160208101906101859190610798565b90508073ffffffffffffffffffffffffffffffffffffffff1663095ea7b38d8d858181106101b6576101b561070b565b5b90506020020160208101906101cb9190610798565b886040518363ffffffff1660e01b81526004016101e9929190610870565b6020604051808303816000875af1158015610208573d6000803e3d6000fd5b505050506040513d601f19601f8201168201806040525081019061022c9190610843565b5060008c8c848181106102425761024161070b565b5b90506020020160208101906102579190610798565b86868581811061026a5761026961070b565b5b905060200281019061027c91906108a8565b60405160200161028e93929190610969565b60405160208183030381529060405290506000808c8c868181106102b5576102b461070b565b5b90506020020160208101906102ca9190610798565b73ffffffffffffffffffffffffffffffffffffffff168f8f878181106102f3576102f261070b565b5b90506020020160208101906103089190610798565b89898881811061031b5761031a61070b565b5b905060200281019061032d91906108a8565b60405160240161033f93929190610969565b6040516020818303038152906040527f03f7c80f000000000000000000000000000000000000000000000000000000007bffffffffffffffffffffffffffffffffffffffffffffffffffffffff19166020820180517bffffffffffffffffffffffffffffffffffffffffffffffffffffffff83818316178352505050506040516103c99190610a0c565b600060405180830381855af49150503d8060008114610404576040519150601f19603f3d011682016040523d82523d6000602084013e610409565b606091505b50915091508161044e576040517f08c379a000000000000000000000000000000000000000000000000000000000815260040161044590610a6f565b60405180910390fd5b505050508080600101915050610150565b509998505050505050505050565b600080fd5b600080fd5b600080fd5b600080fd5b600080fd5b60008083601f84011261049c5761049b610477565b5b8235905067ffffffffffffffff8111156104b9576104b861047c565b5b6020830191508360208202830111156104d5576104d4610481565b5b9250929050565b6000819050919050565b6104ef816104dc565b81146104fa57600080fd5b50565b60008135905061050c816104e6565b92915050565b60008083601f84011261052857610527610477565b5b8235905067ffffffffffffffff8111156105455761054461047c565b5b60208301915083602082028301111561056157610560610481565b5b9250929050565b600080600080600080600080600060a08a8c03121561058a5761058961046d565b5b60008a013567ffffffffffffffff8111156105a8576105a7610472565b5b6105b48c828d01610486565b995099505060208a013567ffffffffffffffff8111156105d7576105d6610472565b5b6105e38c828d01610486565b975097505060408a013567ffffffffffffffff81111561060657610605610472565b5b6106128c828d01610486565b955095505060606106258c828d016104fd565b93505060808a013567ffffffffffffffff81111561064657610645610472565b5b6106528c828d01610512565b92509250509295985092959850929598565b61066d816104dc565b82525050565b60006020820190506106886000830184610664565b92915050565b600082825260208201905092915050565b7f54686520616d6f756e7420666f722073776170206973207a65726f0000000000600082015250565b60006106d5601b8361068e565b91506106e08261069f565b602082019050919050565b60006020820190508181036000830152610704816106c8565b9050919050565b7f4e487b7100000000000000000000000000000000000000000000000000000000600052603260045260246000fd5b600073ffffffffffffffffffffffffffffffffffffffff82169050919050565b60006107658261073a565b9050919050565b6107758161075a565b811461078057600080fd5b50565b6000813590506107928161076c565b92915050565b6000602082840312156107ae576107ad61046d565b5b60006107bc84828501610783565b91505092915050565b6107ce8161075a565b82525050565b60006060820190506107e960008301866107c5565b6107f660208301856107c5565b6108036040830184610664565b949350505050565b60008115159050919050565b6108208161080b565b811461082b57600080fd5b50565b60008151905061083d81610817565b92915050565b6000602082840312156108595761085861046d565b5b60006108678482850161082e565b91505092915050565b600060408201905061088560008301856107c5565b6108926020830184610664565b9392505050565b600080fd5b600080fd5b600080fd5b600080833560016020038436030381126108c5576108c4610899565b5b80840192508235915067ffffffffffffffff8211156108e7576108e661089e565b5b602083019250600182023603831315610903576109026108a3565b5b509250929050565b600082825260208201905092915050565b82818337600083830152505050565b6000601f19601f8301169050919050565b6000610948838561090b565b935061095583858461091c565b61095e8361092b565b840190509392505050565b600060408201905061097e60008301866107c5565b818103602083015261099181848661093c565b9050949350505050565b600081519050919050565b600081905092915050565b60005b838110156109cf5780820151818401526020810190506109b4565b60008484015250505050565b60006109e68261099b565b6109f081856109a6565b9350610a008185602086016109b1565b80840191505092915050565b6000610a1882846109db565b915081905092915050565b7f53776170206661696c6564000000000000000000000000000000000000000000600082015250565b6000610a59600b8361068e565b9150610a6482610a23565b602082019050919050565b60006020820190508181036000830152610a8881610a4c565b905091905056fea2646970667358221220edc6be726d3347b28a0692307d32900f62a03893395bd909969b4db9878e129764736f6c63430008180033",
  "linkReferences": {},
  "deployedLinkReferences": {}
}