{
  "_format": "hh-sol-artifact-1",
  "contractName": "FTBeacon",
  "sourceName": "contracts/FTBeacon.sol",
  "abi": [
    {
      "inputs": [
        {
          "internalType": "address",
          "name": "_implementation",
          "type": "address"
        },
        {
          "internalType": "address",
          "name": "_owner",
          "type": "address"
        }
      ],
      "stateMutability": "nonpayable",
      "type": "constructor"
    },
    {
      "inputs": [
        {
          "internalType": "address",
          "name": "implementation",
          "type": "address"
        }
      ],
      "name": "BeaconInvalidImplementation",
      "type": "error"
    },
    {
      "inputs": [
        {
          "internalType": "address",
          "name": "owner",
          "type": "address"
        }
      ],
      "name": "OwnableInvalidOwner",
      "type": "error"
    },
    {
      "inputs": [
        {
          "internalType": "address",
          "name": "account",
          "type": "address"
        }
      ],
      "name": "OwnableUnauthorizedAccount",
      "type": "error"
    },
    {
      "anonymous": false,
      "inputs": [
        {
          "indexed": true,
          "internalType": "address",
          "name": "previousOwner",
          "type": "address"
        },
        {
          "indexed": true,
          "internalType": "address",
          "name": "newOwner",
          "type": "address"
        }
      ],
      "name": "OwnershipTransferred",
      "type": "event"
    },
    {
      "anonymous": false,
      "inputs": [
        {
          "indexed": true,
          "internalType": "address",
          "name": "implementation",
          "type": "address"
        }
      ],
      "name": "Upgraded",
      "type": "event"
    },
    {
      "inputs": [],
      "name": "implementation",
      "outputs": [
        {
          "internalType": "address",
          "name": "",
          "type": "address"
        }
      ],
      "stateMutability": "view",
      "type": "function"
    },
    {
      "inputs": [],
      "name": "owner",
      "outputs": [
        {
          "internalType": "address",
          "name": "",
          "type": "address"
        }
      ],
      "stateMutability": "view",
      "type": "function"
    },
    {
      "inputs": [],
      "name": "renounceOwnership",
      "outputs": [],
      "stateMutability": "nonpayable",
      "type": "function"
    },
    {
      "inputs": [
        {
          "internalType": "address",
          "name": "newOwner",
          "type": "address"
        }
      ],
      "name": "transferOwnership",
      "outputs": [],
      "stateMutability": "nonpayable",
      "type": "function"
    },
    {
      "inputs": [
        {
          "internalType": "address",
          "name": "newImplementation",
          "type": "address"
        }
      ],
      "name": "upgradeTo",
      "outputs": [],
      "stateMutability": "nonpayable",
      "type": "function"
    }
  ],
  "bytecode": "0x60806040523480156200001157600080fd5b5060405162000a6038038062000a608339818101604052810190620000379190620003e5565b813380600073ffffffffffffffffffffffffffffffffffffffff168173ffffffffffffffffffffffffffffffffffffffff1603620000af5760006040517f1e4fbdf7000000000000000000000000000000000000000000000000000000008152600401620000a691906200043d565b60405180910390fd5b620000c081620001d160201b60201c565b50620000d2826200029560201b60201c565b5050600073ffffffffffffffffffffffffffffffffffffffff168273ffffffffffffffffffffffffffffffffffffffff160362000146576040517f08c379a00000000000000000000000000000000000000000000000000000000081526004016200013d90620004bb565b60405180910390fd5b600073ffffffffffffffffffffffffffffffffffffffff168173ffffffffffffffffffffffffffffffffffffffff1603620001b8576040517f08c379a0000000000000000000000000000000000000000000000000000000008152600401620001af906200052d565b60405180910390fd5b620001c981620001d160201b60201c565b50506200054f565b60008060009054906101000a900473ffffffffffffffffffffffffffffffffffffffff169050816000806101000a81548173ffffffffffffffffffffffffffffffffffffffff021916908373ffffffffffffffffffffffffffffffffffffffff1602179055508173ffffffffffffffffffffffffffffffffffffffff168173ffffffffffffffffffffffffffffffffffffffff167f8be0079c531659141344cd1fd0a4f28419497f9722a3daafe3b4186f6b6457e060405160405180910390a35050565b60008173ffffffffffffffffffffffffffffffffffffffff163b03620002f457806040517f847ac564000000000000000000000000000000000000000000000000000000008152600401620002eb91906200043d565b60405180910390fd5b80600160006101000a81548173ffffffffffffffffffffffffffffffffffffffff021916908373ffffffffffffffffffffffffffffffffffffffff1602179055508073ffffffffffffffffffffffffffffffffffffffff167fbc7cd75a20ee27fd9adebab32041f755214dbc6bffa90cc0225b39da2e5c2d3b60405160405180910390a250565b600080fd5b600073ffffffffffffffffffffffffffffffffffffffff82169050919050565b6000620003ad8262000380565b9050919050565b620003bf81620003a0565b8114620003cb57600080fd5b50565b600081519050620003df81620003b4565b92915050565b60008060408385031215620003ff57620003fe6200037b565b5b60006200040f85828601620003ce565b92505060206200042285828601620003ce565b9150509250929050565b6200043781620003a0565b82525050565b60006020820190506200045460008301846200042c565b92915050565b600082825260208201905092915050565b7f696d706c656d656e746174696f6e2069732061646472657373207a657a6f0000600082015250565b6000620004a3601e836200045a565b9150620004b0826200046b565b602082019050919050565b60006020820190508181036000830152620004d68162000494565b9050919050565b7f6f776e65722069732061646472657373207a65726f0000000000000000000000600082015250565b6000620005156015836200045a565b91506200052282620004dd565b602082019050919050565b60006020820190508181036000830152620005488162000506565b9050919050565b610501806200055f6000396000f3fe608060405234801561001057600080fd5b50600436106100575760003560e01c80633659cfe61461005c5780635c60da1b14610078578063715018a6146100965780638da5cb5b146100a0578063f2fde38b146100be575b600080fd5b61007660048036038101906100719190610474565b6100da565b005b6100806100ee565b60405161008d91906104b0565b60405180910390f35b61009e610118565b005b6100a861012c565b6040516100b591906104b0565b60405180910390f35b6100d860048036038101906100d39190610474565b610155565b005b6100e26101db565b6100eb81610262565b50565b6000600160009054906101000a900473ffffffffffffffffffffffffffffffffffffffff16905090565b6101206101db565b61012a6000610345565b565b60008060009054906101000a900473ffffffffffffffffffffffffffffffffffffffff16905090565b61015d6101db565b600073ffffffffffffffffffffffffffffffffffffffff168173ffffffffffffffffffffffffffffffffffffffff16036101cf5760006040517f1e4fbdf70000000000000000000000000000000000000000000000000000000081526004016101c691906104b0565b60405180910390fd5b6101d881610345565b50565b6101e3610409565b73ffffffffffffffffffffffffffffffffffffffff1661020161012c565b73ffffffffffffffffffffffffffffffffffffffff161461026057610224610409565b6040517f118cdaa700000000000000000000000000000000000000000000000000000000815260040161025791906104b0565b60405180910390fd5b565b60008173ffffffffffffffffffffffffffffffffffffffff163b036102be57806040517f847ac5640000000000000000000000000000000000000000000000000000000081526004016102b591906104b0565b60405180910390fd5b80600160006101000a81548173ffffffffffffffffffffffffffffffffffffffff021916908373ffffffffffffffffffffffffffffffffffffffff1602179055508073ffffffffffffffffffffffffffffffffffffffff167fbc7cd75a20ee27fd9adebab32041f755214dbc6bffa90cc0225b39da2e5c2d3b60405160405180910390a250565b60008060009054906101000a900473ffffffffffffffffffffffffffffffffffffffff169050816000806101000a81548173ffffffffffffffffffffffffffffffffffffffff021916908373ffffffffffffffffffffffffffffffffffffffff1602179055508173ffffffffffffffffffffffffffffffffffffffff168173ffffffffffffffffffffffffffffffffffffffff167f8be0079c531659141344cd1fd0a4f28419497f9722a3daafe3b4186f6b6457e060405160405180910390a35050565b600033905090565b600080fd5b600073ffffffffffffffffffffffffffffffffffffffff82169050919050565b600061044182610416565b9050919050565b61045181610436565b811461045c57600080fd5b50565b60008135905061046e81610448565b92915050565b60006020828403121561048a57610489610411565b5b60006104988482850161045f565b91505092915050565b6104aa81610436565b82525050565b60006020820190506104c560008301846104a1565b9291505056fea2646970667358221220459e2c1fdea4e06efc778f191ffe0988953972b63a9e2e93d8968d8587259dbd64736f6c63430008180033",
  "linkReferences": {},
  "deployedLinkReferences": {}
}