{
  "_format": "hh-sol-artifact-1",
  "contractName": "DexHandlerFactory",
  "sourceName": "contracts/DexHandlerFactory.sol",
  "abi": [
    {
      "inputs": [],
      "stateMutability": "nonpayable",
      "type": "constructor"
    },
    {
      "inputs": [
        {
          "internalType": "uint8",
          "name": "",
          "type": "uint8"
        }
      ],
      "name": "dexHandlers",
      "outputs": [
        {
          "internalType": "address",
          "name": "",
          "type": "address"
        }
      ],
      "stateMutability": "view",
      "type": "function"
    },
    {
      "inputs": [],
      "name": "id",
      "outputs": [
        {
          "internalType": "uint8",
          "name": "",
          "type": "uint8"
        }
      ],
      "stateMutability": "view",
      "type": "function"
    },
    {
      "inputs": [],
      "name": "owner",
      "outputs": [
        {
          "internalType": "address",
          "name": "",
          "type": "address"
        }
      ],
      "stateMutability": "view",
      "type": "function"
    },
    {
      "inputs": [
        {
          "internalType": "address",
          "name": "dexHandler",
          "type": "address"
        }
      ],
      "name": "setDexHandler",
      "outputs": [
        {
          "internalType": "uint8",
          "name": "",
          "type": "uint8"
        }
      ],
      "stateMutability": "nonpayable",
      "type": "function"
    }
  ],
  "bytecode": "0x608060405234801561001057600080fd5b5033600160006101000a81548173ffffffffffffffffffffffffffffffffffffffff021916908373ffffffffffffffffffffffffffffffffffffffff1602179055506104e3806100616000396000f3fe608060405234801561001057600080fd5b506004361061004c5760003560e01c80634fa29352146100515780638da5cb5b14610081578063af640d0f1461009f578063b6b2a82f146100bd575b600080fd5b61006b600480360381019061006691906102cc565b6100ed565b604051610078919061033a565b60405180910390f35b610089610120565b604051610096919061033a565b60405180910390f35b6100a7610146565b6040516100b49190610364565b60405180910390f35b6100d760048036038101906100d291906103ab565b610159565b6040516100e49190610364565b60405180910390f35b60006020528060005260406000206000915054906101000a900473ffffffffffffffffffffffffffffffffffffffff1681565b600160009054906101000a900473ffffffffffffffffffffffffffffffffffffffff1681565b600160149054906101000a900460ff1681565b6000600160009054906101000a900473ffffffffffffffffffffffffffffffffffffffff1673ffffffffffffffffffffffffffffffffffffffff163373ffffffffffffffffffffffffffffffffffffffff16146101eb576040517f08c379a00000000000000000000000000000000000000000000000000000000081526004016101e290610435565b60405180910390fd5b81600080600160149054906101000a900460ff1660ff1660ff16815260200190815260200160002060006101000a81548173ffffffffffffffffffffffffffffffffffffffff021916908373ffffffffffffffffffffffffffffffffffffffff1602179055506001601481819054906101000a900460ff168092919061027090610484565b91906101000a81548160ff021916908360ff16021790555050919050565b600080fd5b600060ff82169050919050565b6102a981610293565b81146102b457600080fd5b50565b6000813590506102c6816102a0565b92915050565b6000602082840312156102e2576102e161028e565b5b60006102f0848285016102b7565b91505092915050565b600073ffffffffffffffffffffffffffffffffffffffff82169050919050565b6000610324826102f9565b9050919050565b61033481610319565b82525050565b600060208201905061034f600083018461032b565b92915050565b61035e81610293565b82525050565b60006020820190506103796000830184610355565b92915050565b61038881610319565b811461039357600080fd5b50565b6000813590506103a58161037f565b92915050565b6000602082840312156103c1576103c061028e565b5b60006103cf84828501610396565b91505092915050565b600082825260208201905092915050565b7f4f6e6c79206f776e657200000000000000000000000000000000000000000000600082015250565b600061041f600a836103d8565b915061042a826103e9565b602082019050919050565b6000602082019050818103600083015261044e81610412565b9050919050565b7f4e487b7100000000000000000000000000000000000000000000000000000000600052601160045260246000fd5b600061048f82610293565b915060ff82036104a2576104a1610455565b5b60018201905091905056fea2646970667358221220c8a504dbf31ec05f05df5190531b0e9825ef091b48be1cb7ed0f15cb48c1b37364736f6c63430008180033",
  "linkReferences": {},
  "deployedLinkReferences": {}
}