{
  "_format": "hh-sol-artifact-1",
  "contractName": "DexHandlerFactory",
  "sourceName": "contracts/DexHandlerFactory.sol",
  "abi": [
    {
      "inputs": [],
      "stateMutability": "nonpayable",
      "type": "constructor"
    },
    {
      "anonymous": false,
      "inputs": [
        {
          "indexed": true,
          "internalType": "uint8",
          "name": "id",
          "type": "uint8"
        },
        {
          "indexed": true,
          "internalType": "address",
          "name": "handler",
          "type": "address"
        }
      ],
      "name": "HandlerRemoved",
      "type": "event"
    },
    {
      "anonymous": false,
      "inputs": [
        {
          "indexed": true,
          "internalType": "uint8",
          "name": "id",
          "type": "uint8"
        },
        {
          "indexed": true,
          "internalType": "address",
          "name": "handler",
          "type": "address"
        }
      ],
      "name": "HandlersAdded",
      "type": "event"
    },
    {
      "inputs": [
        {
          "internalType": "uint8",
          "name": "id",
          "type": "uint8"
        }
      ],
      "name": "dexHandlers",
      "outputs": [
        {
          "internalType": "address",
          "name": "",
          "type": "address"
        }
      ],
      "stateMutability": "view",
      "type": "function"
    },
    {
      "inputs": [],
      "name": "owner",
      "outputs": [
        {
          "internalType": "address",
          "name": "",
          "type": "address"
        }
      ],
      "stateMutability": "view",
      "type": "function"
    },
    {
      "inputs": [
        {
          "internalType": "uint8",
          "name": "id",
          "type": "uint8"
        }
      ],
      "name": "removeHandler",
      "outputs": [],
      "stateMutability": "nonpayable",
      "type": "function"
    },
    {
      "inputs": [
        {
          "internalType": "address",
          "name": "dexHandler",
          "type": "address"
        }
      ],
      "name": "setDexHandler",
      "outputs": [
        {
          "internalType": "uint8",
          "name": "",
          "type": "uint8"
        }
      ],
      "stateMutability": "nonpayable",
      "type": "function"
    }
  ],
  "bytecode": "0x608060405234801561001057600080fd5b5033600260006101000a81548173ffffffffffffffffffffffffffffffffffffffff021916908373ffffffffffffffffffffffffffffffffffffffff160217905550610a1c806100616000396000f3fe608060405234801561001057600080fd5b506004361061004c5760003560e01c80634fa29352146100515780635b32ba42146100815780638da5cb5b1461009d578063b6b2a82f146100bb575b600080fd5b61006b600480360381019061006691906106ba565b6100eb565b6040516100789190610728565b60405180910390f35b61009b600480360381019061009691906106ba565b610159565b005b6100a5610264565b6040516100b29190610728565b60405180910390f35b6100d560048036038101906100d0919061076f565b61028a565b6040516100e291906107ab565b60405180910390f35b60006100f7600061040a565b8260ff161061013b576040517f08c379a000000000000000000000000000000000000000000000000000000000815260040161013290610823565b60405180910390fd5b6101528260ff16600061041f90919063ffffffff16565b9050919050565b600260009054906101000a900473ffffffffffffffffffffffffffffffffffffffff1673ffffffffffffffffffffffffffffffffffffffff163373ffffffffffffffffffffffffffffffffffffffff16146101e9576040517f08c379a00000000000000000000000000000000000000000000000000000000081526004016101e09061088f565b60405180910390fd5b60006102028260ff16600061041f90919063ffffffff16565b905061021881600061043990919063ffffffff16565b508073ffffffffffffffffffffffffffffffffffffffff168260ff167f28d95efabc45a3315f08ed09d504ec4933e4a71316c599ec180c5f7651138bdc60405160405180910390a35050565b600260009054906101000a900473ffffffffffffffffffffffffffffffffffffffff1681565b6000600260009054906101000a900473ffffffffffffffffffffffffffffffffffffffff1673ffffffffffffffffffffffffffffffffffffffff163373ffffffffffffffffffffffffffffffffffffffff161461031c576040517f08c379a00000000000000000000000000000000000000000000000000000000081526004016103139061088f565b60405180910390fd5b600073ffffffffffffffffffffffffffffffffffffffff168273ffffffffffffffffffffffffffffffffffffffff160361038b576040517f08c379a0000000000000000000000000000000000000000000000000000000008152600401610382906108fb565b60405180910390fd5b61039f82600061046990919063ffffffff16565b50600060016103ae600061040a565b6103b89190610954565b90508273ffffffffffffffffffffffffffffffffffffffff168160ff167f70d1442e6a0dc6925c375e74b8e861eed8c86691095fcafb2b06fe445685353060405160405180910390a380915050919050565b600061041882600001610499565b9050919050565b600061042e83600001836104aa565b60001c905092915050565b6000610461836000018373ffffffffffffffffffffffffffffffffffffffff1660001b6104d5565b905092915050565b6000610491836000018373ffffffffffffffffffffffffffffffffffffffff1660001b6105e9565b905092915050565b600081600001805490509050919050565b60008260000182815481106104c2576104c1610988565b5b9060005260206000200154905092915050565b600080836001016000848152602001908152602001600020549050600081146105dd5760006001826105079190610954565b905060006001866000018054905061051f9190610954565b905080821461058e5760008660000182815481106105405761053f610988565b5b906000526020600020015490508087600001848154811061056457610563610988565b5b90600052602060002001819055508387600101600083815260200190815260200160002081905550505b856000018054806105a2576105a16109b7565b5b6001900381819060005260206000200160009055905585600101600086815260200190815260200160002060009055600193505050506105e3565b60009150505b92915050565b60006105f58383610659565b61064e578260000182908060018154018082558091505060019003906000526020600020016000909190919091505582600001805490508360010160008481526020019081526020016000208190555060019050610653565b600090505b92915050565b600080836001016000848152602001908152602001600020541415905092915050565b600080fd5b600060ff82169050919050565b61069781610681565b81146106a257600080fd5b50565b6000813590506106b48161068e565b92915050565b6000602082840312156106d0576106cf61067c565b5b60006106de848285016106a5565b91505092915050565b600073ffffffffffffffffffffffffffffffffffffffff82169050919050565b6000610712826106e7565b9050919050565b61072281610707565b82525050565b600060208201905061073d6000830184610719565b92915050565b61074c81610707565b811461075757600080fd5b50565b60008135905061076981610743565b92915050565b6000602082840312156107855761078461067c565b5b60006107938482850161075a565b91505092915050565b6107a581610681565b82525050565b60006020820190506107c0600083018461079c565b92915050565b600082825260208201905092915050565b7f496e76616c69642068616e646c65722049440000000000000000000000000000600082015250565b600061080d6012836107c6565b9150610818826107d7565b602082019050919050565b6000602082019050818103600083015261083c81610800565b9050919050565b7f4f6e6c79206f776e657200000000000000000000000000000000000000000000600082015250565b6000610879600a836107c6565b915061088482610843565b602082019050919050565b600060208201905081810360008301526108a88161086c565b9050919050565b7f4465782068616e646c6572206973207a65726f20616464726573730000000000600082015250565b60006108e5601b836107c6565b91506108f0826108af565b602082019050919050565b60006020820190508181036000830152610914816108d8565b9050919050565b6000819050919050565b7f4e487b7100000000000000000000000000000000000000000000000000000000600052601160045260246000fd5b600061095f8261091b565b915061096a8361091b565b925082820390508181111561098257610981610925565b5b92915050565b7f4e487b7100000000000000000000000000000000000000000000000000000000600052603260045260246000fd5b7f4e487b7100000000000000000000000000000000000000000000000000000000600052603160045260246000fdfea26469706673582212202a34deaf0822f27776d713f98a936254486f24dbd39d77123f6271f1a2ab06b064736f6c63430008180033",
  "linkReferences": {},
  "deployedLinkReferences": {}
}